:04000000CBEF18F03A
:08000800046ED8CF05F0E0CF33
:1000100006F00001E9CF0CF0EACF07F0E1CF08F0DD
:10002000E2CF09F0D9CF0AF0DACF0BF0F3CF12F01C
:10003000F4CF13F0FACF14F000C00EF001C00FF0AF
:1000400002C010F003C011F09DA22AEF00F09EB292
:10005000A3EF02F0F2A830EF00F0F2B2BBEF02F033
:10006000F0A636EF00F0F0B0BEEF02F09DAA3CEF34
:1000700000F09EBAC1EF02F0A3AA42EF00F0A4BACA
:10008000D8EF02F07DA048EF00F07EB0A0EF02F0C4
:100090000EC000F00FC001F010C002F011C003F05C
:1000A0000CC0E9FF07C0EAFF078E08C0E1FF09C0E6
:1000B000E2FF0AC0D9FF0BC0DAFF12C0F3FF13C082
:1000C000F4FF14C0FAFF045006C0E0FF05C0D8FFDB
:1000D0001000F2CF0DF0F29EF76AEC0FF66E000EF4
:1000E000F7220900F5500DBEF28E12002446203C86
:1000F0006672657175656E63793E3C63723E202061
:1001000009536574206672657175656E637920693F
:100110006E20314D487A20696E6372656D656E742C
:10012000732028692E652E323235302069732032D3
:100130002E32353047487A290D0A0000F2CF0DF0F3
:10014000F29EF76A560FF66E010EF7220900F5507F
:100150000DBEF28E1200244F4E203C6F6E6F66660D
:100160003E3C63723E2020095365742066756C6CBA
:10017000206F7065726174696F6E206F6E2831290F
:10018000206F72206F66662830290D0A0000F2CFBA
:100190000DF0F29EF76AA80FF66E010EF722090025
:1001A000F5500DBEF28E1200245053203C706F7734
:1001B00065723E3C63723E20200953657420616D78
:1001C0007020706F776572206F6E283129206F72F2
:1001D000206F66662830290D0A00F2CF0DF0F29EDE
:1001E000F76AF40FF66E010EF7220900F5500DBE06
:1001F000F28E12002450203C6C6576656C3E3C63A8
:10020000723E20200953657420706F776572206CF0
:100210006576656C2068696768283129206F7220CF
:100220006C6F772830290D0A0000F2CF0DF0F29E96
:10023000F76A440FF66E020EF7220900F5500DBE64
:10024000F28E1200244C44203C6677643E3C63727C
:100250003E2020095365742046776420706F7765CF
:1002600072206D6561737572656D656E74206F6E59
:10027000283129206F72206F66662830290D0A0008
:10028000F2CF0DF0F29EF76A9A0FF66E020EF72289
:100290000900F5500DBEF28E120024513C63723EEF
:1002A00020200952657175657374207374617475CB
:1002B000730D0A00F2CF0DF0F29EF76ACE0FF66EC4
:1002C000020EF7220900F5500DBEF28E12002442F4
:1002D0004D3C63723E202009424954204D6F6465B5
:1002E000204F4E283129204F464628302900F2CF92
:1002F0000DF0F29EF76A080FF66E030EF722090062
:10030000F5500DBEF28E12002454523C63723E2012
:1003100020095452414E53495645522854292052DF
:1003200045434956455228522900F2CF0DF0F29E1E
:10033000F76A440FF66E030EF7220900F5500DBE62
:10034000F28E1200474F4F440000F2CF0DF0F29EA4
:10035000F76A640FF66E030EF7220900F5500DBE22
:10036000F28E120042414400F2CF0DF0F29EF76A85
:10037000820FF66E030EF7220900F5500DBEF28EC5
:1003800012004F4E0000F2CF0DF0F29EF76AA00F60
:10039000F66E030EF7220900F5500DBEF28E120024
:1003A0004F464600F2CF0DF0F29EF76ABE0FF66E92
:1003B000030EF7220900F5500DBEF28E12005354C1
:1003C00041525400F2CF0DF0F29EF76ADE0FF66E46
:1003D000030EF7220900F5500DBEF28E12005354A1
:1003E0004F500000F2CF0DF0F29EF76AFE0FF66E4E
:1003F000030EF7220900F5500DBEF28E12004C4F8D
:10040000434B0000F2CF0DF0F29EF76A1E0FF66E1E
:10041000040EF7220900F5500DBEF28E12004E4F69
:1004200054204C4F434B0000F2CF0DF0F29EF76A80
:10043000420FF66E040EF7220900F5500DBEF28E43
:100440001200484947480000F2CF0DF0F29EF76ACB
:10045000620FF66E040EF7220900F5500DBEF28E03
:1004600012004C4F5700F2CF0DF0F29EF76A800F4A
:10047000F66E040EF7220900F5500DBEF28E120042
:100480000D0A244641494C0D0A00F2CF0DF0F29EB0
:10049000F76AA40FF66E040EF7220900F5500DBEA0
:1004A000F28E12000D0A24540D0A0000F2CF0DF056
:1004B000F29EF76AC60FF66E040EF7220900F55099
:1004C0000DBEF28E12000D0A244641554C540D0A01
:1004D0000000F2CF0DF0F29EF76AEC0FF66E040EFC
:1004E000F7220900F5500DBEF28E12000D0A244FBE
:1004F0004B0D0A00F2CF0DF0F29EF76A0E0FF66E6A
:10050000050EF7220900F5500DBEF28E12000D0AFD
:10051000425245414B0D0A00F2CF0DF0F29EF76AB0
:10052000320FF66E050EF7220900F5500DBEF28E61
:10053000120042413135333354582056312E3000A9
:100540007E9048EF00F01A681B2A1C2A1C500908EC
:100550000FE21C6A1D2A1E681F2A1F50090808E2A4
:100560001F6A2068212A2150090802E2216A2268B4
:100570009E9248EF00F0F29248EF00F0F09048EFC2
:1005800000F0AECF86F2036A2F50310FE96E000EF5
:100590000320EA6E86C2EFFF2F2A2F501F0801E2C8
:1005A0002F6A2E501F0801E32E2A9E9A48EF00F072
:1005B00074CF86F2036AA651A80FE96E000E0320DD
:1005C000EA6E86C2EFFFA62BA6511F0801E2A66BBA
:1005D000A5511F0801E3A52BA49A48EF00F00D0ACE
:1005E000465245513D256C752C205245563D25738C
:1005F0002C204C494748543D25732C204657443DF8
:10060000256C7564424D2C2054454D503D25352EAA
:1006100031662C205452414E534D49543D25732C84
:100620002049443D256C752C2044433D2530326CD7
:1006300075253032752C2056455220256C732C20A0
:10064000000056312E300000424954204D4F4445A1
:100650003D25732C2053594E5448204C4F434B3D5D
:1006600025732C20504F5745523D25732C200000F8
:10067000244F4E000D0A244641494C0D0A00896A58
:100680008A6A8B6A8C6A8D6AE10E926EC90E936ECD
:10069000810E946EA20E956E9680968296849686B2
:1006A0006FEF03F02E6A2EC030F030C02FF0516A89
:1006B0009D8A1200480E0509BA6E630EBB6EB46ABD
:1006C000B16A000E05090F01516F630E526F4D6B39
:1006D0004E6B000E4A6F000E4B6F0001D0D7C15019
:1006E000F00BC16E210E0F01386F030E3C6F080E28
:1006F000396F000E3A6F200E3B6FC050C00B2509BA
:10070000C06EC08EC280776A040E786E796E00016A
:10071000C9DF9D82C00EF21200EF19F001018BC1FA
:1007200003F08A51D8B48B078A0703101FE0895160
:10073000036E8851882BD8B4892BE96E03C0EAFF79
:100740008751036E8651862BD8B4872B8E6F03C0DA
:100750008FF1F2CF90F1F29E8EC1A9FFA69CA69ECA
:10076000A680A85090BFF28EEF6ED9D70001D3EFCC
:1007700003F0016603D0026602D007D0022A00C04F
:10078000EEFF012EFCD7022EFAD7E7EF03F00101AE
:10079000876B866B010E896F1C0E886F8B6B470E03
:1007A0008A6F0001BBD701011D3D03D01E3D01D062
:1007B00004D01F3D0DD020530BE1010EEA6E1C0E3C
:1007C000E96E006A026A470E016E0001D2D701018C
:1007D000000102EF19F0010EEA6E8A0EE96EEF5089
:1007E00011E0050E016EBF0E006E0400002EFDD755
:1007F000012EF9D72E0E006E002EFED70000040049
:10080000EF2EEFD71200040E0201725F0AE3020E10
:10081000EA6E720EE96EEF5004E001D00400EF2E94
:10082000FDD700011200080E0101EA6FEA5328E02B
:10083000010EEA5DEB6FE9C100F0EB51016E04E0DF
:10084000D8900032012EFCD700A002D08C8001D0BD
:100850008C900400840E006E002EFED700D08B8694
:100860000400840E006E002EFED700D08B9604008C
:10087000F90E0201726F0001C6DF0101EA07D6D747
:100880008C908B96000112000400F29CF29EF2BE46
:10089000FDD7E6C1E8F1E6C1E9F1C5DFE5C1E8F160
:1008A000E5C1E9F1C0DFE4C1E8F1E4C1E9F1BBDF92
:1008B0000400340E006E002EFED700D08B8404009E
:1008C000050E006E002EFED700D000008B94C00EE7
:1008D000F212040012006BC1E8F16AC1E7F169C1CC
:1008E000E6F10101E56B6535006E6635016E673531
:1008F000026E6835036E0036013602360336FC0E92
:1009000000160050E5270150E6230250E72303506C
:10091000E823010EE525E06F000EE621E16F000EF1
:10092000E721E26F000EE821E36F0400E3C1E7F185
:10093000E2C1E6F1E1C1E5F1E0C1E4F10001A4DFCB
:1009400012008B82140E01018A6F000144DF010145
:10095000896BC90E886F876B830E866F89C1E7F13B
:1009600088C1E6F187C1E5F186C1E4F100018CDFC1
:10097000500E01018A6F00012EDF0101896B886B27
:100980000F0E876FA00E866F89C1E7F188C1E6F16F
:1009900087C1E5F186C1E4F1000176DF960E010121
:1009A0008A6F000118DF97DF1AEF19F00101E0519B
:1009B000E203F3CF01F0F4CF00F0E303F35000269D
:1009C000E151E203F3500020026E0001FDEF05F05B
:1009D0000101F86BF96B010EFA6FDA6AD96AFD6FE3
:1009E000F00EFC6F010EEA6EF40EE96EFDC1E2FF3F
:1009F000FCC1E1FFFAC1FBF1D890E550EE02F350E3
:100A0000F823F450F923FB2FF7D7F8C1DEFFF9C123
:100A1000F8F1F96BD8B0F92BFC2BD8B4FD2BFA2BDD
:100A2000FA510508DFE100011200D8B204D0020E2D
:100A3000EA6E810EE96E006A016A026A036A0201C7
:100A4000816B826B836B846B80517F117E117D1172
:100A50002CE0200E856FD89079377A377B377C373A
:100A600081378237833784378051845D08E17F5135
:100A7000835D05E17E51825D02E17D51815D0FE381
:100A80007D51815F7E51D8A07E3D825F7F51D8A08D
:100A90007F3D835F8051D8A0803D845FD880003641
:100AA000013602360336852FD6D781C2EFFF82C2C8
:100AB000ECFF83C2ECFF84C2ECFF000112000400D3
:100AC000D8900101E333E233E2C100F0E3C101F069
:100AD000026A036A03C0EFF102C0EEF1E3C1EDF177
:100AE000E2C1ECF1F36BF26BF16B640EF06F03C0DB
:100AF000F7F102C0F6F1E3C1F5F1E2C1F4F1000152
:100B000067DF03C0E7F102C0E6F101C0E5F100C014
:100B1000E4F10400D892E7C17CF2E6C17BF2E5C1C2
:100B20007AF2E4C179F20201806B7F6B7E6B0A0E70
:100B30007D6F00017ADF03C0EBF102C0EAF101C072
:100B4000E9F100C0E8F104000101EB316C6FEA311A
:100B50006B6FE9316A6FE831696F6C336B336A33FD
:100B600069336C336B336A3369336C336B336A3399
:100B700069336C336B336A3369336C336B336A3389
:100B80006933030E6C176935006E6A35016E6B357B
:100B9000026E6C35036E00360136023603360036BF
:100BA0000136023603360036013602360336003689
:100BB0000136023603360036013602360336C00EE1
:100BC00000160050E85D656F0150E959666F0250EC
:100BD000EA59676F0350EB59686F000112001EC19C
:100BE000DFF11DC1DEF1DFC1E1F1DEC1E0F10101A4
:100BF000E36B0A0EE26F0001D9D602C0E1F101C039
:100C0000E0F102C0E3F101C0E2F159DF64DE030E5E
:100C1000196EE80E186E12009D9A02016F6B6DC27C
:100C200003F06CC2E9FF6DC2EAFFEF523AE06DC219
:100C300003F06C516C2BD8B46D2BE96E03C0EAFF46
:100C4000EFCF6EF26E51090810E06EC2ADFF6F2B50
:100C500004000D0E716F160E726F0001D4DD0201DB
:100C6000712FF9D7AECF6EF21BD0200E706F70517E
:100C70006F5D03E3020E6F25706F70516F5D10E2C0
:100C8000200EAD6E6F2B04000D0E716F160E726F7D
:100C90000001B9DD0201712FF9D7AECF6EF2EDD7A9
:100CA000BED7AECF6EF29D8A000112008994010179
:100CB000DEA702D0898801D089988986040E006E4B
:100CC000002EFED700D08996040E006E002EFED7AF
:100CD00000D0DEA502D0898801D089988986040ECB
:100CE000006E002EFED700D08996040E006E002EF6
:100CF000FED700D0DEA302D0898801D089988986EA
:100D0000040E006E002EFED700D08996040E006EF1
:100D1000002EFED700D0DEA102D0898801D08998AC
:100D20008986040E006E002EFED700D08996040E30
:100D3000006E002EFED700D08986000B006EE051B9
:100D4000020B036E0050031002E0898801D08998DD
:100D5000040E006E002EFED700D08996040E006EA1
:100D6000002EFED700D08986000B006EE051010BEB
:100D7000036E0050031002E0898801D0899889969B
:100D80008986DF51800B006E036A0050031002E079
:100D9000898801D08998040E006E002EFED700D0FD
:100DA0008996040E006E002EFED700D08986DF5192
:100DB000400B006E036A0050031002E0898801D0E6
:100DC0008998040E006E002EFED700D08996040E7E
:100DD000006E002EFED700D08986DF51200B006EFA
:100DE000036A0050031002E0898801D0899889962F
:100DF0008986DF51100B006E036A0050031002E079
:100E0000898801D08998040E006E002EFED700D08C
:100E10008996040E006E002EFED700D08986DF5121
:100E2000080B006E036A0050031002E0898801D0AD
:100E3000899889968986DF51040B006E036A0050F9
:100E4000031002E0898801D08998040E006E002EFC
:100E5000FED700D08996040E006E002EFED700D07B
:100E60008986DF51020B006E036A0050031002E016
:100E7000898801D0899889968986DF51010B006E97
:100E8000036A0050031002E0898801D08998040E9B
:100E9000006E002EFED700D08996040E006E002E44
:100EA000FED700D08986040E006E002EFED700D03B
:100EB00089968986040E006E002EFED700D0040E9F
:100EC000006E002EFED700D08996040E006E002E14
:100ED000FED700D08984040E006E002EFED700D00D
:100EE0008992040E006E002EFED700D08982040E77
:100EF000006E002EFED700D00001120001016F53DA
:100F000004E08C848B8A8C8603D08C948B9A8C968C
:100F100020A645D02096140E016EC250830B0110FE
:100F2000C26E0400190E006E002EFED700D0000025
:100F3000C282C2B2FED7C3CF86F1C4CF87F1D890A8
:100F40002C34026E2D34036E0250240FE96E000E15
:100F50000320EA6E87C1ECFFED5286C1EFFF2C2A19
:100F6000D8B42D2A2D5203E12C50030802E22D6A39
:100F70002C6A26502424886F27502520896F2850FA
:100F80008827295089232A5088272B508923893183
:100F9000876F8831866F873386333F0E871700014E
:100FA0008BEF19F0ABA20AD0AB92AB980400050E00
:100FB000006E002EFED700D00000AB88ABA403D09B
:100FC000AB94AECF86F1C8EF18F0036A3050310F02
:100FD000E96E000E0320EA6EEFCFA7F1302A305001
:100FE0001F0801E2306A2E5201E02E060101A7C15E
:100FF00001F00001120001016D516D2B036A530FC6
:10100000E96E000E0320EA6E036AEFCF01F003C021
:1010100002F0000112000D0E0101DE6F0A0EDF6FFB
:10102000E06B010E02016D6FDE0E6C6F0001F4DDEE
:10103000010EEA6EDE0EE96EF2CF2DF2F29E4F0E39
:10104000016EF76A000E69EC00F00A000900F5CFA6
:10105000EEFF012EFBD702012DBFF28E010E6D6F48
:10106000DE0E6C6F0001D8DD010EEA6EDE0EE96E59
:10107000F2CF2DF2F29E370E016EF76A000E9EEC53
:1010800000F00A000900F5CFEEFF012EFBD70201A8
:101090002DBFF28E010E6D6FDE0E6C6F0001BCDD98
:1010A000010EEA6EDE0EE96EF2CF2DF2F29E320EE6
:1010B000016EF76A000EC7EC00F00A000900F5CFD8
:1010C000EEFF012EFBD702012DBFF28E010E6D6FD8
:1010D000DE0E6C6F0001A0DD010EEA6EDE0EE96E21
:1010E000F2CF2DF2F29E350E016EF76A000EEDEC96
:1010F00000F00A000900F5CFEEFF012EFBD7020138
:101100002DBFF28E010E6D6FDE0E6C6F000184DD5F
:10111000010EEA6EDE0EE96EF2CF2DF2F29E3C0E6B
:10112000016EF76A000E15EC01F00A000900F5CF18
:10113000EEFF012EFBD702012DBFF28E010E6D6F67
:10114000DE0E6C6F000168DD010EEA6EDE0EE96EE8
:10115000F2CF2DF2F29E1A0E016EF76A000E40ECED
:1011600001F00A000900F5CFEEFF012EFBD70201C6
:101170002DBFF28E010E6D6FDE0E6C6F00014CDD27
:10118000010EEA6EDE0EE96EF2CF2DF2F29E200E17
:10119000016EF76A000E5AEC01F00A000900F5CF63
:1011A000EEFF012EFBD702012DBFF28E010E6D6FF7
:1011B000DE0E6C6F000130DD010EEA6EDE0EE96EB0
:1011C000F2CF2DF2F29E220E016EF76A000E77EC3E
:1011D00001F00A000900F5CFEEFF012EFBD7020156
:1011E0002DBFF28E010E6D6FDE0E6C6F000114DDEF
:1011F00050EF12F0036A01016D51530FE96E000EBA
:101200000320EA6EEF5218E0036A6D51530FE96E46
:10121000000E0320EA6EEF502C080AE0036A6D51BD
:10122000530FE96E000E0320EA6EEF50200804E130
:101230006D2B0001DFD7010100011200036A0101DB
:101240006D51530FE96E000E0320EA6E036AEFCF73
:1012500001F003C002F0000112000101E551E7199D
:10126000800BE96FE5AF05D0E41FE51FE42BD8B490
:10127000E52BE7AF05D0E61FE71FE62BD8B4E72B39
:10128000E451E603F3CF01F0F4CF00F0E703F350AD
:101290000026E551E603F3500020026EE9AF05D0C9
:1012A000011E021E012AD8B4022A00011200010107
:1012B000E36B010EE26F00019DDF036A01016D51D6
:1012C000530FE96E000E0320EA6EEF5240E0E16B2F
:1012D000E06B0001B3DF02C0E5F101C0E4F1010100
:1012E00001502D0807E1E55305E1E369E2690001DA
:1012F00082DE0101036A6D51530FE96E000E032077
:10130000EA6EEFCFE4F1E4512F0821E2E45139080D
:101310001EE3E1C1E5F1E0C1E4F1E76B0A0EE66F1F
:1013200000019BDF02C0E5F101C0E4F101016D5154
:101330006D2B036A530FE96E000E0320EA6E300E28
:10134000EF5C0124E06F000E0220E16FD3D7E1C112
:10135000E5F1E0C1E4F1E3C1E7F1E2C1E6F100014A
:101360007CDF02C003F002C002F01200A0DF02C066
:10137000DFF101C0DEF10101DEC101F0DFC102F0E9
:10138000000156EF12F00101E3C103F0E251D8B4BD
:10139000E307E20703102CE0DF51036EDE51DE2B82
:1013A000D8B4DF2BE46F03C0E5F1E151036EE051E7
:1013B000E02BD8B4E12BE96E03C0EAFFEFCFE6F1F2
:1013C000F250006EF29EE4C1A9FFE6C1A8FFA69C00
:1013D000A69EA6840F01550EA76EAA0EA76EA68222
:1013E000A6B2FED7A6940050F2120001CCD701019C
:1013F00000010DEF0AF0010163519F080FE16451F4
:101400000B080CE1DF6BDE6B010EE16F1C0EE06F71
:10141000E36B470EE26F0001B6D70101646B636BAB
:1014200000011200959E8C9E080E016E00D00000F7
:10143000018E10D0019E0101E0330001D8B08C8EE6
:10144000D8A08C9E018C06D0019C012EF4D700D030
:1014500000008C8E050EE96EE92EFED700D001BE8D
:10146000E9D701BCF1D73FEF0AF00900F5520CE0D3
:10147000F6CFDEF1F7CFDFF1F5CFE0F1D3D7DEC164
:10148000F6FFDFC1F7FFF1D7120011DF02C0DFF175
:1014900001C0DEF10101DF530AE1DE51010807E37B
:1014A000DFC120F1DEC11FF1010E016E02D0000E7E
:1014B000016E0001B9EF14F08E0E006E6DC201F0E6
:1014C0006CC202F0036A015209E102C001F0026A33
:1014D000080E005E015202E1006A08D0D89001BEF9
:1014E00004D0023601360006F9D7019E02EF0FF054
:1014F00002017051D8B4A5D07C6F7451D8B4A1D07A
:101500007C5F05E37F0E7C27D8B09BD006D0810E90
:101510007C5FD8A096D0D8B494D07CC200F0016A89
:10152000026A036A7B6B71C27AF27A8F72C279F2B5
:1015300073C278F2190E7C6F7751785F0DE2010E5D
:10154000795F0AE27A5F08E27B5F06E27B2B7A2B07
:10155000792B7751782728D07651795F12E2010EE6
:101560007A5F0FE27B5F0DE27B2B7A2B7651792736
:101570007751782719E3792B17E17A2B15E17B2B2B
:1015800013D0755180097A5F0EE2010E7B5F0BE28A
:101590007B2B755180097A2776517927E9E37A2BDD
:1015A000E7E17B2BE5D703807C2F01D00BD0D890CF
:1015B000783779377A377B37D89003360236013659
:1015C0007D37BAD77DA106D0D890013202320332DE
:1015D0007D3302D0000635E07DBF1ED0D89078372D
:1015E00079377A377B377751785F07E2010E795F79
:1015F00004E27A5F02E27B5F1AE37651795F05E2EB
:10160000010E7A5F02E27B5F12E3755180097A5F17
:1016100003E2010E7B5F0BE3032A09E1022A07E1E3
:10162000012A05E1002A0DE001320232033271C2C3
:101630007CF275517C1B7CAF02D0018E06D0019EDE
:1016400004D0006A016A026A036A00011BEF0FF00E
:1016500002017951D8B471D0006E7D51D8B46DD0EB
:10166000002604E3810E002668E204D07F0E005EAF
:1016700064E363E07AC281F27E51811B7A8F7E8FB0
:101680007C518003F4CF83F27B517F03F4CF03F0CE
:10169000F3CF82F28003F3508327F4508223000EAD
:1016A00003227C517F03F3508327F4508223000EE2
:1016B000026A032202227A518003F3508227F450F7
:1016C0000322000E02227A517F03F3500326F450C6
:1016D0000222000E016A01227C517E03F350822710
:1016E000F4500322000E022201227B517E03F350AC
:1016F0000326F4500222000E01227A517E03F35099
:101700000226F4500122002A01BE05D0823703369A
:10171000023601360006000E82AF0AD0032A0222EA
:101720000122015005E1025003E1035001E1002ACA
:1017300081BF018E81AF019E04D0006A016A026AF6
:10174000036A00011200800ED8A202D00201711BB0
:101750000201766B776B6DC275F27151751B6C511E
:10176000D8B4DFD0746F006E7051D8B4E3D0745F1A
:10177000D8B483D03EE371C27AF27A8F72C279F222
:1017800073C278F2776BD8907A33793378337733C2
:10179000742FF8D775AF03D07681E0D0769174912D
:1017A0007689020EEA6E6F0EE96EEBD0769975BF00
:1017B0000AD074A113D07A33793378337733002A7F
:1017C000D8B4C7D00BD07ABF0CD0D8907737783741
:1017D00079377A370006D8B4BCD0F5D7768D6DD07E
:1017E000769D6DC275F26DAF02D07A8FABD07A9FC5
:1017F000A9D070C274F270C200F06C51745F6DC2F7
:101800007AF27A8F6EC279F26FC278F2776BD890E3
:101810007A33793378337733742FF8D775AF03D0B1
:1018200076839CD076937491768B020EEA6E730E5B
:10183000E96EA7D0769B75BF0AD074A113D07A3316
:10184000793378337733002AD8B483D00BD07ABF7A
:101850000CD0D8907737783779377A370006D8B4F4
:1018600078D0F5D7768F29D0769F71C275F271AF97
:1018700002D07A8F67D07A9F65D071C27AF27A8F60
:1018800072C279F273C278F275AF04D07A9F76850E
:1018900065D07695776B7491020EEA6E6F0EE96EE5
:1018A00070D075BF1CD06DC275F274A106D07A33AA
:1018B000793378337733002A4CE077AF0BD0782B2D
:1018C00009E1792B07E17A2B05E17A337933783313
:1018D000002A3FE076BD84D776BFC6D71CD0800EE5
:1018E0007A1B7AAF04D03AD071C275F20AD06DC2B9
:1018F00075F27A5306E1795304E1785302E1006A04
:1019000021D07ABF08D0D8907737783779377A37AF
:10191000002EF7D71ED075AF02D07A8F13D07A9FE2
:1019200011D070C200F071C27AF272C279F273C241
:1019300078F208D06CC200F06DC27AF26EC279F211
:101940006FC278F27AC201F079C202F078C203F075
:1019500034D0006A016A026A036A2FD0776B781F5D
:10196000791F7A1F771F772B05E1782B03E1792BFD
:1019700001E17A2B76B112D776B354D776B589D7F1
:10198000B3D7EF50782705E3792B03E17A2BD8B44E
:101990007481ED52EF50792703E37A2BD8B4748128
:1019A000ED52EF50EFBE01D0800A7A27D8B0748193
:1019B00076B9FCD676BB3ED774D70001120073C14E
:1019C000EAFF72C1E9FF020179C2EFFFE92AD8B448
:1019D000EA2AEF6A0101722BD8B4732B00011200BE
:1019E0000900F6CF6DF2F7CF6EF2F5CF79F2E7DFAF
:1019F0006DC2F6FF6EC2F7FF02016C2F01D002D05C
:101A00000001EED700011200EACF74F2E9CF73F2C1
:101A100002016D39F0096F6F6F27E20F706F320F9F
:101A2000726F6D510F0B702770277227E90F716F5E
:101A3000712771276C390F0B712772277137723735
:101A4000721F72376C510F0B72276F37070E6E6F54
:101A50000A0E71077227FDE370077127FDE36F0718
:101A60007027FDE36E076F27FDE3020EEA6E6E0E30
:101A7000E96E070E7315739DE926720EE95CD8B402
:101A8000738DEF50006E08E173BD06D073B915D0A9
:101A900073B702D0200E03D073877399300E0026DF
:101AA000EACF6DF2E9CF6CF200C079F2000187DF76
:101AB0006DC2EAFF6CC2E9FF0201EE5073ADDDD7E3
:101AC00000011200EF520FE0EACF6DF2E9CF6CF2A5
:101AD000EFCF79F274DF6DC2EAFF6CC2E9FFE92A49
:101AE000D8B4EA2AEFD7120002017951B608796F0B
:101AF000036A7AC27DF27A8FD8907A337B337C3353
:101B00000332023201320032792FF6D77DAF0BD08B
:101B1000001E011E021E031E002AD8B4012AD8B4DA
:101B2000022AD8B4032A0001C1EF0DF0E9500201E6
:101B3000716F7051736F1BE06FC27CF26EC27BF2EB
:101B40006DC27AF26CC279F2806B7F6B200E7E6F71
:101B5000820E7D6F00017CDD03C06FF202C06EF269
:101B600001C06DF200C06CF20201732FE5D76FC2A5
:101B70007CF26EC27BF26DC27AF26CC279F2000125
:101B8000B3D703C06FF202C06EF201C06DF200C0A5
:101B90006CF202016FAF0DD07107718B6C1F6D1F5E
:101BA0006E1F6F1F6C2BD8B46D2BD8B46E2BD8B4AE
:101BB0006F2B3B0E786F9A0E776FCA0E766F756B30
:101BC0000A0E736F7051D8B4712BD882020EEA6E70
:101BD0006C0EE96E6FC27CF26EC27BF26DC27AF25D
:101BE0006CC279F278C280F277C27FF276C27EF25E
:101BF00075C27DF2000115EC05F00150005213E1B1
:101C000002017029735DD8A402D000010CD071517B
:101C10000DE00F0B735D01E040E271BF3ED071BD7E
:101C200005D0200E34D0200E0201711771AB0ED0FA
:101C3000719B7051D8A471070050716F2D0E796F90
:101C40000001BDDE02017151006E716B7051735D58
:101C50000CE10050716F2E0E796F0001B0DE0201B1
:101C60007151006E200E7117000E300E71AB0FD047
:101C7000719B7051D8A471070050716F2D0E796F50
:101C800000019DDE02017151006E716B300E002665
:101C900000C079F2000193DE0201D89278C27CF292
:101CA00077C27BF276C27AF275C279F2806B7F6B73
:101CB0007E6B0A0E7D6F000115EC05F003C078F213
:101CC00002C077F201C076F200C075F20201732FF4
:101CD0007CD700015CEF11F002016F51016A6E5D6B
:101CE00003E26EC200F00CD0006A080E706F6E370F
:101CF00000366F51005CD8B0006E0136702FF7D7F8
:101D00000001120001506CC26EF2640E02016F6F8E
:101D10000001E2DF00C06CF20150300E08E1020168
:101D20006DA30FD06DB70DD06DB9200E04D0020198
:101D30006D976D996D81012601C079F200013FDE3A
:101D400002016CC26EF20A0E6F6F0001C5DF00C0A7
:101D50006CF20150300E08E102016DB70AD06DA19E
:101D600008D06DB9200E0001012601C079F227DEEE
:101D70000201300E6C276CC279F2000120DE97EF71
:101D800011F00900F5520CE0F6CF6CF2F7CF6DF2CE
:101D9000F5CF79F214DE6CC2F6FF6DC2F7FFF1D712
:101DA000A6EF11F0100E016EC250830B0110C26E2F
:101DB0000400190E006E002EFED700D00000C28273
:101DC000C2B2FED7C4CFDFF10101C3CFDEF1640E92
:101DD000016EC250830B0110C26E0400190E006E1A
:101DE000002EFED700D00000C282C2B2FED7C3CF01
:101DF000E2F1C4CFE3F1E3C16DF2E2C16CF20001A4
:101E00005CEF0AF003C06FF202C06EF201C06DF227
:101E100000C06CF203C073F202C072F201C071F232
:101E200000C070F20201776B766B756B890E746F70
:101E3000000178EF0AF003C06FF202C06EF201C039
:101E40006DF200C06CF203C07CF202C07BF201C0F4
:101E50007AF200C079F2330E0201806F7F6F530E69
:101E60007E6F800E7D6F000128EC0BF003C06BF2DB
:101E700002C06AF201C069F200C068F2D8826BC287
:101E80006FF26AC26EF269C26DF268C26CF2020150
:101E9000736B726B400E716F7E0E706F000153DCBE
:101EA00003C06BF202C06AF201C069F200C068F2BE
:101EB0006BC27CF26AC27BF269C27AF268C279F2C2
:101EC0000201806B7F6B480E7E6F850E7D6F000177
:101ED00028EC0BF003C06BF202C06AF201C069F299
:101EE00000C068F2D8926BC26FF26AC26EF269C229
:101EF0006DF268C26CF20201736B726B480E716F07
:101F0000830E706F00011FDC03C06BF202C06AF227
:101F100001C069F200C068F2140E016EC250830B5A
:101F20000110C26E0400190E006E002EFED700D004
:101F30000000C282C2B2FED7C4CFE1F10101C3CF1B
:101F4000E0F1E56BE46BE55322E1E4510B081FE39C
:101F5000E435026EE535036E02360336FC0E0216DA
:101F600002502F0FE96E010E0320EA6EECCF03F052
:101F7000ED52EFCF01F0E151035C05E303E1E051E5
:101F8000015C01E304D0E42BD8B4E52BDCD7E435C5
:101F9000026EE535036E02360336FC0E0216025061
:101FA000130F02016C6F000E03206D6F020E6C2583
:101FB000016E000E6D21036E01501C0FE96E010EC3
:101FC0000320EA6EECCFE1F1ED52EFCFE0F1010139
:101FD000DF5102081AE303E1DE51120816E3020E94
:101FE000EA6E260EE96EF2CF6CF2F29E000E000150
:101FF00095EC01F00A000900F550EE6E0009FBE1D6
:1020000002016CBFF28E15D00101020EEA6E260E9F
:10201000E96EF2CF6CF2F29E000E0001A5EC01F029
:102020000A000900F550EE6E0009FBE102016CBFE9
:10203000F28E01015D2D16D0020EEA6E310EE96EB0
:10204000F2CF6CF2F29E000E0001B4EC01F00A0037
:102050000900F550EE6E0009FBE102016CBFF28E43
:1020600015D00101020EEA6E310EE96EF2CF6CF26C
:10207000F29E000E0001C3EC01F00A000900F550C9
:10208000EE6E0009FBE102016CBFF28E01016F2DC3
:1020900018D0702D16D0020EEA6E3C0EE96EF2CF0B
:1020A0006CF2F29E000E0001B4EC01F00A0009008F
:1020B000F550EE6E0009FBE102016CBFF28E15D007
:1020C0000101020EEA6E3C0EE96EF2CF6CF2F29E56
:1020D000000E0001C3EC01F00A000900F550EE6E9D
:1020E0000009FBE102016CBFF28E0101712D16D0D7
:1020F000020EEA6E470EE96EF2CF6CF2F29E000E0F
:102100000001D2EC01F00A000900F550EE6E000962
:10211000FBE102016CBFF28E15D00101020EEA6EE6
:10212000470EE96EF2CF6CF2F29E000E0001E2EC77
:1021300001F00A000900F550EE6E0009FBE1020112
:102140006CBFF28E83B215D0020EEA6E520EE96EAB
:10215000F2CF6CF2F29E000E0001F2EC01F00A00E8
:102160000900F550EE6E0009FBE102016CBFF28E32
:1021700014D0020EEA6E520EE96EF2CF6CF2F29EAD
:10218000000E000102EC02F00A000900F550EE6EAC
:102190000009FBE102016CBFF28E01011F2D18D076
:1021A000205316E1020EEA6E5D0EE96EF2CF6CF27C
:1021B000F29E000E000114EC02F00A000900F55036
:1021C000EE6E0009FBE102016CBFF28E15D0010139
:1021D000020EEA6E5D0EE96EF2CF6CF2F29E000E18
:1021E000000124EC02F00A000900F550EE6E00092F
:1021F000FBE102016CBFF28E010E0101736FE60E6E
:10220000726FDE0EF66E050EF76E070E02016C6F32
:102210000001F0EC0CF0100EE96E1EC16DF21DC154
:102220006CF204EC0DF0E80EF66E050EF76E060E7D
:1022300002016C6F0001F0EC0CF0020EEA6E260E4B
:10224000E96E40DCF00EF66E050EF76E080E020128
:102250006C6F0001F0EC0CF0020EEA6E310EE96ECC
:1022600031DCFA0EF66E050EF76E060E02016C6F8B
:102270000001F0EC0CF0100EE96EE1C16DF2E0C16E
:102280006CF204EC0DF0030EF66E060EF76E0A0EFD
:1022900002016C6F0001F0EC0CF0040EE96E6BC2F1
:1022A0006FF26AC26EF269C26DF268C26CF2010E20
:1022B0000201706F00013AD4120EF66E060EF76E30
:1022C0000B0E02016C6F0001F0EC0CF0020EEA6ED6
:1022D0003C0EE96E62EC0DF01F0EF66E060EF76E08
:1022E000050E02016C6F0001F0EC0CF0100EE96EAF
:1022F00062C16DF261C16CF204EC0DF0270EF66E56
:10230000060EF76E050E02016C6F0001F0EC0CF08A
:102310000B0EE96E5FC16DF25EC16CF204EC0DF064
:1023200060C16CF2010E02016D6F0001EBD4350E3D
:10233000F66E060EF76E060E02016C6F0001F0ECF1
:102340000CF0420EF66E060EF76E1BD52C0E020137
:10235000796F0001DFEC0CF0200E0201796F0001B3
:10236000DFEC0CF0010E02016D6FE60E6C6F0001E8
:102370000CEC06F0010E0101736FE60E726F480E51
:10238000F66E060EF76E090E02016C6F0001F0EC9E
:102390000CF0020EEA6E470EE96E62EC0DF0530E81
:1023A000F66E060EF76E0D0E02016C6F0001F0EC7A
:1023B0000CF0020EEA6E520EE96E62EC0DF0620E47
:1023C000F66E060EF76E080E02016C6F0001F0EC5F
:1023D0000CF0020EEA6E5D0EE96E62EC0DF02C0E52
:1023E0000201796F0001DFEC0CF0200E0201796F21
:1023F0000001DFEC0CF0010E02016D6FE60E6C6F58
:1024000000010CEC06F0DBEF17F0020E0101A76FE4
:102410006D6B0001FBEC07F002C0DFF101C0DEF1E3
:102420000101DF5303E1DE51600808E2DF5306E1FA
:10243000DE517A0803E3DE51DF0B01D0DE51480A9A
:1024400000012CE0770A2AE0790A2EE0090AD8B4C4
:10245000FFD01B0AD8B469D1160AD8B4BFD1120A6A
:10246000D8B430D21C0AD8B48DD20F0AD8B4FCD25A
:10247000100AD8B42BEF16F0620AD8B45CEF17F04C
:10248000030AD8B493EF17F0010AD8B4C8EF17F0D5
:10249000620AD8B4CFEF17F0D2EF17F00BEF08F0C5
:1024A000000E016EDDEF17F0B6EF09F00101AD6B24
:1024B000AC6B02C0ABF101C0AAF11F51201164E066
:1024C000AD530AE1AC5308E1AB5115083CE2FF0AF9
:1024D00003E1AA512A0837E2AD5335E1AC5333E1A9
:1024E000AB51160830E303E1AA5135082CE3ABC128
:1024F0001EF1AAC11DF1ADC1F3F1ACC1F2F1ABC146
:10250000F1F1AAC1F0F1F76BF66BF56B0A0EF46FFF
:102510000001E8EC04F001C0DFF100C0DEF101C011
:10252000E3F100C0E2F15FEC05F06BEC04F00B0EA0
:102530000101646F9F0E636F0001FBEC09F0EFEC8B
:1025400005F020D00101010EEA6EB60EE96EF2CF61
:10255000DEF1F29E0A0E016EF76A000E000133EC06
:1025600002F00A000900F5CFEEFF012EFBD70101B2
:10257000DEBFF28E010E02016D6FB60E6C6F0001B0
:102580000CEC06F063D00101AD530AE1AC5308E155
:10259000AB5113083CE2FF0A03E1AA511D0837E2E0
:1025A000AD5335E1AC5333E1AB51140830E303E1F3
:1025B000AA5182082CE3ABC11EF1AAC11DF1ADC125
:1025C000F3F1ACC1F2F1ABC1F1F1AAC1F0F1F76BDB
:1025D000F66BF56B0A0EF46F0001E8EC04F001C035
:1025E000DFF100C0DEF101C0E3F100C0E2F15FEC19
:1025F00005F06BEC04F00B0E0101646F9F0E636F2E
:102600000001FBEC09F0EFEC05F020D00101010E18
:10261000EA6EC00EE96EF2CFDEF1F29E0A0E016E96
:10262000F76A000E000133EC02F00A000900F5CF52
:10263000EEFF012EFBD70101DEBFF28E010E02017B
:102640006D6FC00E6C6F00010CEC06F0DBEF17F045
:10265000FBEC07F002C0DFF101C0DEF10101DF5346
:1026600003E1DE51600808E2DF5306E1DE517A083B
:1026700003E3DE51DF0B01D0DE514E0833E10001F0
:1026800057EC09F001C0A8F10101A851010809E3C4
:10269000A85304E08B82010E706F02D08B92706B96
:1026A00020D0010EEA6ECA0EE96EF2CFDEF1F29E84
:1026B0000A0E016EF76A000E000133EC02F00A0008
:1026C0000900F5CFEEFF012EFBD70101DEBFF28E30
:1026D000010E02016D6FCA0E6C6F00010CEC06F06A
:1026E000010120D0010EEA6ED40EE96EF2CFDEF1C8
:1026F000F29E0A0E016EF76A000E000133EC02F042
:102700000A000900F5CFEEFF012EFBD70101DEBF65
:10271000F28E010E02016D6FD40E6C6F00010CEC95
:1027200006F001010001DBEF17F0FBEC07F002C03F
:10273000DFF101C0DEF10101DF5303E1DE5160088A
:1027400008E2DF5306E1DE517A0803E3DE51DF0BD6
:1027500001D0DE51520821E1010EEA6ED40EE96E7D
:10276000F2CFDEF1F29E070E016EF76A000E000155
:1027700045EC02F00A000900F5CFEEFF012EFBD771
:102780000101DEBFF28E010E02016D6FD40E6C6F7F
:1027900000010CEC06F020D00101010EEA6ED40E0F
:1027A000E96EF2CFDEF1F29E0A0E016EF76A000EBC
:1027B000000133EC02F00A000900F5CFEEFF012E14
:1027C000FBD70101DEBFF28E010E02016D6FD40E48
:1027D0006C6F00010CEC06F0DBEF17F0FBEC07F080
:1027E00002C0DFF101C0DEF10101DF5303E1DE5180
:1027F000600808E2DF5306E1DE517A0803E3DE51A8
:10280000DF0B01D0DE514D083DE1000157EC09F02E
:1028100001C0A8F10101A851010813E3A8530CE07D
:10282000010E716F8B88700EF66E060EF76E00014A
:1028300035EC0AF004D00101716B8B98000120D0B7
:102840000101010EEA6ED40EE96EF2CFDEF1F29EC6
:102850000A0E016EF76A000E000133EC02F00A0066
:102860000900F5CFEEFF012EFBD70101DEBFF28E8E
:10287000010E02016D6FD40E6C6F00010CEC06F0BE
:1028800020D00101010EEA6ED40EE96EF2CFDEF126
:10289000F29E0A0E016EF76A000E000133EC02F0A0
:1028A0000A000900F5CFEEFF012EFBD70101DEBFC4
:1028B000F28E010E02016D6FD40E6C6F00010CECF4
:1028C00006F079D31EEC09F002C0DFF101C0DEF1A1
:1028D0000101DF5303E1DE51600808E2DF5306E146
:1028E000DE517A0803E3DE51DF0B01D0DE515308DD
:1028F0003DE10001FBEC07F057EC09F001C0A8F145
:102900000101A851010811E3A85303E0010E6F6F04
:1029100001D06F6B6FC11CF10B0E646F9F0E636F64
:102920000001FBEC09F020D00101010EEA6ED40E8B
:10293000E96EF2CFDEF1F29E0A0E016EF76A000E2A
:10294000000133EC02F00A000900F5CFEEFF012E82
:10295000FBD70101DEBFF28E010E02016D6FD40EB6
:102960006C6F00010CEC06F004D00101000145EF92
:102970000AF00B0E0101646F9F0E636F0001FBEC08
:1029800009F019D3FBEC07F002C0DFF101C0DEF162
:102990000101DF5303E1DE51600808E2DF5306E185
:1029A000DE517A0803E3DE51DF0B01D0DE5144082B
:1029B0003BE1000157EC09F001C0A8F10101A85169
:1029C000010811E3A85304E0010E5D6F8A8402D070
:1029D0005D6B8A940B0E646F9F0E636F0001FBECBE
:1029E00009F020D00101010EEA6ED40EE96EF2CF9B
:1029F000DEF1F29E0A0E016EF76A000E000133EC62
:102A000002F00A000900F5CFEEFF012EFBD701010D
:102A1000DEBFF28E010E02016D6FD40E6C6F0001ED
:102A20000CEC06F020D00101010EEA6ED40EE96E26
:102A3000F2CFDEF1F29E0A0E016EF76A000E00017F
:102A400033EC02F00A000900F5CFEEFF012EFBD7B0
:102A50000101DEBFF28E010E02016D6FD40E6C6FAC
:102A600000010CEC06F0A7D257EC09F001C0A8F168
:102A70000101A85320E1020EDE6FE06BDF6B000165
:102A800056EC06F0060E0101DE6FE06BDF6B000115
:102A900056EC06F00A0E0101DE6FE06BDF6B000101
:102AA00056EC06F00E0E0101DE6FE06BDF6B0001ED
:102AB00056EC06F00101A82D12D0000157EC09F0E8
:102AC00002C0B5F101C0B4F1020E0101DE6FB5C163
:102AD000E0F1B4C1DFF1000156EC06F00101A851AC
:102AE000020812E1000157EC09F002C0B5F101C083
:102AF000B4F1060E0101DE6FB5C1E0F1B4C1DFF142
:102B0000000156EC06F00101A851030812E1000192
:102B100057EC09F002C0B5F101C0B4F10A0E010191
:102B2000DE6FB5C1E0F1B4C1DFF1000156EC06F093
:102B30000101A851040812E1000157EC09F002C09C
:102B4000B5F101C0B4F10E0E0101DE6FB5C1E0F1C7
:102B5000B4C1DFF1000156EC06F00101A8510508EF
:102B600024E1020EDE6FE06BD20EDF6F000156EC47
:102B700006F0060E0101DE6FE06BD20EDF6F000182
:102B800056EC06F00A0E0101DE6FE06BD20EDF6F2D
:102B9000000156EC06F00E0E0101DE6FE06BD20E66
:102BA000DF6F000156EC06F00101A851060828E18C
:102BB000020EDE6F010EE06FA40EDF6F000156EC17
:102BC00006F0060E0101DE6F010EE06FA40EDF6F4E
:102BD000000156EC06F00A0E0101DE6F010EE06FF7
:102BE000A40EDF6F000156EC06F00E0E0101DE6F41
:102BF000010EE06FA40EDF6F000156EC06F001013C
:102C0000A851070827E1020EDE6FE06F760EDF6F36
:102C1000000156EC06F0060E0101DE6F020EE06FB9
:102C2000760EDF6F000156EC06F00A0E0101DE6F32
:102C3000020EE06F760EDF6F000156EC06F00E0E0E
:102C40000101DE6F020EE06F760EDF6F000156ECC1
:102C500006F001010001FAEC08F0FBEC07F001C0FE
:102C6000A8F157EC09F001C0A9F157EC09F002C036
:102C7000AFF101C0AEF10101A851600806E2A85110
:102C80007A0803E3A851DF0B01D0A8514E0A0001D6
:102C90000BE01E0A3DE0020A6FE0140AD8B4AAD085
:102CA000100AD8B4FED007D10101A95101080EE3E2
:102CB000D890A935036A210FE96E010E0320EA6E50
:102CC000AFC1ECFFED52AEC1EFFF20D0010EEA6EB6
:102CD000D40EE96EF2CFDEF1F29E0A0E016EF76AB3
:102CE000000E000133EC02F00A000900F5CFEEFF00
:102CF000012EFBD70101DEBFF28E010E02016D6FC6
:102D0000D40E6C6F00010CEC06F001010001D3D071
:102D10000101A95103080EE3D890A935036A270FD2
:102D2000E96E010E0320EA6EAFC1ECFFED52AEC1B9
:102D3000EFFF20D0010EEA6ED40EE96EF2CFDEF185
:102D4000F29E0A0E016EF76A000E000133EC02F0EB
:102D50000A000900F5CFEEFF012EFBD70101DEBF0F
:102D6000F28E010E02016D6FD40E6C6F00010CEC3F
:102D700006F0010100019FD0FBEC07F002C0DFF17B
:102D800001C0DEF10101DF5303E1DE51600808E21A
:102D9000DF5306E1DE517A0803E3DE51DF0B01D099
:102DA000DE51520805E1AFC15CF1AEC15BF120D04C
:102DB000010EEA6ED40EE96EF2CFDEF1F29E0A0E3B
:102DC000016EF76A000E000133EC02F00A00090000
:102DD000F5CFEEFF012EFBD70101DEBFF28E010E13
:102DE00002016D6FD40E6C6F00010CEC06F0010156
:102DF000000161D00101A9510B0831E3A951040D73
:102E0000F350036A2F0FE96E010E0320EA6EAFC183
:102E1000ECFFED52AEC1EFFF000157EC09F002C02C
:102E2000AFF101C0AEF10101A951040DF350036AE5
:102E3000130FDE6F000E0320DF6F020EDE25016E22
:102E4000000EDF21036E01501C0FE96E010E0320FE
:102E5000EA6EAFC1ECFFED52AEC1EFFF20D0010E24
:102E6000EA6ED40EE96EF2CFDEF1F29E0A0E016E2A
:102E7000F76A000E000133EC02F00A000900F5CFFA
:102E8000EEFF012EFBD70101DEBFF28E010E020123
:102E90006D6FD40E6C6F00010CEC06F001010001A7
:102EA0000AD00B0E0101646F9F0E636F0001FBECF3
:102EB00009F0EFEC05F07FD057EC09F002C0B1F15A
:102EC00001C0B0F10101B05302E1B1530AE0B153C6
:102ED00008E1B051630805E3B1C15FF1B0C15EF133
:102EE00020D0010EEA6ED40EE96EF2CFDEF1F29E32
:102EF0000A0E016EF76A000E000133EC02F00A00C0
:102F00000900F5CFEEFF012EFBD70101DEBFF28EE7
:102F1000010E02016D6FD40E6C6F00010CEC06F017
:102F20000101000148D057EC09F002C0B3F101C023
:102F3000B2F10101B25302E1B35308E0B35306E129
:102F4000B251390803E3B2C160F120D0010EEA6E3C
:102F5000D40EE96EF2CFDEF1F29E0A0E016EF76A30
:102F6000000E000133EC02F00A000900F5CFEEFF7D
:102F7000012EFBD70101DEBFF28E010E02016D6F43
:102F8000D40E6C6F00010CEC06F00101000113D0AF
:102F900057EC09F002C062F101C061F10CD0D2EF30
:102FA0000EF009D0740EF66E060EF76E35EC0AF0D0
:102FB000000E016E02D0000E016E45EF18F0515068
:102FC000FC0FD8B0CBD0040FB0EF18F0526A512AE2
:102FD000C5D02E5233E0E5EC07F00101876B01C04C
:102FE00086F1865187112BE08651240808E187532A
:102FF00006E1512A0001A46BA36B20D00101010E50
:10300000EA6E8A0EE96EF2CFA7F1F29E0B0E016E08
:10301000F76A000E000156EC02F00A000900F5CF35
:10302000EEFF012EFBD70101A7BFF28E010E0201B8
:103030006D6F8A0E6C6F00010CEC06F0010100014F
:103040008DD02E52D8B473D0A46BA36BE5EC07F0EF
:103050000101876B01C086F15250522A036A530F57
:10306000E96E000E0320EA6E86C1EFFF525046085B
:1030700004E2516A000172D0010186510D0832E16B
:10308000875330E1000105EF12F00101896B01C0A7
:1030900088F1883D02D0895320E0010EEA6E950E3A
:1030A000E96EF2CFA7F1F29E080E016EF76A000EEC
:1030B000000169EC02F00A000900F5CFEEFF012ED5
:1030C000FBD70101A7BFF28E010E02016D6F950EB5
:1030D0006C6F00010CEC06F00101000152EC03F0F2
:1030E00026D0010186511B0823E1875321E1010EFF
:1030F000EA6E9D0EE96EF2CFA7F1F29E0A0E016E06
:10310000F76A000E00017AEC02F00A000900F5CF20
:10311000EEFF012EFBD70101A7BFF28E010E0201C7
:103120006D6F9D0E6C6F00010CEC06F0516A010191
:103130005150010811E220A20FD020920001A32BD0
:10314000D8B4A42BA451260806E2FF0A03E1A35138
:10315000100801E2516A0101000100D0C9EF18F026
:10316000F2CF0DF0F29EE824F76AF736850FF66E7F
:10317000310EF7220A00F550FA6E0800F5500DBE28
:10318000F28EF96ECC2FD22F42305C31D2EF07F0A5
:1031900016D78CEF19F0F86AD09E078E700ED36E9A
:1031A0009B9C9B9EB896190EAF6EA60EAC6E900EB1
:1031B000AB6E959E8C8E2D6A2C6A0101646B636BDD
:1031C0006E6B1CC16FF1010E706F716B736B726B64
:1031D000C150F00BC16E000E0F01386F3C6F396F9C
:1031E0003A6F3B6F0101886B776A786A796A030EE0
:1031F000756FE80E746F776B766B00015AEF03F012
:10320000C7EF03F0D89001011F35026E2035036E21
:103210000250270FE96E010E0320EA6EECCF17F083
:10322000ED52EFCF16F0030E196EE80E186E000186
:10323000A1EF04F0EFEC05F00D0E0101786F0A0E1E
:10324000796F7A6B010E02016D6F780E6C6F000161
:103250000CEC06F0010EEA6E780EE96EF2CF86F104
:10326000F29E0E0E016EF76A000E8CEC02F00A0060
:103270000900F5CFEEFF012EFBD7010186BFF28ECC
:10328000010E02016D6F780E6C6F00010CEC06F000
:103290000D0E0101786F0A0E796F7A6B010E020133
:1032A0006D6F780E6C6F00010CEC06F00101DE6BA7
:1032B00075C1E0F174C1DFF1000156EC06F0080EB3
:1032C0000101866FFA0E8A6F0001EBEC03F0010139
:1032D000862FF8D78B9820A00AD020901F5120115C
:1032E00002E08B8001D08B70040000D00000712DB3
:1032F0000FD022A60DD02296762BD8B4772B7753F9
:1033000003E17651090804E2776B766B8B98716B59
:1033100000017EEF07F03AD70101DDD7756B010E92
:04332000746FFFD7F0
:020000040030CA
:0E00000000F8191C00BF00000FC00FE00F40F9
:00000001FF
;PIC18F45K22
;CRC=05D2  CREATED="06-Jun-18 17:15"
