:0400000067EF1BF09B
:08000800046ED8CF05F0E0CF33
:1000100006F00001E9CF0CF0EACF07F0E1CF08F0DD
:10002000E2CF09F0D9CF0AF0DACF0BF0F3CF12F01C
:10003000F4CF13F0FACF14F000C00EF001C00FF0AF
:1000400002C010F003C011F09DA22AEF00F09EB292
:100050009EEF02F0F2A830EF00F0F2B2B6EF02F03D
:10006000F0A636EF00F0F0B0B9EF02F09DAA3CEF39
:1000700000F09EBABCEF02F07DA042EF00F07EB02F
:100080009BEF02F00EC000F00FC001F010C002F0B4
:1000900011C003F00CC0E9FF07C0EAFF078E08C0DB
:1000A000E1FF09C0E2FF0AC0D9FF0BC0DAFF12C0AE
:1000B000F3FF13C0F4FF14C0FAFF045006C0E0FFC2
:1000C00005C0D8FF1000F2CF0DF0F29EF76AE00FE6
:1000D000F66E000EF7220900F5500DBEF28E1200EA
:1000E0002446203C6672657175656E63793E3C639B
:1000F000723E202009536574206672657175656EC5
:10010000637920696E20314D487A20696E6372658B
:100110006D656E74732028692E652E32323530205D
:10012000697320322E32353047487A290D0A000093
:10013000F2CF0DF0F29EF76A4A0FF66E010EF7222B
:100140000900F5500DBEF28E1200244F4E203C6F78
:100150006E6F66663E3C63723E20200953657420D4
:1001600066756C6C206F7065726174696F6E206F5C
:100170006E283129206F72206F66662830290D0A9B
:100180000000F2CF0DF0F29EF76A9C0FF66E010EA2
:10019000F7220900F5500DBEF28E120024505320B4
:1001A0003C706F7765723E3C63723E202009536558
:1001B0007420616D7020706F776572206F6E2831CA
:1001C00029206F72206F66662830290D0A00F2CF51
:1001D0000DF0F29EF76AE80FF66E010EF7220900A5
:1001E000F5500DBEF28E12002450203C6C657665F1
:1001F0006C3E3C63723E20200953657420706F771B
:100200006572206C6576656C20686967682831299D
:10021000206F72206C6F772830290D0A0000F2CF12
:100220000DF0F29EF76A380FF66E020EF722090003
:10023000F5500DBEF28E1200244C44203C667764CB
:100240003E3C63723E20200953657420467764204B
:10025000706F776572206D6561737572656D656E1F
:1002600074206F6E283129206F72206F66662830E7
:10027000290D0A00F2CF0DF0F29EF76A8E0FF66E8E
:10028000020EF7220900F5500DBEF28E1200245125
:100290003C63723E2020095265717565737420734A
:1002A00074617475730D0A00F2CF0DF0F29EF76A57
:1002B000C20FF66E020EF7220900F5500DBEF28E47
:1002C000120024424D3C63723E20200942495420D2
:1002D0004D6F6465204F4E283129204F4646283007
:1002E000290D0A00F2CF0DF0F29EF76AFE0FF66EAE
:1002F000020EF7220900F5500DBEF28E12002454B2
:10030000523C63723E2020095452414E5349564597
:100310005228542920524543495645522852290013
:10032000F2CF0DF0F29EF76A3A0FF66E030EF72247
:100330000900F5500DBEF28E1200474F4F440000E9
:10034000F2CF0DF0F29EF76A5A0FF66E030EF72207
:100350000900F5500DBEF28E120042414400F2CF6A
:100360000DF0F29EF76A780FF66E030EF722090081
:10037000F5500DBEF28E12004F4E0000F2CF0DF080
:10038000F29EF76A960FF66E030EF7220900F550FB
:100390000DBEF28E12004F464600F2CF0DF0F29ED7
:1003A000F76AB40FF66E030EF7220900F5500DBE82
:1003B000F28E1200535441525400F2CF0DF0F29ECF
:1003C000F76AD40FF66E030EF7220900F5500DBE42
:1003D000F28E120053544F500000F2CF0DF0F29EF7
:1003E000F76AF40FF66E030EF7220900F5500DBE02
:1003F000F28E12004C4F434B0000F2CF0DF0F29EF4
:10040000F76A140FF66E040EF7220900F5500DBEC0
:10041000F28E12004E4F54204C4F434B0000F2CF4F
:100420000DF0F29EF76A380FF66E040EF7220900FF
:10043000F5500DBEF28E1200484947480000F2CF39
:100440000DF0F29EF76A580FF66E040EF7220900BF
:10045000F5500DBEF28E12004C4F5700F2CF0DF04A
:10046000F29EF76A760FF66E040EF7220900F55039
:100470000DBEF28E12000D0A244641494C0D0A00B1
:10048000F2CF0DF0F29EF76A9A0FF66E040EF72285
:100490000900F5500DBEF28E12000D0A24540D0A0B
:1004A0000000F2CF0DF0F29EF76ABC0FF66E040E5C
:1004B000F7220900F5500DBEF28E12000D0A2446F7
:1004C00041554C540D0A0000F2CF0DF0F29EF76A30
:1004D000E20FF66E040EF7220900F5500DBEF28E03
:1004E00012000D0A244F4B0D0A00F2CF0DF0F29EC0
:1004F000F76A040FF66E050EF7220900F5500DBEDF
:10050000F28E12000D0A425245414B0D0A00F2CF05
:100510000DF0F29EF76A280FF66E050EF72209001D
:10052000F5500DBEF28E120042413135333354582E
:100530002056312E30007E9042EF00F01868192AC4
:100540001A2A1A5009080FE21A6A1B2A1C681D2A67
:100550001D50090808E21D6A1E681F2A1F5009085D
:1005600002E21F6A20689E9242EF00F0F29242EF90
:1005700000F0F09042EF00F0AECFE7F1036A2C50AC
:100580002E0FE96E000E0320EA6EE7C1EFFF2C2A62
:100590002C501F0801E22C6A2B501F0801E32B2A64
:1005A0009E9A42EF00F00D0A332E337620706F775B
:1005B000657220696E3D25322E31662876292032FB
:1005C000387620706F77657220696E3D25322E3146
:1005D000662876292046465752323D25322E31660E
:1005E000287629000D0A4E456761746976652056A4
:1005F0006F6C74616765204C4F573D256C752028E2
:10060000252E31666D762920486967683D256C7511
:100610002028252E31666D7629000D0A506F7369EA
:100620007469766520566F6C74616765204C4F570E
:100630003D256C752028252E31666D762920486968
:1006400067683D256C752028252E31666D7629005A
:100650000D0A465245513D256C752C205245563D9C
:1006600025732C204C494748543D25732C20465770
:10067000443D256C7564424D2C2054454D503D251C
:10068000352E31662C205452414E534D49543D2550
:10069000732C2049443D256C752C2044433D253066
:1006A000326C75253032752C2056455220256C73DE
:1006B0002C20000056312E300000424954204D4F6E
:1006C00044453D25732C2053594E5448204C4F43EC
:1006D0004B3D25732C20504F5745523D25732C2000
:1006E0004D4F44554C4520545950453D54582C00CD
:1006F0000D0A244641494C0D0A00896A8A6A8B6AB0
:100700008C6A8D6AE10E926EC90E936E800E946EA5
:10071000A20E956E9680968296849686ADEF03F033
:100720002B6A2BC02DF02DC02CF04E6A9D8A120032
:10073000480E0509BA6E630EBB6EB46AB16A000E4C
:1007400005090F01516F630E526F4D6B4E6B000E1A
:100750004A6F000E4B6F0001D0D7C150F00BC16E35
:10076000210E0F01386F030E3C6F080E396F000E1B
:100770003A6F200E3B6FC050C00B2509C06EC08E73
:10078000C280776A040E786E796E0001C9DF9D829F
:10079000C00EF2129AEF1BF001010AC103F00951D9
:1007A000D8B40A07090703101FE00851036E075168
:1007B000072BD8B4082BE96E03C0EAFF0651036E7D
:1007C0000551052BD8B4062B0D6F03C00EF1F2CFE7
:1007D0000FF1F29E0DC1A9FFA69CA69EA680A8506F
:1007E0000FBFF28EEF6ED9D7000110EF04F0016653
:1007F00003D0026602D007D0022A00C0EEFF012E0D
:10080000FCD7022EFAD721EF04F00101066B056B2D
:10081000086BA20E076F0A6B410E096F0001BCD76F
:10082000A33D03D0A43D01D004D0A53D0AD0A653DA
:1008300008E1EA6AA20EE96E006A026A410E016EE0
:10084000D6D79CEF1BF0010EEA6E090EE96EEF5051
:1008500011E0050E016EBF0E006E0400002EFDD7E4
:10086000012EF9D72E0E006E002EFED700000400D8
:10087000EF2EEFD71200040E0101D35F0AE3010E41
:10088000EA6ED30EE96EEF5004E001D00400EF2EC3
:10089000FDD700011200080E01014B6F4B5327E0FA
:1008A000010E4B5D4C6F4AC100F04C51016E04E0EB
:1008B000D8900032012EFCD700A002D08C8001D04D
:1008C0008C900400840E006E002EFED700D08B8624
:1008D0000400840E006E002EFED700D08B9604001C
:1008E000F90ED36F0001C7DF01014B07D7D78C90FA
:1008F0008B96000112000400F29CF29EF2BEFDD71E
:1009000047C149F147C14AF1C6DF46C149F146C175
:100910004AF1C1DF45C149F145C14AF1BCDF0400DC
:10092000340E006E002EFED700D08B840400050E1E
:10093000006E002EFED700D000008B94C00EF21285
:1009400004001200EBC049F1EAC048F1E9C047F1E8
:100950000101466B0001E535006EE635016EE735B5
:10096000026EE835036E0036013602360336FC0EA1
:10097000001600500101462701504723025048232A
:1009800003504923010E4625416F000E4721426F57
:10099000000E4821436F000E4921446F040044C1FA
:1009A00048F143C147F142C146F141C145F100015F
:1009B000A2DF12008B82140E0101096F000143DFD8
:1009C0000101086BC90E076F066B930E056F08C116
:1009D00048F107C147F106C146F105C145F10001E3
:1009E0008ADF500E0101096F00012DDF0101086B44
:1009F000076B0F0E066FA00E056F08C148F107C107
:100A000047F106C146F105C145F1000174DF960EBC
:100A10000101096F000117DF95DFA4EF1BF0010151
:100A200041514303F3CF01F0F4CF00F04403F350FE
:100A3000002642514303F3500020026E00011200D1
:100A40000101596B5A6B010E5B6FDA6AD96A5E6FEE
:100A5000510E5D6F010EEA6E550EE96E5EC1E2FF4A
:100A60005DC1E1FF5BC15CF1D890E550EE02F3504F
:100A70005923F4505A235C2FF7D759C1DEFF5AC1CE
:100A800059F15A6BD8B05A2B5D2BD8B45E2B5B2B27
:100A90005B510508DFE100011200D8B204D0010E5D
:100AA000EA6EE20EE96E006A016A026A036A0101F7
:100AB000E26BE36BE46BE56BE151E011DF11DE11FA
:100AC0002CE0200EE66FD890DA37DB37DC37DD37E5
:100AD000E237E337E437E537E151E55D08E1E0511E
:100AE000E45D05E1DF51E35D02E1DE51E25D0FE32C
:100AF000DE51E25FDF51D8A0DF3DE35FE051D8A0D7
:100B0000E03DE45FE151D8A0E13DE55FD8800036EB
:100B1000013602360336E62FD6D7E2C1EFFFE3C136
:100B2000ECFFE4C1ECFFE5C1ECFF000112000400A2
:100B3000D89001014433433343C100F044C101F074
:100B4000026A036A03C050F102C04FF144C14EF182
:100B500043C14DF1546B536B526B640E516F03C024
:100B600058F102C057F144C156F143C155F100019B
:100B700067DF03C048F102C047F101C046F100C081
:100B800045F10400D89248C1DDF147C1DCF146C10E
:100B9000DBF145C1DAF10101E16BE06BDF6B0A0EBD
:100BA000DE6F00017ADF03C04CF102C04BF101C0DF
:100BB0004AF100C049F1040001014C310001EC6F21
:100BC00001014B310001EB6F01014A310001EA6F75
:100BD000010149310001E96FEC33EB33EA33E933CA
:100BE000EC33EB33EA33E933EC33EB33EA33E93319
:100BF000EC33EB33EA33E933EC33EB33EA33E93309
:100C0000030EEC17E935006EEA35016EEB35026E26
:100C1000EC35036E003601360236033600360136F7
:100C20000236033600360136023603360036013608
:100C3000023603360036013602360336C00E001681
:100C400000500101495D0001E56F015001014A5961
:100C50000001E66F025001014B590001E76F03509C
:100C600001014C590001E86F1200A4C040F1A3C07B
:100C70003FF140C142F13FC141F10101446B0A0E15
:100C8000436F0001CCDE02C042F101C041F102C05D
:100C900044F101C043F14BDF55DE030E176EE80E41
:100CA000166E12009D9A0101D06BCEC103F0CDC12A
:100CB000E9FFCEC1EAFFEF523AE0CEC103F0CD51D9
:100CC000CD2BD8B4CE2BE96E03C0EAFFEFCFCFF126
:100CD000CF51090810E0CFC1ADFFD02B04000D0E9D
:100CE000D26F160ED36F0001C6DD0101D22FF9D7E6
:100CF000AECFCFF11BD0200ED16FD151D05D03E329
:100D0000020ED025D16FD151D05D10E2200EAD6E14
:100D1000D02B04000D0ED26F160ED36F0001ABDD89
:100D20000101D22FF9D7AECFCFF1EDD7BED7AECFDD
:100D3000CFF19D8A0001120020A60DD02096F12B44
:100D4000D8B4F22BF25303E1F1513B0804E2F26B09
:100D5000F16B8B98F06BFCEF1BF08994010109A7F4
:100D600002D0898801D089988986040E006E002EF1
:100D7000FED700D08996040E006E002EFED700D05C
:100D800009A502D0898801D089988986040E006E51
:100D9000002EFED700D08996040E006E002EFED7DE
:100DA00000D009A302D0898801D089988986040ED1
:100DB000006E002EFED700D08996040E006E002E25
:100DC000FED700D009A102D0898801D089988986F0
:100DD000040E006E002EFED700D08996040E006E21
:100DE000002EFED700D08986000B006E0B51020B3F
:100DF000036E0050031002E0898801D08998040E28
:100E0000006E002EFED700D08996040E006E002ED4
:100E1000FED700D08986000B006E0B51010B036ECC
:100E20000050031002E0898801D08998899689864C
:100E30000A51800B006E036A0050031002E089889B
:100E400001D08998040E006E002EFED700D089963E
:100E5000040E006E002EFED700D089860A51400B8A
:100E6000006E036A0050031002E0898801D089985F
:100E7000040E006E002EFED700D08996040E006E80
:100E8000002EFED700D089860A51200B006E036A1F
:100E90000050031002E0898801D0899889968986DC
:100EA0000A51100B006E036A0050031002E089889B
:100EB00001D08998040E006E002EFED700D08996CE
:100EC000040E006E002EFED700D089860A51080B52
:100ED000006E036A0050031002E0898801D08998EF
:100EE000899689860A51040B006E036A005003102C
:100EF00002E0898801D08998040E006E002EFED78A
:100F000000D08996040E006E002EFED700D0898690
:100F10000A51020B006E036A0050031002E0898838
:100F200001D08998899689860A51010B006E036A5F
:100F30000050031002E0898801D08998040E006EE9
:100F4000002EFED700D08996040E006E002EFED72C
:100F500000D08986040E006E002EFED700D0899640
:100F60008986040E006E002EFED700D0040E006E9F
:100F7000002EFED700D08996040E006E002EFED7FC
:100F800000D08984040E006E002EFED700D0899216
:100F9000040E006E002EFED700D08982040E006E73
:100FA000002EFED700D000011200EE5323E0240EE5
:100FB000016EC250830B0110C26E0400190E006E48
:100FC000002EFED700D00000C282C2B2FED7C4CF2E
:100FD00008F10101C3CF07F1085303E10751C80825
:100FE00004E28C848B8A8C8603D08C948B9A8C96AA
:100FF00005D000018C948B9A8C9601010001A551BB
:10100000A61113E0020E0101096FAAC00BF1A9C0DD
:101010000AF10001A2DE060E0101096FAEC00BF15C
:10102000ADC00AF1000199DE12D0020E0101096F74
:10103000A8C00BF1A7C00AF100018FDE060E010166
:10104000096FACC00BF1ABC00AF1000186DE1EA631
:1010500046D01E96140E016EC250830B0110C26E54
:101060000400190E006E002EFED700D00000C282D0
:10107000C2B2FED7C4CF06F10101C3CF05F1D890AB
:101080002934026E2A34036E0250210FE96E000EDD
:101090000320EA6E06C1ECFFED5205C1EFFF292ADD
:1010A000D8B42A2A2A5203E12950030802E22A6A04
:1010B000296A23502124096F245022200A6F2550C9
:1010C000092726500A232750092728500A230A31C6
:1010D000066F0931056F063305333F0E0617000111
:1010E000FEEF1BF0ABA20AD0AB92AB980400050E4A
:1010F000006E002EFED700D00000AB88ABA403D05A
:10110000AB94AECF05F164EF1BF0036A2D502E0FA8
:10111000E96E000E0320EA6EEFCF26F12D2A2D5046
:101120001F0801E22D6A2B5201E02B06010126C1A6
:1011300001F000011200ED51ED2B036A500FE96E32
:10114000000E0320EA6E036AEFCF01F003C002F045
:1011500012000D0E01013D6F0A0E3E6F3F6B010E36
:10116000CE6F3D0ECD6F00019DDD010EEA6E3D0E8E
:10117000E96EF2CF8CF1F29E4F0E016EF76A000E0F
:1011800063EC00F00A000900F5CFEEFF012EFBD75B
:1011900001018CBFF28E010ECE6F3D0ECD6F0001AE
:1011A00081DD010EEA6E3D0EE96EF2CF8CF1F29E0A
:1011B000370E016EF76A000E98EC00F00A00090085
:1011C000F5CFEEFF012EFBD701018CBFF28E010E91
:1011D000CE6F3D0ECD6F000165DD010EEA6E3D0E56
:1011E000E96EF2CF8CF1F29E320E016EF76A000EBC
:1011F000C1EC00F00A000900F5CFEEFF012EFBD78D
:1012000001018CBFF28E010ECE6F3D0ECD6F00013D
:1012100049DD010EEA6E3D0EE96EF2CF8CF1F29ED1
:10122000350E016EF76A000EE7EC00F00A000900C7
:10123000F5CFEEFF012EFBD701018CBFF28E010E20
:10124000CE6F3D0ECD6F00012DDD010EEA6E3D0E1D
:10125000E96EF2CF8CF1F29E3C0E016EF76A000E41
:101260000FEC01F00A000900F5CFEEFF012EFBD7CD
:1012700001018CBFF28E010ECE6F3D0ECD6F0001CD
:1012800011DD010EEA6E3D0EE96EF2CF8CF1F29E99
:101290001A0E016EF76A000E3AEC01F00A0009001E
:1012A000F5CFEEFF012EFBD701018CBFF28E010EB0
:1012B000CE6F3D0ECD6F0001F5DC010EEA6E3D0EE6
:1012C000E96EF2CF8CF1F29E220E016EF76A000EEB
:1012D00054EC01F00A000900F5CFEEFF012EFBD718
:1012E00001018CBFF28E010ECE6F3D0ECD6F00015D
:1012F000D9DC010EEA6E3D0EE96EF2CF8CF1F29E62
:10130000220E016EF76A000E72EC01F00A0009006D
:10131000F5CFEEFF012EFBD701018CBFF28E010E3F
:10132000CE6F3D0ECD6F0001BDDC06EF16F0036AF7
:10133000ED51500FE96E000E0320EA6EEF5216E0F9
:10134000036AED51500FE96E000E0320EA6EEF5074
:101350002C080AE0036AED51500FE96E000E0320DD
:10136000EA6EEF50200802E1ED2BE1D71200036A8C
:10137000ED51500FE96E000E0320EA6E036AEFCFC5
:1013800001F003C002F01200010144514619800B24
:10139000486F44AF05D0431F441F432BD8B4442BA0
:1013A00046AF05D0451F461F452BD8B4462B4351A9
:1013B0004503F3CF01F0F4CF00F04603F3500026CD
:1013C00044514503F3500020026E48AF05D0011E82
:1013D000021E012AD8B4022A000112000101426B48
:1013E000010E416F0001A3DF036AED51500FE96E5A
:1013F000000E0320EA6EEF5244E00101406B3F6BA8
:101400000001B5DF02C044F101C043F10101015008
:101410002D0807E1445305E14269416900018BDE73
:101420000101036A0001ED51500FE96E000E032027
:10143000EA6EEFCF43F1010143512F0821E24351FE
:1014400039081EE340C144F13FC143F1466B0A0E27
:10145000456F000199DF02C044F101C043F1ED5135
:10146000ED2B036A500FE96E000E0320EA6E300E7A
:10147000EF5C010101243F6F000E0220406FD1D7C5
:10148000000140C144F13FC143F142C146F141C1B5
:1014900045F17ADF02C003F002C002F012009EDFC5
:1014A00002C03EF101C03DF101013DC101F03EC16C
:1014B00002F000010CEF16F0010142C103F04151AE
:1014C000D8B44207410703102CE03E51036E3D5152
:1014D0003D2BD8B43E2B436F03C044F14051036E03
:1014E0003F513F2BD8B4402BE96E03C0EAFFEFCF4A
:1014F00045F1F250006EF29E43C1A9FF45C1A8FF1D
:10150000A69CA69EA6840F01550EA76EAA0EA76ED6
:10151000A682A6B2FED7A6940050F2120001CCD744
:1015200001010001A5EF0AF0E3519F080EE1E4512B
:101530000B080BE101013E6B3D6B406BA20E3F6F50
:10154000426B410E416F0001B7D7E46BE36B1200B1
:10155000A4C03EF1A3C03DF13EC142F13DC141F105
:101560000101446B0A0E436F00010FEC05F002C04D
:1015700040F101C03FF102C044F101C043F197ECDA
:1015800005F0A2EC04F035EC06F099EF16F0DA0E57
:1015900001013E6FC00E3D6F3EC142F13DC141F1C0
:1015A000446B0A0E436F00010FEC05F002C040F1DE
:1015B00001C03FF102C044F101C043F197EC05F0D6
:1015C000A2EC04F035EC06F0A1EF16F007DF02C044
:1015D0003EF101C03DF101013E530AE13D510108D8
:1015E00007E33EC1A6F03DC1A5F0010E016E02D099
:1015F000000E016E000101EF18F08E0E006ECEC1DC
:1016000001F0CDC102F0036A015209E102C001F00C
:10161000026A080E005E015202E1006A08D0D8900A
:1016200001BE04D0023601360006F9D7019E120031
:101630000101DA51D8B471D0006EDE51D8B46DD04A
:10164000002604E3810E002668E204D07F0E005ECF
:1016500064E363E0DBC1E2F1DF51E21BDB8FDF8F8C
:10166000DD51E103F4CFE4F1DC51E003F4CF03F00A
:10167000F3CFE3F1E103F350E427F450E323000E4A
:101680000322DD51E003F350E427F450E323000E7E
:10169000026A03220222DB51E103F350E327F450F4
:1016A0000322000E0222DB51E003F3500326F45024
:1016B0000222000E016A0122DD51DF03F350E3270D
:1016C000F4500322000E02220122DC51DF03F3500A
:1016D0000326F4500222000E0122DB51DF03F350F7
:1016E0000226F4500122002A01BE05D0E33703365A
:1016F000023601360006000EE3AF0AD0032A0222AA
:101700000122015005E1025003E1035001E1002AEA
:10171000E2BF018EE2AF019E04D0006A016A026A54
:10172000036A000112008E0E006E01013D51005E41
:101730003EC102F03FC101F0028E005209E0D89094
:10174000025202E1015204E002320132002EF7D7C8
:101750003EAF05D0011E021E012AD8B4022A0001A4
:1017600012000101D151D8B4A5D0DD6FD551D8B444
:10177000A1D0DD5F05E37F0EDD27D8B09BD006D07A
:10178000810EDD5FD8A096D0D8B494D0DDC100F032
:10179000016A026A036ADC6BD2C1DBF1DB8FD3C161
:1017A000DAF1D4C1D9F1190EDD6FD851D95F0DE24C
:1017B000010EDA5F0AE2DB5F08E2DC5F06E2DC2BA7
:1017C000DB2BDA2BD851D92728D0D751DA5F12E298
:1017D000010EDB5F0FE2DC5F0DE2DC2BDB2BD75170
:1017E000DA27D851D92719E3DA2B17E1DB2B15E1DA
:1017F000DC2B13D0D6518009DB5F0EE2010EDC5FDB
:101800000BE2DC2BD6518009DB27D751DA27E9E33D
:10181000DB2BE7E1DC2BE5D70380DD2F01D00BD0FC
:10182000D890D937DA37DB37DC37D8900336023631
:101830000136DE37BAD7DEA106D0D89001320232A7
:101840000332DE3302D0000635E0DEBF1ED0D89072
:10185000D937DA37DB37DC37D851D95F07E2010EE9
:10186000DA5F04E2DB5F02E2DC5F1AE3D751DA5FA2
:1018700005E2010EDB5F02E2DC5F12E3D651800974
:10188000DB5F03E2010EDC5F0BE3032A09E1022ABE
:1018900007E1012A05E1002A0DE00132023203329C
:1018A000D2C1DDF1D651DD1BDDAF02D0018E06D0F5
:1018B000019E04D0006A016A026A036A00011200F4
:1018C000800ED8A202D00101D21B0101D76BD86BC8
:1018D000CEC1D6F1D251D61BCD51D8B4DFD0D56F01
:1018E000006ED151D8B4E3D0D55FD8B483D03EE3F5
:1018F000D2C1DBF1DB8FD3C1DAF1D4C1D9F1D86B1E
:10190000D890DB33DA33D933D833D52FF8D7D6AFE5
:1019100003D0D781E0D0D791D591D789010EEA6E57
:10192000D00EE96EEBD0D799D6BF0AD0D5A113D08F
:10193000DB33DA33D933D833002AD8B4C7D00BD04D
:10194000DBBF0CD0D890D837D937DA37DB37000671
:10195000D8B4BCD0F5D7D78D6DD0D79DCEC1D6F138
:10196000CEAF02D0DB8FABD0DB9FA9D0D1C1D5F1F8
:10197000D1C100F0CD51D55FCEC1DBF1DB8FCFC13E
:10198000DAF1D0C1D9F1D86BD890DB33DA33D9335F
:10199000D833D52FF8D7D6AF03D0D7839CD0D793E1
:1019A000D591D78B010EEA6ED40EE96EA7D0D79BE6
:1019B000D6BF0AD0D5A113D0DB33DA33D933D8332D
:1019C000002AD8B483D00BD0DBBF0CD0D890D83746
:1019D000D937DA37DB370006D8B478D0F5D7D78FC8
:1019E00029D0D79FD2C1D6F1D2AF02D0DB8F67D03A
:1019F000DB9F65D0D2C1DBF1DB8FD3C1DAF1D4C17B
:101A0000D9F1D6AF04D0DB9FD78565D0D795D86BF9
:101A1000D591010EEA6ED00EE96E70D0D6BF1CD003
:101A2000CEC1D6F1D5A106D0DB33DA33D933D833E2
:101A3000002A4CE0D8AF0BD0D92B09E1DA2B07E113
:101A4000DB2B05E1DB33DA33D933002A3FE0D7BDA6
:101A500084D7D7BFC6D71CD0800EDB1BDBAF04D02A
:101A60003AD0D2C1D6F10AD0CEC1D6F1DB5306E1CD
:101A7000DA5304E1D95302E1006A21D0DBBF08D078
:101A8000D890D837D937DA37DB37002EF7D71ED0C2
:101A9000D6AF02D0DB8F13D0DB9F11D0D1C100F0C5
:101AA000D2C1DBF1D3C1DAF1D4C1D9F108D0CDC1B3
:101AB00000F0CEC1DBF1CFC1DAF1D0C1D9F1DBC189
:101AC00001F0DAC102F0D9C103F034D0006A016A32
:101AD000026A036A2FD0D86BD91FDA1FDB1FD81F09
:101AE000D82B05E1D92B03E1DA2B01E1DB2BD7B1B0
:101AF00012D7D7B354D7D7B589D7B3D7EF50D92793
:101B000005E3DA2B03E1DB2BD8B4D581ED52EF509E
:101B1000DA2703E3DB2BD8B4D581ED52EF50EFBECB
:101B200001D0800ADB27D8B0D581D7B9FCD6D7BB86
:101B30003ED774D700011200F4C0EAFFF3C0E9FFFA
:101B40000101DAC1EFFFE92AD8B4EA2AEF6A0001FD
:101B5000F32BD8B4F42B12000900F6CFCEF1F7CF57
:101B6000CFF1F5CFDAF1E8DFCEC1F6FFCFC1F7FF55
:101B70000101CD2F01D002D00001EED700011200EB
:101B8000EACFD5F1E9CFD4F10101CE39F009D06F18
:101B9000D027E20FD16F320FD36FCE510F0BD12769
:101BA000D127D327E90FD26FD227D227CD390F0BF8
:101BB000D227D327D237D337D31FD337CD510F0BEB
:101BC000D327D037070ECF6F0A0ED207D327FDE3F6
:101BD000D107D227FDE3D007D127FDE3CF07D027D8
:101BE000FDE3010EEA6ECF0EE96E070ED415D49D0B
:101BF000E926D30EE95CD8B4D48DEF50006E08E12D
:101C0000D4BD06D0D4B915D0D4B702D0200E03D09D
:101C1000D487D499300E0026EACFCEF1E9CFCDF1AA
:101C200000C0DAF1000188DFCEC1EAFFCDC1E9FFD3
:101C30000101EE50D4ADDDD700011200EF520FE0EC
:101C4000EACFCEF1E9CFCDF1EFCFDAF175DFCEC13A
:101C5000EAFFCDC1E9FFE92AD8B4EA2AEFD712009A
:101C60000101DA51B608DA6F036ADBC1DEF1DB8FFE
:101C7000D890DB33DC33DD33033202320132003201
:101C8000DA2FF6D7DEAF0BD0001E011E021E031E98
:101C9000002AD8B4012AD8B4022AD8B4032A0001F1
:101CA0007DEF0EF0E9500101D26FD151D46F1BE0EE
:101CB000D0C1DDF1CFC1DCF1CEC1DBF1CDC1DAF1B4
:101CC000E16BE06B200EDF6F820EDE6F0001B0DC97
:101CD00003C0D0F102C0CFF101C0CEF100C0CDF100
:101CE0000101D42FE5D7D0C1DDF1CFC1DCF1CEC1E8
:101CF000DBF1CDC1DAF10001B3D703C0D0F102C0EE
:101D0000CFF101C0CEF100C0CDF10101D0AF0DD0B7
:101D1000D207D28BCD1FCE1FCF1FD01FCD2BD8B453
:101D2000CE2BD8B4CF2BD8B4D02B3B0ED96F9A0E74
:101D3000D86FCA0ED76FD66B0A0ED46FD151D8B4F4
:101D4000D22BD882010EEA6ECD0EE96ED0C1DDF144
:101D5000CFC1DCF1CEC1DBF1CDC1DAF1D9C1E1F106
:101D6000D8C1E0F1D7C1DFF1D6C1DEF100014DEC01
:101D700005F00150005213E10101D129D45DD8A42E
:101D800002D000010CD0D2510DE00F0BD45D01E068
:101D900040E2D2BF3ED0D2BD05D0200E34D0200EBE
:101DA0000101D217D2AB0ED0D29BD151D8A4D20709
:101DB0000050D26F2D0EDA6F0001BEDE0101D2514C
:101DC000006ED26BD151D45D0CE10050D26F2E0E5B
:101DD000DA6F0001B1DE0101D251006E200ED21780
:101DE000000E300ED2AB0FD0D29BD151D8A4D20767
:101DF0000050D26F2D0EDA6F00019EDE0101D2512C
:101E0000006ED26B300E002600C0DAF1000194DEC5
:101E10000101D892D9C1DDF1D8C1DCF1D7C1DBF124
:101E2000D6C1DAF1E16BE06BDF6B0A0EDE6F000109
:101E30004DEC05F003C0D9F102C0D8F101C0D7F1D3
:101E400000C0D6F10101D42F7CD70001120001019E
:101E5000D051016ACF5D03E2CFC100F00CD0006A1F
:101E6000080ED16FCF370036D051005CD8B0006E6D
:101E70000136D12FF7D7000112000150CDC1CFF1AB
:101E8000640E0101D06F0001E2DF00C0CDF101500E
:101E9000300E08E10101CEA30FD0CEB70DD0CEB9E0
:101EA000200E04D00101CE97CE99CE81012601C02B
:101EB000DAF1000141DE0101CDC1CFF10A0ED06F90
:101EC0000001C5DF00C0CDF10150300E08E1010175
:101ED000CEB70AD0CEA108D0CEB9200E000101267F
:101EE00001C0DAF129DE0101300ECD27CDC1DAF1D2
:101EF000000122DE49EF12F00900F5520CE0F6CFA6
:101F0000CDF1F7CFCEF1F5CFDAF116DECDC1F6FF88
:101F1000CEC1F7FFF1D758EF12F0100E016EC2508C
:101F2000830B0110C26E0400190E006E002EFED746
:101F300000D00000C282C2B2FED7C4CF3EF1010180
:101F4000C3CF3DF1640E016EC250830B0110C26E0F
:101F50000400190E006E002EFED700D00000C282D1
:101F6000C2B2FED7C3CF41F1C4CF42F142C1CEF1DC
:101F700041C1CDF10001FDEC0AF003C0D0F102C077
:101F8000CFF101C0CEF100C0CDF103C0D4F102C049
:101F9000D3F101C0D2F100C0D1F10101D86BD76BF0
:101FA000D66B890ED56F0001B1EC0BF003C0D0F1F8
:101FB00002C0CFF101C0CEF100C0CDF103C0DDF110
:101FC00002C0DCF101C0DBF100C0DAF1330E010127
:101FD000E16FE06F530EDF6F800EDE6F000118ECD3
:101FE0000BF003C0CAF102C0C9F101C0C8F100C0C2
:101FF000C7F1D882CAC1D0F1C9C1CFF1C8C1CEF1F1
:10200000C7C1CDF10101D46BD36B400ED26F7E0EF0
:10201000D16F000155DC03C0CAF102C0C9F101C093
:10202000C8F100C0C7F1CAC1DDF1C9C1DCF1C8C146
:10203000DBF1C7C1DAF10101E16BE06B480EDF6F44
:10204000850EDE6F000118EC0BF003C0CAF102C070
:10205000C9F101C0C8F100C0C7F1D892CAC1D0F11E
:10206000C9C1CFF1C8C1CEF1C7C1CDF10101D46B57
:10207000D36B480ED26F830ED16F000121DC03C0F9
:10208000CAF102C0C9F101C0C8F100C0C7F1140E05
:10209000016EC250830B0110C26E0400190E006E57
:1020A000002EFED700D00000C282C2B2FED7C4CF3D
:1020B00040F10101C3CF3FF1446B436B445322E134
:1020C00043510B081FE34335026E4435036E02365D
:1020D0000336FC0E02160250AF0FE96E000E03200D
:1020E000EA6EECCF03F0ED52EFCF01F04051035C0C
:1020F00005E303E13F51015C01E304D0432BD8B475
:10210000442BDCD74335026E4435036E023603366A
:10211000FC0E021602500D0FCD6F000E0320CE6F85
:10212000020ECD25016E000ECE21036E0150A20FCE
:10213000E96E000E0320EA6EECCF40F1ED52EFCFD6
:102140003FF13E51020819E303E13D51120815E346
:10215000010EEA6E850EE96EF2CFCDF1F29E000E11
:10216000000190EC01F00A000900F550EE6E000944
:10217000FBE10101CDBFF28E14D0010EEA6E850E97
:10218000E96EF2CFCDF1F29E000E0001A0EC01F05D
:102190000A000900F550EE6E0009FBE10101CDBF18
:1021A000F28E0001DD2D15D0010EEA6E900EE96E63
:1021B000F2CFCDF1F29E000EAFEC01F00A00090063
:1021C000F550EE6E0009FBE10101CDBFF28E14D097
:1021D0000001010EEA6E900EE96EF2CFCDF1F29E93
:1021E000000EBEEC01F00A000900F550EE6E000989
:1021F000FBE10101CDBFF28E0001EF2D15D0010EE4
:10220000EA6E9B0EE96EF2CFCDF1F29E000EAFECBE
:1022100001F00A000900F550EE6E0009FBE1010132
:10222000CDBFF28E14D00001010EEA6E9B0EE96E56
:10223000F2CFCDF1F29E000EBEEC01F00A000900D3
:10224000F550EE6E0009FBE10101CDBFF28E0001F9
:10225000F02D15D0010EEA6EA60EE96EF2CFCDF18B
:10226000F29E000ECDEC01F00A000900F550EE6E72
:102270000009FBE10101CDBFF28E14D00001010E77
:10228000EA6EA60EE96EF2CFCDF1F29E000EDDEC05
:1022900001F00A000900F550EE6E0009FBE10101B2
:1022A000CDBFF28ECB6B83B2CB2BCC6BCB51CC1191
:1022B00015E0010EEA6EB10EE96EF2CFCDF1F29E9D
:1022C000000E0001EDEC01F00A000900F550EE6E81
:1022D0000009FBE10101CDBFF28E14D0010EEA6EC0
:1022E000B10EE96EF2CFCDF1F29E000E0001FDECD1
:1022F00001F00A000900F550EE6E0009FBE1010152
:10230000CDBFF28E0001A52D17D0A65315E1010E09
:10231000EA6EBC0EE96EF2CFCDF1F29E000E0FEC2C
:1023200002F00A000900F550EE6E0009FBE1010120
:10233000CDBFF28E14D00001010EEA6EBC0EE96E24
:10234000F2CFCDF1F29E000E1FEC02F00A00090060
:10235000F550EE6E0009FBE10101CDBFF28E010EDA
:102360000001F46F450EF36F500EF66E060EF76E19
:10237000070E0101CD6F0001ACEC0DF0100EE96EFF
:10238000A4C0CEF1A3C0CDF1C0EC0DF05A0EF66E94
:10239000060EF76E060E0101CD6F0001ACEC0DF0DC
:1023A000010EEA6E850EE96E49DC620EF66E060ECF
:1023B000F76E080E0101CD6F0001ACEC0DF0010EBF
:1023C000EA6E900EE96E3ADC6C0EF66E060EF76E53
:1023D000060E0101CD6F0001ACEC0DF0100EE96EA0
:1023E00040C1CEF13FC1CDF1C0EC0DF0750EF66EDF
:1023F000060EF76E0A0E0101CD6F0001ACEC0DF078
:10240000040EE96ECAC1D0F1C9C1CFF1C8C1CEF185
:10241000C7C1CDF1010E0101D16F000143DC840E73
:10242000F66E060EF76E0B0E0101CD6F0001ACECDF
:102430000DF0010EEA6E9B0EE96E00DC910EF66E59
:10244000060EF76E050E0101CD6F0001ACEC0DF02C
:10245000100EE96EE2C0CEF1E1C0CDF1C0EC0DF09E
:10246000990EF66E060EF76E050E0101CD6F000196
:10247000ACEC0DF00B0EE96EDFC0CEF1DEC0CDF19D
:10248000C0EC0DF0E0C0CDF1010E0101CE6F0001F6
:10249000F4D4A70EF66E060EF76E060E0101CD6F90
:1024A0000001ACEC0DF0B40EF66E060EF76E24D5FE
:1024B0002C0E0101DA6F00019CEC0DF0200E0101E1
:1024C000DA6F00019CEC0DF0010E0101CE6F450E9C
:1024D000CD6F000152EC06F0010EF46F450EF36F64
:1024E000BA0EF66E060EF76E090E0101CD6F0001F1
:1024F000ACEC0DF0010EEA6EA60EE96E1EEC0EF0CD
:10250000C50EF66E060EF76E0D0E0101CD6F0001C1
:10251000ACEC0DF0010EEA6EB10EE96E1EEC0EF0A1
:10252000D40EF66E060EF76E080E0101CD6F000197
:10253000ACEC0DF0010EEA6EBC0EE96E1EEC0EF076
:10254000DE0EF66E060EF76E110E0101CD6F000164
:10255000ACEC0DF0010E0101CE6F450ECD6F000108
:1025600052EC06F07AEF1AF0000E016EC250830BA7
:102570000110C26E0400190E006E002EFED700D0AE
:102580000000C282C2B2FED7C4CF7EF10101C3CF28
:102590007DF1240E016EC250830B0110C26E040047
:1025A000190E006E002EFED700D00000C282C2B20B
:1025B000FED7C3CF7FF1C4CF80F1180E016EC25099
:1025C000830B0110C26E0400190E006E002EFED7A0
:1025D00000D00000C282C2B2FED7C3CF81F1C4CF07
:1025E00082F17EC1CEF17DC1CDF10001FDEC0AF09A
:1025F00003C092F102C091F101C090F100C08FF1CF
:1026000003C0D4F102C0D3F101C0D2F100C0D1F1B6
:102610000101D86BD76BD66B890ED56F0001B1EC79
:102620000BF003C092F102C091F101C090F100C023
:102630008FF103C0DDF102C0DCF101C0DBF100C0AD
:10264000DAF1330E0101E16FE06F530EDF6F800EA0
:10265000DE6F000118EC0BF003C086F102C085F1BB
:1026600001C084F100C083F180C1CEF17FC1CDF102
:10267000FDEC0AF003C092F102C091F101C090F1AB
:1026800000C08FF103C0D4F102C0D3F101C0D2F178
:1026900000C0D1F10101D86BD76BD66B890ED56F15
:1026A0000001B1EC0BF003C092F102C091F101C046
:1026B00090F100C08FF103C0DDF102C0DCF101C078
:1026C000DBF100C0DAF1330E0101E16FE06F110EB2
:1026D000DF6F840EDE6F000118EC0BF003C08AF18F
:1026E00002C089F101C088F100C087F182C1CEF13A
:1026F00081C1CDF1FDEC0AF003C092F102C091F16D
:1027000001C090F100C08FF103C0D4F102C0D3F139
:1027100001C0D2F100C0D1F10101D86BD76BD66BEB
:10272000890ED56F0001B1EC0BF003C092F102C02D
:1027300091F101C090F100C08FF103C0DDF102C042
:10274000DCF101C0DBF100C0DAF1330E0101E16F11
:10275000E06F530EDF6F800EDE6F000118EC0BF0A0
:1027600003C08EF102C08DF101C08CF100C08BF16D
:10277000010EF46F3D0EF36FA60EF66E050EF76EAA
:10278000100E0101CD6F0001ACEC0DF0010EE96EF1
:1027900086C1D0F185C1CFF184C1CEF183C1CDF125
:1027A0000101D16F000152EC0EF0BB0EF66E050E6A
:1027B000F76E110E0101CD6F0001ACEC0DF0010EB2
:1027C000E96E8AC1D0F189C1CFF188C1CEF187C14C
:1027D000CDF10101D16F000152EC0EF0D10EF66E79
:1027E000050EF76E0A0E0101CD6F0001ACEC0DF085
:1027F000010EE96E8EC1D0F18DC1CFF18CC1CEF149
:102800008BC1CDF10101D16F000152EC0EF0E00E51
:10281000F66E050EF76E030E0101CD6F0001ACECF4
:102820000DF0010E0101CE6F3D0ECD6F000152EC97
:1028300006F0A8C0CEF1A7C0CDF1FDEC0AF003C0B0
:10284000DDF102C0DCF101C0DBF100C0DAF11D0EE8
:102850000101E16F5A0EE06F180EDF6F810EDE6F1F
:10286000000118EC0BF003C092F102C091F101C01D
:1028700090F100C08FF1AAC0CEF1A9C0CDF1FDEC5E
:102880000AF003C0DDF102C0DCF101C0DBF100C0E1
:10289000DAF11D0E0101E16F5A0EE06F180EDF6FC5
:1028A000810EDE6F000118EC0BF003C096F102C040
:1028B00095F101C094F100C093F1010EF46F3D0E4B
:1028C000F36FE40EF66E050EF76E170E0101CD6F75
:1028D0000001ACEC0DF0100EE96EA8C0CEF1A7C05F
:1028E000CDF1C0EC0DF0200E0101DA6F00019CEC7F
:1028F0000DF0280E0101DA6F00019CEC0DF0890E3D
:10290000E96E92C1D0F191C1CFF190C1CEF18FC1EA
:10291000CDF1010E0101D16F000152EC0EF0040E59
:10292000F66E060EF76E090E0101CD6F0001ACECDC
:102930000DF0100EE96EAAC0CEF1A9C0CDF1C0EC29
:102940000DF0200E0101DA6F00019CEC0DF0280E55
:102950000101DA6F00019CEC0DF0890EE96E96C161
:10296000D0F195C1CFF194C1CEF193C1CDF1010E5B
:102970000101D16F000152EC0EF0160EF66E060E3C
:10298000F76E030E0101CD6F0001ACEC0DF0010EEE
:102990000101CE6F3D0ECD6F000152EC06F0ACC0D0
:1029A000CEF1ABC0CDF1FDEC0AF003C0DDF102C009
:1029B000DCF101C0DBF100C0DAF11D0E0101E16FB5
:1029C0005A0EE06F180EDF6F810EDE6F000118ECFB
:1029D0000BF003C092F102C091F101C090F100C070
:1029E0008FF1AEC0CEF1ADC0CDF1FDEC0AF003C069
:1029F000DDF102C0DCF101C0DBF100C0DAF11D0E37
:102A00000101E16F5A0EE06F180EDF6F810EDE6F6D
:102A1000000118EC0BF003C096F102C095F101C063
:102A200094F100C093F1010EF46F3D0EF36F1A0E96
:102A3000F66E060EF76E170E0101CD6F0001ACECBD
:102A40000DF0100EE96EACC0CEF1ABC0CDF1C0EC14
:102A50000DF0200E0101DA6F00019CEC0DF0280E44
:102A60000101DA6F00019CEC0DF0890EE96E92C154
:102A7000D0F191C1CFF190C1CEF18FC1CDF1010E56
:102A80000101D16F000152EC0EF03A0EF66E060E07
:102A9000F76E090E0101CD6F0001ACEC0DF0100EC8
:102AA000E96EAEC0CEF1ADC0CDF1C0EC0DF0200EA0
:102AB0000101DA6F00019CEC0DF0280E0101DA6FC4
:102AC00000019CEC0DF0890EE96E96C1D0F195C124
:102AD000CFF194C1CEF193C1CDF1010E0101D16FBF
:102AE000000152EC0EF04C0EF66E060EF76E030E61
:102AF0000101CD6F0001ACEC0DF0010E0101CE6FB4
:102B00003D0ECD6F000152EC06F07AEF1AF0959E63
:102B10008C9E080E016E00D00000018E10D0019E28
:102B200001013F330001D8B08C8ED8A08C9E018C5F
:102B300006D0019C012EF4D700D000008C8E1C0E14
:102B4000E96EE92EFED700D001BEE9D701BCF1D76E
:102B5000B4EF15F00900F5520CE0F6CF3DF1F7CFD8
:102B60003EF1F5CF3FF1D3D73DC1F6FF3EC1F7FFB0
:102B7000F1D777EF1AF0020E0101266F0001ED6B1D
:102B80009BEC08F002C03EF101C03DF101013E5353
:102B900003E13D51600808E23E5306E13D517A08E9
:102BA00003E33D51DF0B01D03D51480A00012CE009
:102BB000770A2AE0790A2EE0090AD8B495D01B0AD0
:102BC000D8B403D1160AD8B456D1120AD8B4C1D198
:102BD0001C0AD8B41DD21F0AD8B48CD2620AD8B449
:102BE000FAEF19F0030AD8B430EF1AF0010AD8B49A
:102BF00064EF1AF0620AD8B46BEF1AF0030AD8B483
:102C00006EEF1AF071EF1AF0A9EF08F0000E016EE6
:102C10007CEF1AF04FEF0AF001012C6B2B6B02C016
:102C20002AF101C029F12C530AE12B5308E12A5162
:102C300015083AE2FF0A03E129512A0835E22C532C
:102C400033E12B5331E12A5116082EE303E12951D8
:102C5000F3082AE32AC1A4F029C1A3F02CC154F13E
:102C60002BC153F12AC152F129C151F1586B576B55
:102C7000566B0A0E556F000120EC05F001C03EF1C5
:102C800000C03DF101C044F100C043F197EC05F0F4
:102C9000A2EC04F00B0EE46F9F0EE36F94EC0AF0CD
:102CA00035EC06F01FD00101010EEA6E330EE96E1D
:102CB000F2CF3DF1F29E0A0E016EF76A000E00019E
:102CC0002EEC02F00A000900F5CFEEFF012EFBD733
:102CD00001013DBFF28E010ECE6F330ECD6F0001AC
:102CE00052EC06F07AEF1AF09BEC08F002C03EF1CD
:102CF00001C03DF101013E5303E13D51600808E28E
:102D00003E5306E13D517A0803E33D51DF0B01D00C
:102D10003D514E083AE10001EEEC09F001C027F107
:102D200001012751010811E3275308E00001A8EF32
:102D30000AF0010EEF6F8A9806D001010001C7EF7B
:102D40000AF0EF6B8A881FD00101010EEA6E330E84
:102D5000E96EF2CF3DF1F29E0A0E016EF76A000EA7
:102D600000012EEC02F00A000900F5CFEEFF012E63
:102D7000FBD701013DBFF28E010ECE6F330ECD6F3A
:102D8000000152EC06F01FD00101010EEA6E330E75
:102D9000E96EF2CF3DF1F29E0A0E016EF76A000E67
:102DA00000012EEC02F00A000900F5CFEEFF012E23
:102DB000FBD701013DBFF28E010ECE6F330ECD6FFA
:102DC000000152EC06F07AEF1AF09BEC08F002C01A
:102DD0003EF101C03DF101013E5303E13D51600868
:102DE00008E23E5306E13D517A0803E33D51DF0B13
:102DF00001D03D51520820E1010EEA6E330EE96E1A
:102E0000F2CF3DF1F29E070E016EF76A000E00014F
:102E100040EC02F00A000900F5CFEEFF012EFBD7CF
:102E200001013DBFF28E010ECE6F330ECD6F00015A
:102E300052EC06F01FD00101010EEA6E330EE96E6E
:102E4000F2CF3DF1F29E0A0E016EF76A000E00010C
:102E50002EEC02F00A000900F5CFEEFF012EFBD7A1
:102E600001013DBFF28E010ECE6F330ECD6F00011A
:102E700052EC06F03FD39BEC08F002C03EF101C0DB
:102E80003DF101013E5303E13D51600808E23E532C
:102E900006E13D517A0803E33D51DF0B01D03D517E
:102EA0004D0838E10001EEEC09F001C027F1010105
:102EB000275101080FE3275308E0010E0001F06FCE
:102EC0008B88F26BF16B04D001010001F06B8B98E1
:102ED0001FD00101010EEA6E330EE96EF2CF3DF113
:102EE000F29E0A0E016EF76A000E00012EEC02F04F
:102EF0000A000900F5CFEEFF012EFBD701013DBF0F
:102F0000F28E010ECE6F330ECD6F000152EC06F043
:102F10001FD00101010EEA6E330EE96EF2CF3DF1D2
:102F2000F29E0A0E016EF76A000E00012EEC02F00E
:102F30000A000900F5CFEEFF012EFBD701013DBFCE
:102F4000F28E010ECE6F330ECD6F000152EC06F003
:102F5000D1D2B7EC09F002C03EF101C03DF1010150
:102F60003E5303E13D51600808E23E5306E13D5106
:102F70007A0803E33D51DF0B01D03D5153083EE198
:102F800000019BEC08F0EEEC09F001C027F1010113
:102F90002751010813E3275305E0010E0001EE6FEE
:102FA00003D001010001EE6BEEC0A2F00B0EE46F46
:102FB0009F0EE36F94EC0AF01FD00101010EEA6E40
:102FC000330EE96EF2CF3DF1F29E0A0E016EF76A02
:102FD000000E00012EEC02F00A000900F5CFEEFF12
:102FE000012EFBD701013DBFF28E010ECE6F330ED5
:102FF000CD6F000152EC06F004D001010001E6EFB4
:103000000AF00B0EE46F9F0EE36F94EC0AF072D29D
:103010009BEC08F002C03EF101C03DF101013E53BE
:1030200003E13D51600808E23E5306E13D517A0854
:1030300003E33D51DF0B01D03D5144083CE1000169
:10304000EEEC09F001C027F101012751010813E35B
:10305000275306E0010E0001DD6F8A8404D00101D0
:103060000001DD6B8A940B0EE46F9F0EE36F94EC0E
:103070000AF01FD00101010EEA6E330EE96EF2CFA5
:103080003DF1F29E0A0E016EF76A000E00012EEC71
:1030900002F00A000900F5CFEEFF012EFBD7010177
:1030A0003DBFF28E010ECE6F330ECD6F000152EC9C
:1030B00006F01FD00101010EEA6E330EE96EF2CF69
:1030C0003DF1F29E0A0E016EF76A000E00012EEC31
:1030D00002F00A000900F5CFEEFF012EFBD7010137
:1030E0003DBFF28E010ECE6F330ECD6F000152EC5C
:1030F00006F000D297EC09F09BEC08F001C027F134
:10310000EEEC09F001C028F1EEEC09F002C02EF15E
:1031100001C02DF101012751600806E227517A080C
:1031200003E32751DF0B01D027514E0A00010CE0C9
:103130001E0A67E0020AD8B4C1D0140AD8B4FBD082
:10314000100AD8B44ED155D101012851010838E3F5
:103150002EC1CEF12DC1CDF10001FDEC0AF003C06E
:10316000DDF102C0DCF101C0DBF100C0DAF13D0E9F
:103170000101E16F0A0EE06F570EDF6F7C0EDE6F0C
:10318000000118EC0BF003C040F102C03FF101C098
:103190003EF100C03DF193EC0BF002C02EF101C0F6
:1031A0002DF1D89001012835036AA70FE96E000EB2
:1031B0000320EA6E2EC1ECFFED522DC1EFFF1FD0B0
:1031C000010EEA6E330EE96EF2CF3DF1F29E0A0E69
:1031D000016EF76A000E00012EEC02F00A000900F1
:1031E000F5CFEEFF012EFBD701013DBFF28E010EA0
:1031F000CE6F330ECD6F000152EC06F001010001DD
:10320000F8D001012851010838E32EC1CEF12DC1BB
:10321000CDF10001FDEC0AF003C0DDF102C0DCF1EC
:1032200001C0DBF100C0DAF13D0E0101E16F0A0ED1
:10323000E06F570EDF6F7C0EDE6F000118EC0BF0B5
:1032400003C040F102C03FF101C03EF100C03DF1BA
:1032500093EC0BF002C02EF101C02DF1D8900101CA
:103260002835036AAB0FE96E000E0320EA6E2EC10B
:10327000ECFFED522DC1EFFF1FD0010EEA6E330EB1
:10328000E96EF2CF3DF1F29E0A0E016EF76A000E72
:1032900000012EEC02F00A000900F5CFEEFF012E2E
:1032A000FBD701013DBFF28E010ECE6F330ECD6F05
:1032B000000152EC06F0010100019BD09BEC08F0EC
:1032C00002C03EF101C03DF101013E5303E13D5119
:1032D000600808E23E5306E13D517A0803E33D51A0
:1032E000DF0B01D03D51520805E12EC1DCF02DC1AC
:1032F000DBF01FD0010EEA6E330EE96EF2CF3DF126
:10330000F29E0A0E016EF76A000E00012EEC02F02A
:103310000A000900F5CFEEFF012EFBD701013DBFEA
:10332000F28E010ECE6F330ECD6F000152EC06F01F
:10333000010100015ED0010128510B0831E3285141
:10334000040DF350036AAF0FE96E000E0320EA6E1E
:103350002EC1ECFFED522DC1EFFF0001EEEC09F0A4
:1033600002C02EF101C02DF101012851040DF350CE
:10337000036A0D0F3D6F000E03203E6F020E3D25C8
:10338000016E000E3E21036E0150A20FE96E000E89
:103390000320EA6E2EC1ECFFED522DC1EFFF1FD0CE
:1033A000010EEA6E330EE96EF2CF3DF1F29E0A0E87
:1033B000016EF76A000E00012EEC02F00A0009000F
:1033C000F5CFEEFF012EFBD701013DBFF28E010EBE
:1033D000CE6F330ECD6F000152EC06F001010001FB
:1033E00008D00B0EE46F9F0EE36F94EC0AF035ECFF
:1033F00006F080D0EEEC09F002C030F101C02FF1F0
:1034000001012F5302E130530AE0305308E12F51FC
:10341000630805E330C1DFF02FC1DEF01FD0010EDD
:10342000EA6E330EE96EF2CF3DF1F29E0A0E016EA6
:10343000F76A000E00012EEC02F00A000900F5CF39
:10344000EEFF012EFBD701013DBFF28E010ECE6FC4
:10345000330ECD6F000152EC06F0010100014AD09D
:10346000EEEC09F002C032F101C031F1010131533B
:1034700002E1325308E0325306E13151390803E3E7
:1034800031C1E0F01FD0010EEA6E330EE96EF2CFCB
:103490003DF1F29E0A0E016EF76A000E00012EEC5D
:1034A00002F00A000900F5CFEEFF012EFBD7010163
:1034B0003DBFF28E010ECE6F330ECD6F000152EC88
:1034C00006F00101000116D0EEEC09F002C0E2F0B6
:1034D00001C0E1F00FD08DEF0FF00CD0B4EF12F07F
:1034E00009D0F00EF66E060EF76EAAEF15F0000E7C
:1034F000016E02D0000E016EE3EF1AF04E50FC0F89
:10350000D8B0C8D0040F4CEF1BF04F6A4E2AC2D07F
:103510002B5232E085EC08F00101066B01C005F189
:10352000055106112AE00551240808E1065306E179
:103530004E2A0001A16BA06B1FD00101010EEA6EA3
:10354000090EE96EF2CF26F1F29E0B0E016EF76ABC
:10355000000E000151EC02F00A000900F5CFEEFF69
:10356000012EFBD7010126BFF28E010ECE6F090E90
:10357000CD6F000152EC06F0010100018BD02B52FF
:10358000D8B471D0A16BA06B85EC08F00101066B7B
:1035900001C005F14F504F2A036A500FE96E000E2B
:1035A0000320EA6E05C1EFFF4F50460804E24E6A61
:1035B000000170D0010105510D0831E106532FE1E2
:1035C0000001BBEF15F00101086B01C007F1073DD9
:1035D00002D008531FE0010EEA6E140EE96EF2CF1E
:1035E00026F1F29E080E016EF76A000E000164ECEF
:1035F00002F00A000900F5CFEEFF012EFBD7010112
:1036000026BFF28E010ECE6F140ECD6F000152EC6C
:1036100006F00101000190EC03F025D001010551F5
:103620001B0822E1065320E1010EEA6E1C0EE96E32
:10363000F2CF26F1F29E0A0E016EF76A000E00012B
:1036400075EC02F00A000900F5CFEEFF012EFBD762
:10365000010126BFF28E010ECE6F1C0ECD6F000150
:1036600052EC06F04E6A01014E50010811E21EA212
:103670000FD01E920001A02BD8B4A12BA151260877
:1036800006E2FF0A03E1A051100801E24E6A0101BF
:10369000000100D065EF1BF0F2CF0DF0F29EE824A0
:1036A000F76AF736BD0FF66E360EF7220A00F550B0
:1036B000FA6E0800F5500DBEF28EF96E0A3510351F
:1036C0007E35943672EF08F019D7FFEF1BF0F86AD9
:1036D000D09E078E700ED36E9B9C9B9EB896190E43
:1036E000AF6EA60EAC6E900EAB6E959E8C8E2A6A57
:1036F000296AE46BE36BA2C0EEF0010EEF6FF06B92
:10370000F26BF16BF46BF36BC150F00BC16E000EFA
:103710000F01386F3C6F396F3A6F3B6F0101886B57
:10372000776A786A796A030E0001F66FE80EF56F22
:1037300098EF03F005EF04F08B908A98030E176E54
:10374000E80E166EDAEF04F035EC06F00D0EF76FAA
:103750000A0EF86FF96B0101CE6BF70ECD6F000109
:1037600052EC06F0EA6AF70EE96EF2CF05F1F29E2E
:103770000E0E016EF76A000E87EC02F00A000900D7
:10378000F5CFEEFF012EFBD7010105BFF28ECE6B08
:10379000F70ECD6F000152EC06F00D0EF76F0A0E1A
:1037A000F86FF96B0101CE6BF70ECD6F000152EC93
:1037B00006F08B82080E0101056FFA0E096F0001F9
:1037C00023EC04F00101052FF8D78B988C948B9A89
:1037D0008C961EA00CD01E900001A551A61102E0EF
:1037E0008B9001D08B70040000D00000010100011B
:1037F000F02D02D09CEF06F0D5EF07F063D7010162
:0C380000E8D70001F66B010EF56FFFD752
:020000040030CA
:0E00000000F8191C00BF00000FC00FE00F40F9
:00000001FF
;PIC18F45K22
;CRC=EAAA  CREATED="04-Jul-18 16:11"
