:0400000072EF1AF091
:08000800046ED8CF05F0E0CF33
:1000100006F00001E9CF0CF0EACF07F0E1CF08F0DD
:10002000E2CF09F0D9CF0AF0DACF0BF0F3CF12F01C
:10003000F4CF13F0FACF14F000C00EF001C00FF0AF
:1000400002C010F003C011F09DA22AEF00F09EB292
:100050001EEF02F0F2A830EF00F0F2B236EF02F03D
:10006000F0A636EF00F0F0B039EF02F09DAA3CEFB9
:1000700000F09EBA3CEF02F0A3AA42EF00F0A4BA4F
:1000800053EF02F07DA048EF00F07EB01BEF02F0CE
:100090000EC000F00FC001F010C002F011C003F05C
:1000A0000CC0E9FF07C0EAFF078E08C0E1FF09C0E6
:1000B000E2FF0AC0D9FF0BC0DAFF12C0F3FF13C082
:1000C000F4FF14C0FAFF045006C0E0FF05C0D8FFDB
:1000D0001000F2CF0DF0F29EF76AEC0FF66E000EF4
:1000E000F7220900F5500DBEF28E12000000DC0070
:1000F00091810008C25E0018B30400003C00950026
:1001000000004000F2CF0DF0F29EF76A1E0FF66E6F
:10011000010EF7220900F5500DBEF28E12002446A2
:10012000203C6672657175656E63793E3C63723E14
:10013000202009536574206672657175656E637958
:1001400020696E20314D487A20696E6372656D6555
:100150006E74732028692E652E353137332069730C
:1001600020352E31373347487A290D0A0000F2CF67
:100170000DF0F29EF76A880FF66E010EF722090065
:10018000F5500DBEF28E1200244F4E203C6F6E6F64
:1001900066663E3C63723E20200953657420504CD5
:1001A0004C205246204F5554206F6E283129206F25
:1001B00072206F66662830290D0A0000F2CF0DF01C
:1001C000F29EF76AD60FF66E010EF7220900F5507F
:1001D0000DBEF28E1200245053203C706F77657272
:1001E0003E3C63723E20200953657420616D70208F
:1001F000706F776572206F6E283129206F72206FC3
:1002000066662830290D0A00F2CF0DF0F29EF76ADB
:10021000220FF66E020EF7220900F5500DBEF28E87
:1002200012002450203C6C6576656C3E3C63723E47
:1002300020200953657420706F776572206C657695
:10024000656C2068696768283129206F72206C6F9F
:10025000772830290D0A0000F2CF0DF0F29EF76AE0
:10026000720FF66E020EF7220900F5500DBEF28EE7
:100270001200244C44203C6677643E3C63723E206E
:1002800020095365742046776420706F776572206B
:100290006D6561737572656D656E74206F6E283162
:1002A00029206F72206F66662830290D0A00F2CF70
:1002B0000DF0F29EF76AC80FF66E020EF7220900E3
:1002C000F5500DBEF28E120024513C63723E202088
:1002D0000952657175657374207374617475730D5B
:1002E0000A00F2CF0DF0F29EF76AFC0FF66E020ED6
:1002F000F7220900F5500DBEF28E120024424D3C4B
:1003000063723E202009424954204D6F6465204F9E
:100310004E283129204F46462830290D0A00F2CFB9
:100320000DF0F29EF76A380FF66E030EF722090001
:10033000F5500DBEF28E12002454523C63723E20E2
:1003400020095452414E53495645522854292052AF
:1003500045434956455228522900F2CF0DF0F29EEE
:10036000F76A740FF66E030EF7220900F5500DBE02
:10037000F28E12000D0A244641494C0D0A00F2CFBC
:100380000DF0F29EF76A980FF66E030EF722090041
:10039000F5500DBEF28E12000D0A24520D0A000017
:1003A000F2CF0DF0F29EF76ABA0FF66E030EF72247
:1003B0000900F5500DBEF28E12000D0A244641557B
:1003C0004C540D0A0000F2CF0DF0F29EF76AE00FD8
:1003D000F66E030EF7220900F5500DBEF28E1200E4
:1003E0000D0A244F4B0D0A00F2CF0DF0F29EF76A72
:1003F000020FF66E040EF7220900F5500DBEF28EC4
:1004000012000D0A24425245414B0D0A0000F2CF62
:100410000DF0F29EF76A280FF66E040EF72209001F
:10042000F5500DBEF28E1200424131353333525831
:100430002056312E30007E9048EF00F01868192ABF
:100440001A2A1A5009080FE21A6A1B2A1C681D2A68
:100450001D50090808E21D6A1E681F2A1F5009085E
:1004600002E21F6A20689E9248EF00F0F29248EF85
:1004700000F0F09048EF00F0AECFC4F1036A3250C4
:10048000340FE96E000E0320EA6EC4C1EFFF322A7A
:1004900032501F0801E2326A31501F0801E3312A4D
:1004A0009E9A48EF00F02F2C06D0305204E1226AC9
:1004B000216A306A2F6A745203E02E6A74CF2DF0DD
:1004C000A49A48EF00F00D0A332E337620706F7730
:1004D000657220696E3D25322E31662876292032DC
:1004E000387620706F77657220696E3D25322E3127
:1004F0006628762900000D0A525353493D256C7534
:1005000000000D0A465245513D256C752C20525372
:1005100053493D25302E326664424D2C2054454DC2
:10052000503D25352E31662863292C2049443D2530
:100530006C752C2044433D2530326C752530327566
:100540002C2056455220256C732C200056312E301D
:1005500000004C494748543D4F4E2C2000004C4968
:100560004748543D4F46462C2000504153532042AB
:1005700069743D256C642C2000004641494C2042A2
:1005800069743D256C642C20000053594E5448205A
:100590004C4F434B3D4C4F434B2C200053594E5432
:1005A00048204C4F434B3D4E4F54204C4F434B2C17
:1005B0002000424954204D4F44453D53544152542C
:1005C0002C200000424954204D4F44453D53544F88
:1005D000502C2000504F574552204D4F44453D4828
:1005E0004947482C2000504F574552204D4F444515
:1005F0003D4C4F572C2000004155544F5F504F57F2
:1006000045523D312C2000004155544F5F504F570B
:1006100045523D302C2000004D4F44554C45205450
:100620005950453D52582C2000000D0A244641499E
:100630004C0D0A00896A8A6A8B6A8C6A8D6AC10EBF
:10064000926EC40E936E810E946E800E956E96809F
:100650009682968496864AEF03F0316A31C033F071
:1006600033C032F0546A9D8A1200480E0509BA6EF2
:10067000630EBB6EB46AB16A000E05090F01516FBB
:10068000630E526F4D6B4E6B000E4A6F000E4B6F38
:100690000001D0D7C150F00BC16E010E0F01386FB1
:1006A000070E3C6F040E396F000E3A6F3B6FC0505F
:1006B000C00B2509C06EC08EC280776A040E786EAA
:1006C000796E0001CADFA39A9D82C00EF212B1EFCB
:1006D0001AF001011DC103F01C51D8B41D071C07FD
:1006E00003101FE01B51036E1A511A2BD8B41B2B99
:1006F000E96E03C0EAFF1951036E1851182BD8B4E4
:10070000192B206F03C021F1F2CF22F1F29E20C1FC
:10071000A9FFA69CA69EA680A85022BFF28EEF6ECF
:10072000D9D70001ADEF03F0016603D0026602D015
:1007300007D0022A00C0EEFF012EFCD7022EFAD706
:10074000B9EF03F00101196B186B1B6BA80E1A6F40
:100750001D6B410E1C6F0001BCD7A93D0AD0AA3DFC
:1007600008D0EA6AA80EE96E006A026A410E016EBC
:10077000DBD7B3EF1AF0080E01015D6F5D531EE089
:100780005CAF02D08B8601D08B9604000C0E006EFD
:10079000002EFED700D08B8404000C0E006E002EBD
:1007A000FED700D08B940400200E006E002EFED7E2
:1007B00000D05D515D07D8905C37E0D78B968B9465
:1007C000000112000400F29CF29EF2BEFDD75AC155
:1007D0005BF15AC15CF1CFDF59C15BF159C15CF1EA
:1007E000CADF58C15BF158C15CF1C5DF57C15BF18D
:1007F00057C15CF1C0DF0400340E006E002EFED73E
:1008000000D08B820400050E006E002EFED700D0B3
:1008100000008B928B96C00EF21204001200010EA3
:10082000EA6E1E0EE96EEF5011E0050E016EBF0E6E
:10083000006E0400002EFDD7012EF9D72E0E006E9B
:10084000002EFED700000400EF2EEFD712000101AA
:100850001D6B050E1C6F1D51050836E31C51040D60
:10086000F350036AF2CF1EF1F29E000132DC090060
:10087000F5CF01F00900F5CF02F00900F5CF03F044
:1008800001011EBFF28E03C01BF102C01AF101C0AC
:1008900019F1186F016A026A036A1C51181301509A
:1008A000191302501A1303501B131BC15AF11AC11A
:1008B00059F119C158F118C157F1000183DF010145
:1008C0001D511D2B1C07C7D7C80E1E6F0001A7DFC7
:1008D0001BC15AF11AC159F119C158F118C157F188
:1008E00071DFC80E01011E6F000199DFB8EF1AF029
:1008F000010153515503F3CF01F0F4CF00F056033B
:10090000F350002654515503F3500020026E0001AD
:1009100052EF06F001016F6B706B010E716FDA6AB6
:10092000D96A746F670E736F010EEA6E6B0EE96E13
:1009300074C1E2FF73C1E1FF71C172F1D890E5505B
:10094000EE02F3506F23F4507023722FF7D76FC16C
:10095000DEFF70C16FF1706BD8B0702B732BD8B401
:10096000742B712B71510508DFE100011200D8B220
:1009700004D0010EEA6EBF0EE96E006A016A026AD7
:10098000036A0101BF6BC06BC16BC26BBE51BD116D
:10099000BC11BB112CE0200EC36FD890B737B8370D
:1009A000B937BA37BF37C037C137C237BE51C25D5A
:1009B00008E1BD51C15D05E1BC51C05D02E1BB5123
:1009C000BF5D0FE3BB51BF5FBC51D8A0BC3DC05F52
:1009D000BD51D8A0BD3DC15FBE51D8A0BE3DC25FD4
:1009E000D8800036013602360336C32FD6D7BFC1B2
:1009F000EFFFC0C1ECFFC1C1ECFFC2C1ECFF0001C1
:100A000012000101626B616B606B010E5F6F04008D
:100A1000C00E555D5B6F120E56595C6F5D6B5E6B61
:100A2000D8905E335D335C335B330001FE6B850E23
:100A3000FD6FFC6B3C0EFB6F04005EC16AF15DC193
:100A400069F15CC168F15BC167F162C16EF161C1BE
:100A50006DF160C16CF15FC16BF15CDF03C066F1E9
:100A600002C065F101C064F100C063F103C06AF126
:100A700002C069F101C068F100C067F101016E6B4D
:100A80006D6B6C6B640E6B6F000144DF03C05EF135
:100A900002C05DF101C05CF100C05BF10400D892BE
:100AA0005EC1BAF15DC1B9F15CC1B8F15BC1B7F12A
:100AB0000101BE6BBD6B270EBC6F100EBB6F00013A
:100AC00056DF03C0EEF002C0EDF001C0ECF000C054
:100AD000EBF00400EEC06AF1EDC069F1ECC068F122
:100AE000EBC067F101016E6B6D6B270E6C6F100E22
:100AF0006B6F00010FDF005001015B5D636F015000
:100B00005C59646F02505D59656F03505E59666FA2
:100B10006A6B696B686B640E676F62C16EF161C16D
:100B20006DF160C16CF15FC16BF10001F3DE03C0D8
:100B30006AF102C069F101C068F100C067F1D892A2
:100B400066C1BAF165C1B9F164C1B8F163C1B7F169
:100B500003C0BEF102C0BDF101C0BCF100C0BBF1D9
:100B600006DF03C0F2F002C0F1F001C0F0F000C0F7
:100B7000EFF0080EF66FF56B030EF46F210EF36FB6
:100B80000400010E01015727D8B0582BD8B4592BB7
:100B9000D8B45A2B000112000101586B0001EB354B
:100BA0000101596F0001EC3501015A6F0001ED356B
:100BB00001015B6F59375A375B3759375A375B3703
:100BC00059375A375B3759375A375B3759375A379E
:100BD0005B3759375A375B37800E59170001EF35AD
:100BE000006EF035016EF135026EF235036E00369F
:100BF0000136023603360036013602360336F80E69
:100C00000016005001015825536F01505921546FAF
:100C100002505A21556F03505B21566F56C1FAF0AE
:100C200055C1F9F054C1F8F053C1F7F0040056C1B2
:100C30005AF155C159F154C158F153C157F100014E
:100C4000C1DD0400190E006E002EFED700D000009A
:100C50000400F6C05AF1F5C059F1F4C058F1F3C0E0
:100C600057F1B0DD0400190E006E002EFED700D043
:100C700000000400FEC05AF1FDC059F1FCC058F15B
:100C8000FBC057F19FDD1200AAC052F1A9C051F17B
:100C900052C154F151C153F10101566B0A0E556F07
:100CA000000126D602C054F101C053F102C056F132
:100CB00001C055F1A6DE70DF030E176EE80E166E4A
:100CC0001200040E0101B05F0AE3010EEA6EB00EDD
:100CD000E96EEF5004E001D00400EF2EFDD70001D3
:100CE00012009D9A0101AD6BABC103F0AAC1E9FFEF
:100CF000ABC1EAFFEF523AE0ABC103F0AA51AA2B15
:100D0000D8B4AB2BE96E03C0EAFFEFCFACF1AC5126
:100D1000090810E0ACC1ADFFAD2B04000D0EAF6FA4
:100D2000160EB06F0001CDDF0101AF2FF9D7AECFA6
:100D3000ACF11BD0200EAE6FAE51AD5D03E3020EE1
:100D4000AD25AE6FAE51AD5D10E2200EAD6EAD2B98
:100D500004000D0EAF6F160EB06F0001B2DF01017F
:100D6000AF2FF9D7AECFACF1EDD7BED7AECFACF148
:100D70009D8A0001120020A611D02096212AD8B405
:100D8000222A225016080AE2FF0A03E121506F08C6
:100D900005E2226A216A8C960101026B000119EFBB
:100DA0001BF0899401011AA702D0898801D0899883
:100DB0008986040E006E002EFED700D08996040EA0
:100DC000006E002EFED700D01AA502D0898801D06F
:100DD00089988986040E006E002EFED700D0899671
:100DE000040E006E002EFED700D01AA302D0898810
:100DF00001D089988986040E006E002EFED700D09F
:100E00008996040E006E002EFED700D01AA102D0E3
:100E1000898801D089988986040E006E002EFED73D
:100E200000D08996040E006E002EFED700D0898671
:100E3000000B006E1C51020B036E0050031002E009
:100E4000898801D08998040E006E002EFED700D04C
:100E50008996040E006E002EFED700D08986000B06
:100E6000006E1C51010B036E0050031002E08988D4
:100E700001D08998899689861B51800B006E036A80
:100E80000050031002E0898801D08998040E006E9A
:100E9000002EFED700D08996040E006E002EFED7DD
:100EA00000D089861B51400B006E036A005003106E
:100EB00002E0898801D08998040E006E002EFED7CA
:100EC00000D08996040E006E002EFED700D08986D1
:100ED0001B51200B006E036A0050031002E089884A
:100EE00001D08998899689861B51100B006E036A80
:100EF0000050031002E0898801D08998040E006E2A
:100F0000002EFED700D08996040E006E002EFED76C
:100F100000D089861B51080B006E036A0050031035
:100F200002E0898801D08998899689861B51040B33
:100F3000006E036A0050031002E0898801D089988E
:100F4000040E006E002EFED700D08996040E006EAF
:100F5000002EFED700D089861B51020B006E036A5B
:100F60000050031002E0898801D08998899689860B
:100F70001B51010B006E036A0050031002E08988C8
:100F800001D08998040E006E002EFED700D08996FD
:100F9000040E006E002EFED700D08986040E006E6F
:100FA000002EFED700D089968986040E006E002E92
:100FB000FED700D0040E006E002EFED700D089961A
:100FC000040E006E002EFED700D08984040E006E41
:100FD000002EFED700D08992040E006E002EFED7A0
:100FE00000D08982040E006E002EFED700D00001D2
:100FF00012000101005302E08C8401D08C940001A6
:10100000AB51AC110AE00E0E01011A6FB0C01CF119
:10101000AFC01BF10001C5DE09D00E0E01011A6F31
:10102000AEC01CF1ADC01BF10001BBDE01010353DA
:101030003DE01C0E016EC250830B0110C26E040015
:10104000190E006E002EFED700D00000C282C2B280
:10105000FED7C3CF18F1C4CF19F10001E651010149
:10106000195D10E308E118510001E55DD8A002D038
:10107000010108D001018C808C920001AC6BAB6B3C
:1010800013D0010119510001E85D0EE308E1E751B9
:101090000101185DD8A002D0000106D000018C909B
:1010A0008C82AC6B010EAB6F0AD001010001AB5119
:1010B000AC1103E08C908C8202D08C808C921DEF5E
:1010C0001BF0ABA20AD0AB92AB980400050E006EE9
:1010D000002EFED700D00000AB88ABA403D0AB94A9
:1010E000AECF18F16FEF1AF0036A3350340FE96E88
:1010F000000E0320EA6EEFCF3AF1332A33501F0877
:1011000001E2336A315201E0310601013AC101F0D6
:1011100000011200FF51FF2B036A560FE96E000E0B
:101120000320EA6E036AEFCF01F003C002F0120061
:101130000D0E0101516F0A0E526F536B010EAB6F12
:10114000510EAA6F0001CDDD010EEA6E510EE96E5F
:10115000F2CFA0F1F29E4F0E016EF76A000E82EC04
:1011600000F00A000900F5CFEEFF012EFBD70101C8
:10117000A0BFF28E010EAB6F510EAA6F0001B1DD60
:10118000010EEA6E510EE96EF2CFA0F1F29E330E1F
:10119000016EF76A000EB7EC00F00A000900F5CF07
:1011A000EEFF012EFBD70101A0BFF28E010EAB6F47
:1011B000510EAA6F000195DD010EEA6E510EE96E27
:1011C000F2CFA0F1F29E320E016EF76A000EDEEC55
:1011D00000F00A000900F5CFEEFF012EFBD7010158
:1011E000A0BFF28E010EAB6F510EAA6F000179DD28
:1011F000010EEA6E510EE96EF2CFA0F1F29E350EAD
:10120000016EF76A000E04EC01F00A000900F5CF48
:10121000EEFF012EFBD70101A0BFF28E010EAB6FD6
:10122000510EAA6F00015DDD010EEA6E510EE96EEE
:10123000F2CFA0F1F29E3C0E016EF76A000E2CEC8C
:1012400001F00A000900F5CFEEFF012EFBD70101E6
:10125000A0BFF28E010EAB6F510EAA6F000141DDEF
:10126000010EEA6E510EE96EF2CFA0F1F29E1A0E57
:10127000016EF76A000E57EC01F00A000900F5CF85
:10128000EEFF012EFBD70101A0BFF28E010EAB6F66
:10129000510EAA6F000125DD010EEA6E510EE96EB6
:1012A000F2CFA0F1F29E220E016EF76A000E71ECF1
:1012B00001F00A000900F5CFEEFF012EFBD7010176
:1012C000A0BFF28E010EAB6F510EAA6F000109DDB7
:1012D000010EEA6E510EE96EF2CFA0F1F29E220EDF
:1012E000016EF76A000E8FEC01F00A000900F5CFDD
:1012F000EEFF012EFBD70101A0BFF28E010EAB6FF6
:10130000510EAA6F0001EDDC23EF15F0036AFF51C7
:10131000560FE96E000E0320EA6EEF5216E0036AE4
:10132000FF51560FE96E000E0320EA6EEF502C08B5
:101330000AE0036AFF51560FE96E000E0320EA6EC1
:10134000EF50200802E1FF2BE1D71200DFDF036A34
:10135000FF51560FE96E000E0320EA6E036AEFCFCD
:1013600001F003C002F01200010158515A19800B1C
:101370005C6F58AF05D0571F581F572BD8B4582B48
:101380005AAF05D0591F5A1F592BD8B45A2B575151
:101390005903F3CF01F0F4CF00F05A03F3500026C5
:1013A00058515903F3500020026E5CAF05D0011E66
:1013B000021E012AD8B4022A000112000101566B54
:1013C000010E556F0001A2DF036AFF51560FE96E4F
:1013D000000E0320EA6EEF5244E00101546B536BA0
:1013E0000001B4DF02C058F101C057F10101015002
:1013F0002D0807E1585305E15669556900018ADE59
:101400000101036A0001FF51560FE96E000E03202F
:10141000EA6EEFCF57F1010157512F0821E25751E2
:1014200039081EE354C158F153C157F15A6B0A0EE3
:10143000596F000199DF02C058F101C057F1FF5107
:10144000FF2B036A560FE96E000E0320EA6E300E82
:10145000EF5C01010124536F000E0220546FD1D7BD
:10146000000154C158F153C157F156C15AF155C149
:1014700059F17ADF02C003F002C002F012009EDFD1
:1014800002C052F101C051F1010151C101F052C13C
:1014900002F0000129EF15F0010156C103F055518A
:1014A000D8B45607550703102CE05251036E515122
:1014B000512BD8B4522B576F03C058F15451036EBF
:1014C0005351532BD8B4542BE96E03C0EAFFEFCF2E
:1014D00059F1F250006EF29E57C1A9FF59C1A8FF01
:1014E000A69CA69EA6840F01550EA76EAA0EA76EF7
:1014F000A682A6B2FED7A6940050F2120001CCD765
:101500000101000195EF0AF0E9519F080EE1EA514F
:101510000B080BE10101526B516B546BA80E536F1A
:10152000566B410E556F0001B7D7EA6BE96B12009D
:101530000101546B950E536F526B1C0E516F54C1C9
:101540005AF153C159F152C158F151C157F100013B
:10155000E2EC03F0BEEF15F031DF02C052F101C042
:1015600051F1010152530AE15151010807E352C1FF
:10157000ACF051C1ABF0010E016E02D0000E016E55
:1015800000011CEF17F08E0E006EB3C101F0B2C166
:1015900002F0036A015209E102C001F0026A080E7A
:1015A000005E015202E1006A08D0D89001BE04D06A
:1015B000023601360006F9D7019E12000101B7512B
:1015C000D8B471D0006EBB51D8B46DD0002604E3FE
:1015D000810E002668E204D07F0E005E64E363E0C3
:1015E000B8C1BFF1BC51BF1BB88FBC8FBA51BE038D
:1015F000F4CFC1F1B951BD03F4CF03F0F3CFC0F183
:10160000BE03F350C127F450C023000E0322BA5189
:10161000BD03F350C127F450C023000E026A032219
:101620000222B851BE03F350C027F4500322000E2B
:101630000222B851BD03F3500326F4500222000EDB
:10164000016A0122BA51BC03F350C027F4500322AF
:10165000000E02220122B951BC03F3500326F450BC
:101660000222000E0122B851BC03F3500226F450AE
:101670000122002A01BE05D0C037033602360136EA
:101680000006000EC0AF0AD0032A02220122015038
:1016900005E1025003E1035001E1002ABFBF018EC2
:1016A000BFAF019E04D0006A016A026A036A0001AA
:1016B00012008E0E006E01015151005E52C102F007
:1016C00053C101F0028E005209E0D890025202E1AB
:1016D000015204E002320132002EF7D752AF05D09A
:1016E000011E021E012AD8B4022A00011200800E37
:1016F000D8A202D00101B91B0101BE6BBF6BB5C1FD
:10170000BDF1B951BD1BB451D8B4DFD0BC6F006E70
:10171000B851D8B4E3D0BC5FD8B483D03EE3B9C1EC
:10172000C2F1C28FBAC1C1F1BBC1C0F1BF6BD890C9
:10173000C233C133C033BF33BC2FF8D7BDAF03D0E2
:10174000BE81E0D0BE91BC91BE89010EEA6EB70E9B
:10175000E96EEBD0BE99BDBF0AD0BCA113D0C23395
:10176000C133C033BF33002AD8B4C7D00BD0C2BFF7
:101770000CD0D890BF37C037C137C2370006D8B4B5
:10178000BCD0F5D7BE8D6DD0BE9DB5C1BDF1B5AF96
:1017900002D0C28FABD0C29FA9D0B8C1BCF1B8C132
:1017A00000F0B451BC5FB5C1C2F1C28FB6C1C1F186
:1017B000B7C1C0F1BF6BD890C233C133C033BF33A0
:1017C000BC2FF8D7BDAF03D0BE839CD0BE93BC91D5
:1017D000BE8B010EEA6EBB0EE96EA7D0BE9BBDBFED
:1017E0000AD0BCA113D0C233C133C033BF33002AE7
:1017F000D8B483D00BD0C2BF0CD0D890BF37C0377D
:10180000C137C2370006D8B478D0F5D7BE8F29D0FB
:10181000BE9FB9C1BDF1B9AF02D0C28F67D0C29F20
:1018200065D0B9C1C2F1C28FBAC1C1F1BBC1C0F1AB
:10183000BDAF04D0C29FBE8565D0BE95BF6BBC91C5
:10184000010EEA6EB70EE96E70D0BDBF1CD0B5C1F7
:10185000BDF1BCA106D0C233C133C033BF33002AAF
:101860004CE0BFAF0BD0C02B09E1C12B07E1C22B6D
:1018700005E1C233C133C033002A3FE0BEBD84D787
:10188000BEBFC6D71CD0800EC21BC2AF04D03AD098
:10189000B9C1BDF10AD0B5C1BDF1C25306E1C15312
:1018A00004E1C05302E1006A21D0C2BF08D0D89041
:1018B000BF37C037C137C237002EF7D71ED0BDAFF4
:1018C00002D0C28F13D0C29F11D0B8C100F0B9C1ED
:1018D000C2F1BAC1C1F1BBC1C0F108D0B4C100F0BE
:1018E000B5C1C2F1B6C1C1F1B7C1C0F1C2C101F009
:1018F000C1C102F0C0C103F034D0006A016A026ABB
:10190000036A2FD0BF6BC01FC11FC21FBF1FBF2BD9
:1019100005E1C02B03E1C12B01E1C22BBEB112D7FF
:10192000BEB354D7BEB589D7B3D7EF50C02705E3B0
:10193000C12B03E1C22BD8B4BC81ED52EF50C127BB
:1019400003E3C22BD8B4BC81ED52EF50EFBE01D0FF
:10195000800AC227D8B0BC81BEB9FCD6BEBB3ED778
:1019600074D7000112000101AE51D8B4A5D0BA6FEE
:10197000B251D8B4A1D0BA5F05E37F0EBA27D8B070
:101980009BD006D0810EBA5FD8A096D0D8B494D0A0
:10199000BAC100F0016A026A036AB96BAFC1B8F15B
:1019A000B88FB0C1B7F1B1C1B6F1190EBA6FB55168
:1019B000B65F0DE2010EB75F0AE2B85F08E2B95FF9
:1019C00006E2B92BB82BB72BB551B62728D0B451A6
:1019D000B75F12E2010EB85F0FE2B95F0DE2B92BFB
:1019E000B82BB451B727B551B62719E3B72B17E178
:1019F000B82B15E1B92B13D0B3518009B85F0EE2B3
:101A0000010EB95F0BE2B92BB3518009B827B4516D
:101A1000B727E9E3B82BE7E1B92BE5D70380BA2F65
:101A200001D00BD0D890B637B737B837B937D89080
:101A3000033602360136BB37BAD7BBA106D0D890E1
:101A4000013202320332BB3302D0000635E0BBBFA5
:101A50001ED0D890B637B737B837B937B551B65F5B
:101A600007E2010EB75F04E2B85F02E2B95F1AE372
:101A7000B451B75F05E2010EB85F02E2B95F12E34D
:101A8000B3518009B85F03E2010EB95F0BE3032A8B
:101A900009E1022A07E1012A05E1002A0DE00132ED
:101AA00002320332AFC1BAF1B351BA1BBAAF02D09E
:101AB000018E06D0019E04D0006A016A026A036AA0
:101AC0000001120005C1EAFF04C1E9FF0101B7C12D
:101AD000EFFFE92AD8B4EA2AEF6A042BD8B4052B21
:101AE000000112000900F6CFABF1F7CFACF1F5CF52
:101AF000B7F1E8DFABC1F6FFACC1F7FF0101AA2FD8
:101B000001D002D00001EED700011200EACFB2F1FD
:101B1000E9CFB1F10101AB39F009AD6FAD27E20FAB
:101B2000AE6F320FB06FAB510F0BAE27AE27B027A1
:101B3000E90FAF6FAF27AF27AA390F0BAF27B02739
:101B4000AF37B037B01FB037AA510F0BB027AD3742
:101B5000070EAC6F0A0EAF07B027FDE3AE07AF2745
:101B6000FDE3AD07AE27FDE3AC07AD27FDE3010EB6
:101B7000EA6EAC0EE96E070EB115B19DE926B00E06
:101B8000E95CD8B4B18DEF50006E08E1B1BD06D06C
:101B9000B1B915D0B1B702D0200E03D0B187B19939
:101BA000300E0026EACFABF1E9CFAAF100C0B7F1C1
:101BB000000188DFABC1EAFFAAC1E9FF0101EE50D5
:101BC000B1ADDDD7000112000101B751B608B76F02
:101BD000036AB8C1BBF1B88FD890B833B933BA3300
:101BE0000332023201320032B72FF6D7BBAF0BD02F
:101BF000001E011E021E031E002AD8B4012AD8B4FA
:101C0000022AD8B4032A000131EF0EF0E950010195
:101C1000AF6FAE51B16F1BE0ADC1BAF1ACC1B9F15C
:101C2000ABC1B8F1AAC1B7F1BE6BBD6B200EBC6FE2
:101C3000820EBB6F0001C2DC03C0ADF102C0ACF18B
:101C400001C0ABF100C0AAF10101B12FE5D7ADC1D0
:101C5000BAF1ACC1B9F1ABC1B8F1AAC1B7F1000199
:101C6000B3D703C0ADF102C0ACF101C0ABF100C00D
:101C7000AAF10101ADAF0DD0AF07AF8BAA1FAB1F0B
:101C8000AC1FAD1FAA2BD8B4AB2BD8B4AC2BD8B497
:101C9000AD2B3B0EB66F9A0EB56FCA0EB46FB36B19
:101CA0000A0EB16FAE51D8B4AF2BD882010EEA6ED6
:101CB000AA0EE96EADC1BAF1ACC1B9F1ABC1B8F1D0
:101CC000AAC1B7F1B6C1BEF1B5C1BDF1B4C1BCF195
:101CD000B3C1BBF10001B7EC04F00150005213E1B5
:101CE0000101AE29B15DD8A402D000010CD0AF51E2
:101CF0000DE00F0BB15D01E040E2AFBF3ED0AFBDE4
:101D000005D0200E34D0200E0101AF17AFAB0ED09E
:101D1000AF9BAE51D8A4AF070050AF6F2D0EB76F79
:101D20000001D0DE0101AF51006EAF6BAE51B15D6D
:101D30000CE10050AF6F2E0EB76F0001C3DE010142
:101D4000AF51006E200EAF17000E300EAFAB0FD0AC
:101D5000AF9BAE51D8A4AF070050AF6F2D0EB76F39
:101D60000001B0DE0101AF51006EAF6B300E0026F6
:101D700000C0B7F10001A6DE0101D892B6C1BAF1E8
:101D8000B5C1B9F1B4C1B8F1B3C1B7F1BE6BBD6BA8
:101D9000BC6B0A0EBB6F0001B7EC04F003C0B6F1D8
:101DA00002C0B5F101C0B4F100C0B3F10101B12F1F
:101DB0007CD7000112000101AD51016AAC5D03E264
:101DC000ACC100F00CD0006A080EAE6FAC37003624
:101DD000AD51005CD8B0006E0136AE2FF7D70001D0
:101DE00012000150AAC1ACF1640E0101AD6F0001F7
:101DF000E2DF00C0AAF10150300E08E10101ABA3FF
:101E00000FD0ABB70DD0ABB9200E04D00101AB970A
:101E1000AB99AB81012601C0B7F1000153DE01018E
:101E2000AAC1ACF10A0EAD6F0001C5DF00C0AAF176
:101E30000150300E08E10101ABB70AD0ABA108D0C8
:101E4000ABB9200E0001012601C0B7F13BDE010154
:101E5000300EAA27AAC1B7F1000134DE62EF12F0FA
:101E60000900F5520CE0F6CFAAF1F7CFABF1F5CFB0
:101E7000B7F128DEAAC1F6FFABC1F7FFF1D7120018
:101E8000EACFB2F1E9CFB1F10101ABAF08D0B18F28
:101E9000B1A9B12BAA1FAB1FAA2BD8B4AB2BAB395E
:101EA000F009AD6FAD27E20FAE6F320FB06FAB51DF
:101EB0000F0BAE27AE27B027E90FAF6FAF27AF27C5
:101EC000AA390F0BAF27B027AF37B037B01FB037E5
:101ED000AA510F0BB027AD37070EAC6F0A0EAF0734
:101EE000B027FDE3AE07AF27FDE3AD07AE27FDE367
:101EF000AC07AD27FDE3010EEA6EAC0EE96E070EEE
:101F0000B115B19DE906B11507E1B1B9E92AB1B939
:101F100003D0200E006E1CD0E926B00EE95CD8B4C8
:101F2000B18DEF50006E08E1B1BD06D0B1B91DD042
:101F3000B1B702D0200E0BD0B1AF06D02D0E006E7F
:101F4000ED50B19DB19F04D0B187B199300E0026FC
:101F5000EACFABF1E9CFAAF100C0B7F10001B2DDE1
:101F6000ABC1EAFFAAC1E9FF0101EE50B1ADD5D77F
:101F700000011200140E016EC250830B0110C26EDC
:101F80000400190E006E002EFED700D00000C282A1
:101F9000C2B2FED7C4CF56F10101C3CF55F19E6B3B
:101FA0009D6B9C6B7F0E9B6FA26BA16BA06B9F6F59
:101FB000A66BA56BA46BA36B0B0EA76FA86BA751A9
:101FC000A85DD8B043D19E6B9D6B9C6B7F0E9B6FC1
:101FD000A26BA16BA06B9F6FA96BA751A95DD8B035
:101FE000C2D0A851A95DD8B4BCD0A951040DF350FA
:101FF000036AB90FE96E000E0320EA6EECCF03F01E
:10200000ED52EFCFB2F103C0B3F10001C3EC0AF01F
:1020100003C0AFF102C0AEF101C0ADF100C0ACF140
:1020200056C1B3F155C1B2F1C3EC0AF0EACFB1F138
:10203000E9CFB0F1D88203C0B7F102C0B6F101C058
:10204000B5F100C0B4F1AFC1BBF1AEC1BAF1ADC1E1
:10205000B9F1ACC1B8F177EC0BF0B1C1EAFFB0C196
:10206000E9FF9EC1BAF19DC1B9F19CC1B8F19BC114
:10207000B7F103C0BEF102C0BDF101C0BCF100C0A8
:10208000BBF1DEEC0AF003C09EF102C09DF101C07D
:102090009CF100C09BF10101A851040DF350036AAB
:1020A000B90FE96E000E0320EA6EECCF03F0ED529B
:1020B000EFCFB2F103C0B3F10001C3EC0AF003C0EB
:1020C000AFF102C0AEF101C0ADF100C0ACF1010151
:1020D000A951040DF350036AB90FE96E000E0320F5
:1020E000EA6EECCF03F0ED52EFCFB2F103C0B3F1E3
:1020F0000001C3EC0AF0EACFB3F1E9CFB2F1D88224
:10210000AFC1B7F1AEC1B6F1ADC1B5F1ACC1B4F17B
:1021100003C0BBF102C0BAF101C0B9F100C0B8F10F
:1021200077EC0BF0B3C1EAFFB2C1E9FFA2C1BAF18B
:10213000A1C1B9F1A0C1B8F19FC1B7F103C0BEF10F
:1021400002C0BDF101C0BCF100C0BBF1DEEC0AF081
:1021500003C0A2F102C0A1F101C0A0F100C09FF133
:102160000101A92B3AD79EC1B1F19DC1B0F19CC12B
:10217000AFF19BC1AEF1A2C1B5F1A1C1B4F1A0C153
:10218000B3F19FC1B2F10001B3EC0CF003C0ADF1AB
:1021900002C0ACF101C0ABF100C0AAF10101A8512D
:1021A000040DF350036A110FAE6F000E0320AF6FE2
:1021B000020EAE25016E000EAF21036E0150A80F76
:1021C000E96E000E0320EA6EECCF03F0ED52EFCF84
:1021D000B2F103C0B3F10001C3EC0AF0ADC1BAF132
:1021E000ACC1B9F1ABC1B8F1AAC1B7F103C0BEF13E
:1021F00002C0BDF101C0BCF100C0BBF1DEEC0AF0D1
:10220000EACFABF1E9CFAAF1D892A6C1B7F1A5C147
:10221000B6F1A4C1B5F1A3C1B4F103C0BBF102C0D2
:10222000BAF101C0B9F100C0B8F177EC0BF0ABC165
:10223000EAFFAAC1E9FF03C0A6F102C0A5F101C0EF
:10224000A4F100C0A3F10101A82BB9D60001AB5144
:10225000AC111BE0D892A6C1B7F1A5C1B6F1A4C1DB
:10226000B5F1A3C1B4F10101BB6BBA6B200EB96F1C
:10227000820EB86F000177EC0BF003C0A6F102C02C
:10228000A5F101C0A4F100C0A3F1180E016EC25067
:10229000830B0110C26E0400190E006E002EFED7D3
:1022A00000D00000C282C2B2FED7C4CF52F10101F9
:1022B000C3CF51F152C1B3F151C1B2F10001C3EC2E
:1022C0000AF003C0ADF102C0ACF101C0ABF100C037
:1022D000AAF103C0B1F102C0B0F101C0AFF100C07A
:1022E000AEF10101B56BB46BB36B890EB26F000137
:1022F000B3EC0CF003C0ADF102C0ACF101C0ABF126
:1023000000C0AAF103C0BAF102C0B9F101C0B8F12E
:1023100000C0B7F1330E0101BE6FBD6F530EBC6F2D
:10232000800EBB6F0001DEEC0AF003C09AF102C020
:1023300099F101C098F100C097F1D8829AC1B7F124
:1023400099C1B6F198C1B5F197C1B4F10101BB6B68
:10235000BA6B400EB96F7E0EB86F000177EC0BF0D0
:1023600003C09AF102C099F101C098F100C097F141
:102370009AC1BAF199C1B9F198C1B8F197C1B7F151
:102380000101BE6BBD6B480EBC6F850EBB6F0001BB
:10239000DEEC0AF003C09AF102C099F101C098F195
:1023A00000C097F1D8929AC1B7F199C1B6F198C11E
:1023B000B5F197C1B4F10101BB6BBA6B480EB96FAF
:1023C000830EB86F000177EC0BF003C09AF102C0E6
:1023D00099F101C098F100C097F1010E0101056F5C
:1023E000570E046F020EF66E050EF76E070EAA6FFB
:1023F000000172EC0DF0100EE96EAAC0ABF1A9C09D
:10240000AAF186EC0DF00C0EF66E050EF76E070EB7
:102410000101AA6F000172EC0DF0C90EE96EA6C1B0
:10242000ADF1A5C1ACF1A4C1ABF1A3C1AAF1020EFB
:102430000101AE6F000106EC0EF0180EF66E050EEF
:10244000F76E0A0E0101AA6F000172EC0DF0040E86
:10245000E96E9AC1ADF199C1ACF198C1ABF197C1E8
:10246000AAF1010E0101AE6F000106EC0EF0270E7D
:10247000F66E050EF76E080E0101AA6F000172ECF0
:102480000DF0100EE96EB8C0ABF1B7C0AAF186EC42
:102490000DF0320EF66E050EF76E050E0101AA6FF5
:1024A000000172EC0DF00B0EE96EB5C0ABF1B4C0DB
:1024B000AAF186EC0DF0B6C0AAF1010E0101AB6FD6
:1024C00000018FD4400EF66E050EF76E060E010168
:1024D000AA6F000172EC0DF04C0EF66E050EF76E51
:1024E000BFDC2C0E0101B76F000162EC0DF0200E75
:1024F0000101B76F000162EC0DF0010E0101AB6F3D
:10250000570EAA6F000171EC06F0B32D0CD0010E2E
:102510000101056F570E046F520EF66E050EF76E31
:1025200000019EDC0BD0010E0101056F570E046FF8
:102530005E0EF66E050EF76E000192DC010E0101D3
:10254000AB6F570EAA6F000171EC06F02E5203E13B
:102550002D50600822E2010E0101056F570E046F35
:102560006A0EF66E050EF76E090EAA6F000172EC88
:102570000DF0100EE96E2EC0ABF12DC0AAF180DC7B
:102580002C0E0101B76F000162EC0DF0200E01016D
:10259000B76F000162EC0DF021D0010E0101056F53
:1025A000570E046F7A0EF66E050EF76E090EAA6FBF
:1025B000000172EC0DF0100EE96E2EC0ABF12DC0D3
:1025C000AAF15EDC2C0E0101B76F000162EC0DF088
:1025D000200E0101B76F000162EC0DF0010E010148
:1025E000AB6F570EAA6F000171EC06F082A00CD001
:1025F000010E0101056F570E046F8A0EF66E050E6F
:10260000F76E00012DDC0BD0010E0101056F570E96
:10261000046F9C0EF66E050EF76E000121DC010EB4
:102620000101AB6F570EAA6F000171EC06F00101BA
:10263000022D0CD0010E056F570E046FB20EF66E10
:10264000050EF76E00010CDC0ED0010102530CE107
:10265000010E056F570E046FC40EF66E050EF76E71
:10266000000130EC0FF00101010EAB6F570EAA6FA5
:10267000000171EC06F0AB2D0FD0AC530DE1010E53
:102680000101056F570E046FD40EF66E050EF76E3E
:10269000000130EC0FF00CD0010E0101056F570E58
:1026A000046FE60EF66E050EF76E000130EC0FF0CB
:1026B000010E0101AB6F570EAA6F000171EC06F01D
:1026C000010103530DE0010E056F570E046FF80E64
:1026D000F66E050EF76E000130EC0FF00CD0010124
:1026E000010E056F570E046F080EF66E060EF76E9C
:1026F000000130EC0FF0010E0101AB6F570EAA6F15
:10270000000171EC06F0010E0101056F570E046F18
:10271000180EF66E060EF76E000130EC0FF0010E8B
:102720000101AB6F570EAA6F000171EC06F085EF47
:1027300019F0000E016EC250830B0110C26E04002E
:10274000190E006E002EFED700D00000C282C2B269
:10275000FED7C4CF92F10101C3CF91F1200E016EDB
:10276000C250830B0110C26E0400190E006E002EC1
:10277000FED700D00000C282C2B2FED7C3CF93F111
:10278000C4CF94F192C1B3F191C1B2F10001C3EC95
:102790000AF003C0A0F102C09FF101C09EF100C089
:1027A0009DF103C0B1F102C0B0F101C0AFF100C0B2
:1027B000AEF10101B56BB46BB36B890EB26F000162
:1027C000B3EC0CF003C0A0F102C09FF101C09EF178
:1027D00000C09DF103C0BAF102C0B9F101C0B8F167
:1027E00000C0B7F1330E0101BE6FBD6F530EBC6F59
:1027F000800EBB6F0001DEEC0AF003C098F102C04E
:1028000097F101C096F100C095F194C1B3F193C165
:10281000B2F1C3EC0AF003C0A0F102C09FF101C005
:102820009EF100C09DF103C0B1F102C0B0F101C042
:10283000AFF100C0AEF10101B56BB46BB36B890EA3
:10284000B26F0001B3EC0CF003C0A0F102C09FF125
:1028500001C09EF100C09DF103C0BAF102C0B9F100
:1028600001C0B8F100C0B7F1330E0101BE6FBD6FFA
:10287000110EBC6F840EBB6F0001DEEC0AF003C0CA
:102880009CF102C09BF101C09AF100C099F1010EC8
:102890000101056F510E046FC60EF66E040EF76E41
:1028A000100EAA6F000172EC0DF0010EE96E98C1D6
:1028B000ADF197C1ACF196C1ABF195C1AAF101019F
:1028C000AE6F000106EC0EF0DB0EF66E040EF76E36
:1028D000110E0101AA6F000172EC0DF0010EE96EFC
:1028E0009CC1ADF19BC1ACF19AC1ABF199C1AAF108
:1028F0000101AE6F000106EC0EF0F10EF66E040E53
:10290000F76E030E0101AA6F000172EC0DF0010ECB
:102910000101AB6F510EAA6F000171EC06F0140EAD
:10292000016EC250830B0110C26E0400190E006EBE
:10293000002EFED700D00000C282C2B2FED7C4CFA4
:102940009EF10101C3CF9DF1010E056F510E046F81
:10295000F60EF66E040EF76E070EAA6F000172EC0B
:102960000DF0100EE96E9EC1ABF19DC1AAF186EC8F
:102970000DF0010E0101AB6F510EAA6F000171EC59
:1029800006F085EF19F00900F5520DE0F6CF51F190
:10299000F7CF52F1F550A4A8FED7736E51C1F6FFE0
:1029A00052C1F7FFF0D782EF19F0020E01013A6F22
:1029B0000001FF6B8AEC08F002C052F101C051F136
:1029C0000101525303E15151600808E2525306E1FC
:1029D00051517A0803E35151DF0B01D05151480A9C
:1029E00000012FE0770A2DE0790A31E0090AD8B416
:1029F00098D01B0AD8B404D1160AD8B457D1120AF9
:102A0000D8B4C4D11C0AD8B41ED20D0AD8B48DD201
:102A1000120AD8B4BAD2620AD8B405EF19F0030A80
:102A2000D8B43BEF19F0010AD8B46FEF19F0620A7D
:102A3000D8B476EF19F0030AD8B479EF19F07CEF27
:102A400019F098EF08F0000E016E87EF19F03FEFD4
:102A50000AF00101406B3F6B02C03EF101C03DF145
:102A600040530AE13F5308E13E5115083AE2FF0A9C
:102A700003E13D51110835E2405333E13F5331E169
:102A80003E5116082EE303E13D51DA082AE33EC128
:102A9000AAF03DC1A9F040C16AF13FC169F13EC150
:102AA00068F13DC167F16E6B6D6B6C6B0A0E6B6FFD
:102AB00000018AEC04F001C052F100C051F101C0E4
:102AC00056F100C055F101EC05F0CCEC05F00B0E11
:102AD000EA6F9F0EE96F84EC0AF044EC06F01FD019
:102AE0000101010EEA6E470EE96EF2CF51F1F29E3E
:102AF0000A0E016EF76A000E0001ADEC01F00A004B
:102B00000900F5CFEEFF012EFBD7010151BFF28E78
:102B1000010EAB6F470EAA6F000171EC06F085EF56
:102B200019F08AEC08F002C052F101C051F1010124
:102B3000525303E15151600808E2525306E15151EA
:102B40007A0803E35151DF0B01D051514E0838E1AF
:102B50000001DEEC09F001C03BF101013B5101082D
:102B60000FE33B5307E0010E016F0001CCEC05F0D1
:102B700005D00101016B000198EF0AF01FD001019F
:102B8000010EEA6E470EE96EF2CF51F1F29E0A0E87
:102B9000016EF76A000E0001ADEC01F00A000900B9
:102BA000F5CFEEFF012EFBD7010151BFF28E010ED2
:102BB000AB6F470EAA6F000171EC06F01FD0010148
:102BC000010EEA6E470EE96EF2CF51F1F29E0A0E47
:102BD000016EF76A000E0001ADEC01F00A00090079
:102BE000F5CFEEFF012EFBD7010151BFF28E010E92
:102BF000AB6F470EAA6F000171EC06F085EF19F07C
:102C00008AEC08F002C052F101C051F101015253A7
:102C100003E15151600808E2525306E151517A082C
:102C200003E35151DF0B01D05151520820E1010E55
:102C3000EA6E470EE96EF2CF51F1F29E070E016E79
:102C4000F76A000E0001BFEC01F00A000900F5CFA1
:102C5000EEFF012EFBD7010151BFF28E010EAB6FCB
:102C6000470EAA6F000171EC06F01FD00101010EA2
:102C7000EA6E470EE96EF2CF51F1F29E0A0E016E36
:102C8000F76A000E0001ADEC01F00A000900F5CF73
:102C9000EEFF012EFBD7010151BFF28E010EAB6F8B
:102CA000470EAA6F000171EC06F02FD38AEC08F0F2
:102CB00002C052F101C051F10101525303E15151DF
:102CC000600808E2525306E151517A0803E351517A
:102CD000DF0B01D051514D0838E10001DEEC09F065
:102CE00001C03BF101013B5101080FE33B5309E0F7
:102CF000306A010E2F6E2E6A2D6A026F8C86A38AAF
:102D000003D0026B8C96A39A1FD0010EEA6E470E79
:102D1000E96EF2CF51F1F29E0A0E016EF76A000ED3
:102D20000001ADEC01F00A000900F5CFEEFF012E25
:102D3000FBD7010151BFF28E010EAB6F470EAA6F98
:102D4000000171EC06F001011FD0010EEA6E470E82
:102D5000E96EF2CF51F1F29E0A0E016EF76A000E93
:102D60000001ADEC01F00A000900F5CFEEFF012EE5
:102D7000FBD7010151BFF28E010EAB6F470EAA6F58
:102D8000000171EC06F001010001BFD2A6EC09F0D0
:102D900002C052F101C051F10101525303E15151FE
:102DA000600808E2525306E151517A0803E3515199
:102DB000DF0B01D0515153083CE100018AEC08F0CF
:102DC000DEEC09F001C03BF101013B51010811E3C8
:102DD0003B5303E0010E006F01D0006B00C1A8F06F
:102DE0000B0E0001EA6F9F0EE96F84EC0AF01FD012
:102DF0000101010EEA6E470EE96EF2CF51F1F29E2B
:102E00000A0E016EF76A000E0001ADEC01F00A0037
:102E10000900F5CFEEFF012EFBD7010151BFF28E65
:102E2000010EAB6F470EAA6F000171EC06F004D0E3
:102E300001010001ACEF0AF00B0EEA6F9F0EE96F83
:102E400084EC0AF062D28AEC08F002C052F101C0B0
:102E500051F10101525303E15151600808E252530C
:102E600006E151517A0803E35151DF0B01D0515172
:102E700044083CE10001DEEC09F001C03BF1010136
:102E80003B51010813E33B5306E0010E0001B36F11
:102E90008A8604D001010001B36B8A960B0EEA6F9B
:102EA0009F0EE96F84EC0AF01FD00101010EEA6E5B
:102EB000470EE96EF2CF51F1F29E0A0E016EF76AEB
:102EC000000E0001ADEC01F00A000900F5CFEEFFA5
:102ED000012EFBD7010151BFF28E010EAB6F470EE1
:102EE000AA6F000171EC06F01FD00101010EEA6E1D
:102EF000470EE96EF2CF51F1F29E0A0E016EF76AAB
:102F0000000E0001ADEC01F00A000900F5CFEEFF64
:102F1000012EFBD7010151BFF28E010EAB6F470EA0
:102F2000AA6F000171EC06F0F0D1DEEC09F001C0EF
:102F30003BF101013B51010807E33B5303E0010E64
:102F4000036F01D0036B1FD0010EEA6E470EE96ECE
:102F5000F2CF51F1F29E0A0E016EF76A000E0001E7
:102F6000ADEC01F00A000900F5CFEEFF012EFBD712
:102F7000010151BFF28E010EAB6F470EAA6F000127
:102F800071EC06F001010001C0D186EC09F08AEC79
:102F900008F001C03BF1DEEC09F001C03CF1DEECD1
:102FA00009F002C042F101C041F101013B5160084A
:102FB00006E23B517A0803E33B51DF0B01D03B5162
:102FC0004D0A000109E00B0A64E0070AD8B4B7D043
:102FD000170AD8B411D118D101013C51010838E3C6
:102FE00042C1B3F141C1B2F10001C3EC0AF003C028
:102FF000BAF102C0B9F101C0B8F100C0B7F1170EC3
:103000000101BE6FB70EBD6F510EBC6F7C0EBB6F62
:103010000001DEEC0AF003C054F102C053F101C01C
:1030200052F100C051F159EC0BF002C042F101C065
:1030300041F1D89001013C35036AAD0FE96E000EF5
:103040000320EA6E42C1ECFFED5241C1EFFF1FD0F9
:10305000010EEA6E470EE96EF2CF51F1F29E0A0EB2
:10306000016EF76A000E0001ADEC01F00A000900E4
:10307000F5CFEEFF012EFBD7010151BFF28E010EFD
:10308000AB6F470EAA6F000171EC06F00101000161
:10309000BBD001013C510B0831E33C51040DF3500E
:1030A000036AB90FE96E000E0320EA6E42C1ECFF1D
:1030B000ED5241C1EFFF0001DEEC09F002C042F128
:1030C00001C041F101013C51040DF350036A110F9D
:1030D000516F000E0320526F020E5125016E000E3B
:1030E0005221036E0150A80FE96E000E0320EA6E14
:1030F00042C1ECFFED5241C1EFFF1FD0010EEA6E5D
:10310000470EE96EF2CF51F1F29E0A0E016EF76A98
:10311000000E0001ADEC01F00A000900F5CFEEFF52
:10312000012EFBD7010151BFF28E010EAB6F470E8E
:10313000AA6F000171EC06F00101000165D00101E8
:103140003C51010838E342C1B3F141C1B2F1000181
:10315000C3EC0AF003C0BAF102C0B9F101C0B8F182
:1031600000C0B7F1A40E0101BE6FDF0EBD6F1E0ED1
:10317000BC6F7D0EBB6F0001DEEC0AF003C054F1A2
:1031800002C053F101C052F100C051F159EC0BF0F3
:1031900002C042F101C041F1D89001013C35036AFF
:1031A000E50FE96E000E0320EA6E42C1ECFFED521E
:1031B00041C1EFFF1FD0010EEA6E470EE96EF2CF5C
:1031C00051F1F29E0A0E016EF76A000E0001ADEC9D
:1031D00001F00A000900F5CFEEFF012EFBD7010137
:1031E00051BFF28E010EAB6F470EAA6F000171EC5A
:1031F00006F00101000108D00B0EEA6F9F0EE96F87
:1032000084EC0AF044EC06F080D0DEEC09F002C059
:1032100044F101C043F10101435302E144530AE088
:10322000445308E14351630805E344C1B5F043C189
:10323000B4F01FD0010EEA6E470EE96EF2CF51F1E5
:10324000F29E0A0E016EF76A000E0001ADEC01F06D
:103250000A000900F5CFEEFF012EFBD7010151BF97
:10326000F28E010EAB6F470EAA6F000171EC06F0F3
:10327000010100014AD0DEEC09F002C046F101C0B4
:1032800045F10101455302E1465308E0465306E18A
:103290004551390803E345C1B6F01FD0010EEA6E6F
:1032A000470EE96EF2CF51F1F29E0A0E016EF76AF7
:1032B000000E0001ADEC01F00A000900F5CFEEFFB1
:1032C000012EFBD7010151BFF28E010EAB6F470EED
:1032D000AA6F000171EC06F00101000116D0DEECCE
:1032E00009F002C0B8F001C0B7F00FD0BAEF0FF08C
:1032F0000CD099EF13F009D02A0EF66E060EF76E79
:10330000C3EF14F0000E016E02D0000E016EEEEF5E
:1033100019F05450FC0FD8B0C8D0040F57EF1AF072
:10332000556A542AC2D0315232E074EC08F00101DF
:10333000196B01C018F1185119112AE0185124080D
:1033400008E1195306E1542A0001A76BA66B1FD0B0
:103350000101010EEA6E1C0EE96EF2CF3AF1F29E07
:103360000B0E016EF76A000E0001D0EC01F00A00AE
:103370000900F5CFEEFF012EFBD701013ABFF28E17
:10338000010EAB6F1C0EAA6F000171EC06F001017B
:1033900000018BD03152D8B471D0A76BA66B74ECFE
:1033A00008F00101196B01C018F15550552A036A44
:1033B000560FE96E000E0320EA6E18C1EFFF55505C
:1033C000460804E2546A000170D0010118510D084A
:1033D00031E119532FE10001D5EF14F001011B6B0E
:1033E00001C01AF11A3D02D01B531FE0010EEA6E14
:1033F000270EE96EF2CF3AF1F29E080E016EF76ADF
:10340000000E0001E3EC01F00A000900F5CFEEFF29
:10341000012EFBD701013ABFF28E010EAB6F270ED2
:10342000AA6F000171EC06F0010100012DEC03F020
:1034300025D0010118511B0822E1195320E1010E8A
:10344000EA6E2F0EE96EF2CF3AF1F29E0B0E016E8C
:10345000F76A000E0001F4EC01F00A000900F5CF54
:10346000EEFF012EFBD701013ABFF28E010EAB6FCA
:103470002F0EAA6F000171EC06F0546A010154503E
:10348000010811E21EA20FD01E920001A62BD8B493
:10349000A72BA751260806E2FF0A03E1A651100850
:1034A00001E2546A0101000100D070EF1AF0F2CF7E
:1034B0000DF0F29EE824F76AF736D30FF66E340E5D
:1034C000F7220A00F550FA6E0800F5500DBEF28E94
:1034D000F96E203326339433AA3461EF08F019D7FC
:1034E0001EEF1BF0F86AD09E078E700ED36E9B9C69
:1034F0009B9EB896190EAF6EA60EAC6E900EAB6E7C
:103500007096190E756EA60E726E900E716E226A0E
:10351000216A2C6A2B6A2E6A2D6AEA6BE96BA8C0B5
:1035200000F1010E0101016F026B036B056B046B6F
:10353000C150F00BC16E000E0F01386F3C6F396F38
:103540003A6F3B6F0101886B776A786A796A030E7C
:10355000076FE80E066F096B010E086F000135EF6B
:1035600003F0A2EF03F0176A0A0E166E27EF04F0BD
:1035700044EC06F00D0E01010A6F0A0E0B6F0C6B86
:10358000010EAB6F0A0EAA6F000171EC06F0010E7E
:10359000EA6E0A0EE96EF2CF18F1F29E0E0E016E7F
:1035A000F76A000E07EC02F00A000900F5CFEEFF03
:1035B000012EFBD7010118BFF28E010EAB6F0A0E70
:1035C000AA6F000171EC06F00D0E01010A6F0A0EE0
:1035D0000B6F0C6B010EAB6F0A0EAA6F000171EC42
:1035E00006F00A0E01011E6F00010FEC04F08C962C
:1035F0000101026B8C908C828C841EA015D01E90D1
:103600000851091106E0096B086B000144EC06F053
:1036100001010001AB51AC1102E08A8801D08A7827
:10362000040000D000000101022D04D00001BBEF16
:1036300006F001010001F9EF07F04FD70101DDD7D6
:08364000076B010E066FFFD7B6
:020000040030CA
:0E00000000F8191C00BF00000FC00FE00F40F9
:00000001FF
;PIC18F45K22
;CRC=8594  CREATED="10-Jul-18 12:24"
