:040000008EEF18F077
:08000800046ED8CF05F0E0CF33
:1000100006F00001E9CF0CF0EACF07F0E1CF08F0DD
:10002000E2CF09F0D9CF0AF0DACF0BF0F3CF12F01C
:10003000F4CF13F0FACF14F000C00EF001C00FF0AF
:1000400002C010F003C011F09DA22AEF00F09EB292
:100050001EEF02F0F2A830EF00F0F2B236EF02F03D
:10006000F0A636EF00F0F0B039EF02F09DAA3CEFB9
:1000700000F09EBA3CEF02F0A3AA42EF00F0A4BA4F
:1000800053EF02F07DA048EF00F07EB01BEF02F0CE
:100090000EC000F00FC001F010C002F011C003F05C
:1000A0000CC0E9FF07C0EAFF078E08C0E1FF09C0E6
:1000B000E2FF0AC0D9FF0BC0DAFF12C0F3FF13C082
:1000C000F4FF14C0FAFF045006C0E0FF05C0D8FFDB
:1000D0001000F2CF0DF0F29EF76AEC0FF66E000EF4
:1000E000F7220900F5500DBEF28E12000000DC0070
:1000F00091810008C25E0018B30400003C00950026
:1001000000004000F2CF0DF0F29EF76A1E0FF66E6F
:10011000010EF7220900F5500DBEF28E12002446A2
:10012000203C6672657175656E63793E3C63723E14
:10013000202009536574206672657175656E637958
:1001400020696E20314D487A20696E6372656D6555
:100150006E74732028692E652E353137332069730C
:1001600020352E31373347487A290D0A0000F2CF67
:100170000DF0F29EF76A880FF66E010EF722090065
:10018000F5500DBEF28E1200244F4E203C6F6E6F64
:1001900066663E3C63723E20200953657420504CD5
:1001A0004C205246204F5554206F6E283129206F25
:1001B00072206F66662830290D0A0000F2CF0DF01C
:1001C000F29EF76AD60FF66E010EF7220900F5507F
:1001D0000DBEF28E1200245053203C706F77657272
:1001E0003E3C63723E20200953657420616D70208F
:1001F000706F776572206F6E283129206F72206FC3
:1002000066662830290D0A00F2CF0DF0F29EF76ADB
:10021000220FF66E020EF7220900F5500DBEF28E87
:1002200012002450203C6C6576656C3E3C63723E47
:1002300020200953657420706F776572206C657695
:10024000656C2068696768283129206F72206C6F9F
:10025000772830290D0A0000F2CF0DF0F29EF76AE0
:10026000720FF66E020EF7220900F5500DBEF28EE7
:100270001200244C44203C6677643E3C63723E206E
:1002800020095365742046776420706F776572206B
:100290006D6561737572656D656E74206F6E283162
:1002A00029206F72206F66662830290D0A00F2CF70
:1002B0000DF0F29EF76AC80FF66E020EF7220900E3
:1002C000F5500DBEF28E120024513C63723E202088
:1002D0000952657175657374207374617475730D5B
:1002E0000A00F2CF0DF0F29EF76AFC0FF66E020ED6
:1002F000F7220900F5500DBEF28E120024424D3C4B
:1003000063723E202009424954204D6F6465204F9E
:100310004E283129204F46462830290D0A00F2CFB9
:100320000DF0F29EF76A380FF66E030EF722090001
:10033000F5500DBEF28E12002454523C63723E20E2
:1003400020095452414E53495645522854292052AF
:1003500045434956455228522900F2CF0DF0F29EEE
:10036000F76A740FF66E030EF7220900F5500DBE02
:10037000F28E12000D0A244641494C0D0A00F2CFBC
:100380000DF0F29EF76A980FF66E030EF722090041
:10039000F5500DBEF28E12000D0A24520D0A000017
:1003A000F2CF0DF0F29EF76ABA0FF66E030EF72247
:1003B0000900F5500DBEF28E12000D0A244641557B
:1003C0004C540D0A0000F2CF0DF0F29EF76AE00FD8
:1003D000F66E030EF7220900F5500DBEF28E1200E4
:1003E0000D0A244F4B0D0A00F2CF0DF0F29EF76A72
:1003F000020FF66E040EF7220900F5500DBEF28EC4
:1004000012000D0A24425245414B0D0A0000F2CF62
:100410000DF0F29EF76A280FF66E040EF72209001F
:10042000F5500DBEF28E1200424131353333525831
:100430002056312E30007E9048EF00F01A681B2ABB
:100440001C2A1C5009080FE21C6A1D2A1E681F2A5C
:100450001F50090808E21F6A2068212A2150090854
:1004600002E2216A22689E9248EF00F0F29248EF81
:1004700000F0F09048EF00F0AECFD6F1036A3150B3
:10048000330FE96E000E0320EA6ED6C1EFFF312A6A
:1004900031501F0801E2316A30501F0801E3302A51
:1004A0009E9A48EF00F0745203E02F6A74CF2EF04A
:1004B000A49A48EF00F00D0A465245513D256C754F
:1004C0002C20525353493D256C7564424D2C2054C9
:1004D000454D503D25352E31662863292C20494451
:1004E0003D256C752C2044433D2530326C752530FC
:1004F00032752C2056455220256C732C2000563125
:100500002E3000004C494748543D4F4E2C200000EF
:100510004C494748543D4F46462C200050415353C8
:10052000204269743D256C6420004641494C2042BC
:1005300069743D256C64200053594E5448204C4F3B
:10054000434B3D4C4F434B2C200053594E544820B5
:100550004C4F434B3D4E4F54204C4F434B2C2000AF
:10056000424954204D4F44453D53544152542C2050
:100570000000424954204D4F44453D53544F502CA8
:100580002000504F574552204D4F44453D48494764
:10059000482C2000504F574552204D4F44453D4C6C
:1005A0004F572C2000004155544F5F504F57455234
:1005B0003D312C2000004155544F5F504F5745525C
:1005C0003D302C2000000D0A244641494C0D0A0004
:1005D000896A8A6A8B6A8C6A8D6AC10E926EC40EB1
:1005E000936E810E946E800E956E968096829684A0
:1005F000968618EF03F0306A30C032F032C031F026
:10060000536A9D8A1200480E0509BA6E630EBB6ECE
:10061000B46AB16A000E05090F01516F630E526F83
:100620004D6B4E6B000E4A6F000E4B6F0001D0D722
:10063000C150F00BC16E010E0F01386F070E3C6FF9
:10064000040E396F000E3A6F3B6FC050C00B250986
:10065000C06EC08EC280776A040E786E796E00011B
:10066000CADFA39A9D82C00EF212CEEF18F00101EC
:1006700020C103F01F51D8B420071F0703101FE04B
:100680001E51036E1D511D2BD8B41E2BE96E03C0E5
:10069000EAFF1C51036E1B511B2BD8B41C2B236F7C
:1006A00003C024F1F2CF25F1F29E23C1A9FFA69C3D
:1006B000A69EA680A85025BFF28EEF6ED9D7000166
:1006C0007BEF03F0016603D0026602D007D0022A56
:1006D00000C0EEFF012EFCD7022EFAD78CEF03F0FC
:1006E00001011C6B1B6B1E6BA70E1D6F206B3F0E59
:1006F0001F6F0001BCD7A83D03D0A93D01D004D095
:10070000AA3D0AD0AB5308E1EA6AA70EE96E006A77
:10071000026A3F0E016ED6D7D0EF18F0080E010125
:100720007E6F7E531EE07DAF02D08B8601D08B960C
:1007300004000C0E006E002EFED700D08B84040047
:100740000C0E006E002EFED700D08B940400200EFD
:10075000006E002EFED700D07E517E07D8907D37E8
:10076000E0D78B968B94000112000400F29CF29E5D
:10077000F2BEFDD77BC17CF17BC17DF1CFDF7AC1B9
:100780007CF17AC17DF1CADF79C17CF179C17DF15B
:10079000C5DF78C17CF178C17DF1C0DF0400340E83
:1007A000006E002EFED700D08B820400050E006E76
:1007B000002EFED700D000008B928B96C00EF21256
:1007C00004001200010EEA6E210EE96EEF5011E0F6
:1007D000050E016EBF0E006E0400002EFDD7012E27
:1007E000F9D72E0E006E002EFED700000400EF2E6B
:1007F000EFD712000101206B050E1F6F2051050875
:1008000036E31F51040DF350036AF2CF21F1F29E3B
:1008100000015FDC0900F5CF01F00900F5CF02F01F
:100820000900F5CF03F0010121BFF28E03C01EF1D4
:1008300002C01DF101C01CF11B6F016A026A036A4C
:100840001F511B1301501C1302501D1303501E1384
:100850001EC17BF11DC17AF11CC179F11BC178F178
:10086000000183DF01012051202B1F07C7D7C80ECD
:10087000216F0001A7DF1EC17BF11DC17AF11CC1F0
:1008800079F11BC178F171DFC80E0101216F000100
:1008900099DFE5EF18F0010174517603F3CF01F011
:1008A000F4CF00F07703F350002675517603F35030
:1008B0000020026E000125EF06F00101906B916BA4
:1008C000010E926FDA6AD96A956F880E946F010EE5
:1008D000EA6E8C0EE96E95C1E2FF94C1E1FF92C110
:1008E00093F1D890E550EE02F3509023F450912309
:1008F000932FF7D790C1DEFF91C190F1916BD8B0E3
:10090000912B942BD8B4952B922B92510508DFE1B3
:1009100000011200D8B204D0010EEA6ED10EE96EC9
:10092000006A016A026A036A0101D16BD26BD36B60
:10093000D46BD051CF11CE11CD112CE0200ED56F3C
:10094000D890C937CA37CB37CC37D137D237D3371E
:10095000D437D051D45D08E1CF51D35D05E1CE51FC
:10096000D25D02E1CD51D15D0FE3CD51D15FCE51CA
:10097000D8A0CE3DD25FCF51D8A0CF3DD35FD051CC
:10098000D8A0D03DD45FD880003601360236033679
:10099000D52FD6D7D1C1EFFFD2C1ECFFD3C1ECFF29
:1009A000D4C1ECFF000112000101836B826B816BEB
:1009B000010E806F0400C00E765D7C6F120E7759B9
:1009C0007D6F7E6B7F6BD8907F337E337D337C333E
:1009D0000001FB6B850EFA6FF96B3C0EF86F04009B
:1009E0007FC18BF17EC18AF17DC189F17CC188F123
:1009F00083C18FF182C18EF181C18DF180C18CF1F3
:100A00005CDF03C087F102C086F101C085F100C040
:100A100084F103C08BF102C08AF101C089F100C0EA
:100A200088F101018F6B8E6B8D6B640E8C6F0001F2
:100A300044DF03C07FF102C07EF101C07DF100C040
:100A40007CF10400D8927FC1CCF17EC1CBF17DC195
:100A5000CAF17CC1C9F10101D06BCF6B270ECE6FFB
:100A6000100ECD6F000156DF03C0EBF002C0EAF0BC
:100A700001C0E9F000C0E8F00400EBC08BF1EAC06F
:100A80008AF1E9C089F1E8C088F101018F6B8E6BB2
:100A9000270E8D6F100E8C6F00010FDF00500101CB
:100AA0007C5D846F01507D59856F02507E59866F41
:100AB00003507F59876F8B6B8A6B896B640E886FCD
:100AC00083C18FF182C18EF181C18DF180C18CF122
:100AD0000001F3DE03C08BF102C08AF101C089F18D
:100AE00000C088F1D89287C1CCF186C1CBF185C115
:100AF000CAF184C1C9F103C0D0F102C0CFF101C075
:100B0000CEF100C0CDF106DF03C0EFF002C0EEF081
:100B100001C0EDF000C0ECF0080EF36FF26B030EB5
:100B2000F16F210EF06F0400010E01017827D8B09B
:100B3000792BD8B47A2BD8B47B2B00011200010199
:100B4000796B0001E83501017A6F0001E935010197
:100B50007B6F0001EA3501017C6F7A377B377C3788
:100B60007A377B377C377A377B377C377A377B37F6
:100B70007C377A377B377C377A377B377C37800E08
:100B80007A170001EC35006EED35016EEE35026E20
:100B9000EF35036E00360136023603360036013675
:100BA00002360336F80E0016005001017925746FE5
:100BB00001507A21756F02507B21766F03507C21A2
:100BC000776F77C1F7F076C1F6F075C1F5F074C1B3
:100BD000F4F0040077C17BF176C17AF175C179F147
:100BE00074C178F10001C1DD0400190E006E002E01
:100BF000FED700D000000400F3C07BF1F2C07AF110
:100C0000F1C079F1F0C078F1B0DD0400190E006E8A
:100C1000002EFED700D000000400FBC07BF1FAC01C
:100C20007AF1F9C079F1F8C078F19FDD1200A9C01E
:100C300073F1A8C072F173C175F172C174F1010151
:100C4000776B0A0E766F000126D602C075F101C0DF
:100C500074F102C077F101C076F1A6DE70DF030EF9
:100C6000196EE80E186E1200040E0101C95F0AE346
:100C7000010EEA6EC90EE96EEF5004E001D00400E7
:100C8000EF2EFDD7000112009D9A0101C66BC4C171
:100C900003F0C3C1E9FFC4C1EAFFEF523AE0C4C1A7
:100CA00003F0C351C32BD8B4C42BE96E03C0EAFFD1
:100CB000EFCFC5F1C551090810E0C5C1ADFFC62B86
:100CC00004000D0EC86F160EC96F0001CDDF0101C3
:100CD000C82FF9D7AECFC5F11BD0200EC76FC751B3
:100CE000C65D03E3020EC625C76FC751C65D10E29D
:100CF000200EAD6EC62B04000D0EC86F160EC96F08
:100D00000001B2DF0101C82FF9D7AECFC5F1EDD791
:100D1000BED7AECFC5F19D8A0001120089940101B2
:100D20001D5302E0898801D0899889860400130E3A
:100D3000006E002EFED7000089960400130E006E90
:100D4000002EFED70000899889860400130E006EDD
:100D5000002EFED7000089960400130E006E002EB0
:100D6000FED7000089860400130E006E002EFED709
:100D7000000089960400130E006E002EFED70000BE
:100D800089860400130E006E002EFED7000089969F
:100D90000400130E006E002EFED700008986000BA3
:100DA000006E1F51020B036E0050031002E0898891
:100DB00001D089980400130E006E002EFED70000AB
:100DC00089960400130E006E002EFED7000089865F
:100DD000000B006E1F51010B036E0050031002E068
:100DE000898801D089980400130E006E002EFED76A
:100DF000000089960400130E006E002EFED700003E
:100E000089861E51800B006E036A0050031002E0B9
:100E1000898801D089980400130E006E002EFED739
:100E2000000089960400130E006E002EFED700000D
:100E300089861E51400B006E036A0050031002E0C9
:100E4000898801D089980400130E006E002EFED709
:100E5000000089960400130E006E002EFED70000DD
:100E600089861E51200B006E036A0050031002E0B9
:100E7000898801D089980400130E006E002EFED7D9
:100E8000000089960400130E006E002EFED70000AD
:100E900089861E51100B006E036A0050031002E099
:100EA000898801D089980400130E006E002EFED7A9
:100EB000000089960400130E006E002EFED700007D
:100EC00089861E51080B006E036A0050031002E071
:100ED000898801D089980400130E006E002EFED779
:100EE000000089960400130E006E002EFED700004D
:100EF00089861E51040B006E036A0050031002E045
:100F0000898801D089980400130E006E002EFED748
:100F1000000089960400130E006E002EFED700001C
:100F200089861E51020B006E036A0050031002E016
:100F3000898801D089980400130E006E002EFED718
:100F4000000089960400130E006E002EFED70000EC
:100F500089861E51010B006E036A0050031002E0E7
:100F6000898801D089980400130E006E002EFED7E8
:100F7000000089960400130E006E002EFED70000BC
:100F800089860400130E006E002EFED7000089969D
:100F90000400130E006E002EFED7000089860400A8
:100FA000130E006E002EFED7000089960400130E6B
:100FB000006E002EFED7000089840400130E006E20
:100FC000002EFED7000089920400130E006E002E42
:100FD000FED7000089820400130E006E002EFED79B
:100FE00000000001120022A60ED022960101022B61
:100FF000D8B4032B035303E102510A0804E2036B44
:10100000026B8C96006B00014FEF19F0FE5302E06B
:101010008C8401D08C94AA51AB110AE0010E01011D
:101020001D6FAFC01FF1AEC01EF1000177DE09D009
:10103000010E01011D6FADC01FF1ACC01EF100011A
:101040006DDE1C0E016EC250830B0110C26E0400D7
:10105000190E006E002EFED700D00000C282C2B270
:10106000FED7C4CF1CF10101C3CF1BF11C5303E118
:101070001B51640803E28C808C9202D08C908C828D
:1010800001530FE01C5303E11B51640806E2000109
:10109000AB6B010EAA6F04D001010001AB6BAA6B10
:1010A000010120A68FD02096140E016EC250830B32
:1010B0000110C26E0400190E006E002EFED700D083
:1010C0000000C282C2B2FED7C3CF1BF1C4CF1CF155
:1010D000D8902C34026E2D34036E0250240FE96E2A
:1010E000000E0320EA6E1CC1ECFFED521BC1EFFFA6
:1010F0002C2AD8B42D2A2D5203E12C50030802E2E9
:101100002D6A2C6A265024241D6F275025201E6F1F
:1011100028501D2729501E232A501D272B501E23DF
:101120001E311C6F1D311B6F1C331B333F0E1C17F0
:101130001C510001C35D11E308E1C25101011B5DB7
:10114000D8A002D0000109D0000101011D6B1F6B66
:10115000010E1E6F0001E2DD34D001011C510001BF
:10116000D35D11E308E1D25101011B5DD8A002D08B
:10117000000109D0000101011D6B1F6B050E1E6FE0
:101180000001CCDD1ED001011C510001E35D11E323
:1011900008E1E25101011B5DD8A002D0000109D095
:1011A000000101011D6B1F6B300E1E6F0001B6DDCB
:1011B00008D001011D6B010E1F6FE10E1E6F0001B3
:1011C000ADDD0101000153EF19F0ABA20AD0AB92E3
:1011D000AB980400050E006E002EFED700D0000074
:1011E000AB88ABA403D0AB94AECF1BF18BEF18F060
:1011F000036A3250330FE96E000E0320EA6EEFCF20
:101200003DF1322A32501F0801E2326A305201E0C9
:10121000300601013DC101F000011200FC51FC2B20
:10122000036A550FE96E000E0320EA6E036AEFCFE2
:1012300001F003C002F012000D0E0101726F0A0EE0
:10124000736F746B010EC46F720EC36F00011CDDEF
:10125000010EEA6E720EE96EF2CFC1F1F29E4F0EF0
:10126000016EF76A000E82EC00F00A000900F5CF6B
:10127000EEFF012EFBD70101C1BFF28E010EC46F3C
:10128000720EC36F000100DD010EEA6E720EE96E90
:10129000F2CFC1F1F29E330E016EF76A000EB7EC89
:1012A00000F00A000900F5CFEEFF012EFBD7010187
:1012B000C1BFF28E010EC46F720EC36F0001E4DC79
:1012C000010EEA6E720EE96EF2CFC1F1F29E320E9D
:1012D000016EF76A000EDEEC00F00A000900F5CF9F
:1012E000EEFF012EFBD70101C1BFF28E010EC46FCC
:1012F000720EC36F0001C8DC010EEA6E720EE96E59
:10130000F2CFC1F1F29E350E016EF76A000E04ECC9
:1013100001F00A000900F5CFEEFF012EFBD7010115
:10132000C1BFF28E010EC46F720EC36F0001ACDC40
:10133000010EEA6E720EE96EF2CFC1F1F29E3C0E22
:10134000016EF76A000E2CEC01F00A000900F5CFDF
:10135000EEFF012EFBD70101C1BFF28E010EC46F5B
:10136000720EC36F000190DC010EEA6E720EE96E20
:10137000F2CFC1F1F29E1A0E016EF76A000E57EC21
:1013800001F00A000900F5CFEEFF012EFBD70101A5
:10139000C1BFF28E010EC46F720EC36F000174DC08
:1013A000010EEA6E720EE96EF2CFC1F1F29E220ECC
:1013B000016EF76A000E71EC01F00A000900F5CF2A
:1013C000EEFF012EFBD70101C1BFF28E010EC46FEB
:1013D000720EC36F000158DC010EEA6E720EE96EE8
:1013E000F2CFC1F1F29E220E016EF76A000E8FEC71
:1013F00001F00A000900F5CFEEFF012EFBD7010135
:10140000C1BFF28E010EC46F720EC36F00013CDCCF
:10141000F1EF12F0036AFC51550FE96E000E032044
:10142000EA6EEF5216E0036AFC51550FE96E000EAA
:101430000320EA6EEF502C080AE0036AFC51550FB6
:10144000E96E000E0320EA6EEF50200802E1FC2B4B
:10145000E1D71200DFDF036AFC51550FE96E000E81
:101460000320EA6E036AEFCF01F003C002F012001E
:10147000010179517B19800B7D6F79AF05D0781F01
:10148000791F782BD8B4792B7BAF05D07A1F7B1FBF
:101490007A2BD8B47B2B78517A03F3CF01F0F4CFB9
:1014A00000F07B03F350002679517A03F3500020BB
:1014B000026E7DAF05D0011E021E012AD8B4022A99
:1014C000000112000101776B010E766F0001A2DFAF
:1014D000036AFC51550FE96E000E0320EA6EEF52CD
:1014E00044E00101756B746B0001B4DF02C079F157
:1014F00001C078F1010101502D0807E1795305E1A0
:101500007769766900018ADE0101036A0001FC51F6
:10151000550FE96E000E0320EA6EEFCF78F101015E
:1015200078512F0821E2785139081EE375C179F10D
:1015300074C178F17B6B0A0E7A6F000199DF02C0EB
:1015400079F101C078F1FC51FC2B036A550FE96E6B
:10155000000E0320EA6E300EEF5C01010124746F6F
:10156000000E0220756FD1D7000175C179F174C1E9
:1015700078F177C17BF176C17AF17ADF02C003F0AE
:1015800002C002F012009EDF02C073F101C072F1CE
:10159000010172C101F073C102F00001F7EF12F016
:1015A000010177C103F07651D8B4770776070310AD
:1015B0002CE07351036E7251722BD8B4732B786F79
:1015C00003C079F17551036E7451742BD8B4752B27
:1015D000E96E03C0EAFFEFCF7AF1F250006EF29E9F
:1015E00078C1A9FF7AC1A8FFA69CA69EA6840F0178
:1015F000550EA76EAA0EA76EA682A6B2FED7A69417
:101600000050F2120001CCD70101000119EF0BF0DC
:10161000E6519F080EE1E7510B080BE10101736BE6
:10162000726B756BA70E746F776B3F0E766F000150
:10163000B7D7E76BE66B12000101756B950E746FFF
:10164000736B1C0E726F75C17BF174C17AF173C13B
:1016500079F172C178F10001B5EC03F0F2EF13F00B
:1016600031DF02C073F101C072F1010173530AE16D
:101670007251010807E373C1ABF072C1AAF0010E09
:10168000016E02D0000E016E000150EF15F08E0EBB
:10169000006EBDC101F0BCC102F0036A015209E154
:1016A00002C001F0026A080E005E015202E1006A07
:1016B00008D0D89001BE04D0023601360006F9D712
:1016C000019E53EF10F00101C051D8B4A5D0CC6FEA
:1016D000C451D8B4A1D0CC5F05E37F0ECC27D8B0DD
:1016E0009BD006D0810ECC5FD8A096D0D8B494D031
:1016F000CCC100F0016A026A036ACB6BC1C1CAF1B6
:10170000CA8FC2C1C9F1C3C1C8F1190ECC6FC7518C
:10171000C85F0DE2010EC95F0AE2CA5F08E2CB5F53
:1017200006E2CB2BCA2BC92BC751C82728D0C651DC
:10173000C95F12E2010ECA5F0FE2CB5F0DE2CB2B55
:10174000CA2BC651C927C751C82719E3C92B17E1AE
:10175000CA2B15E1CB2B13D0C5518009CA5F0EE20D
:10176000010ECB5F0BE2CB2BC5518009CA27C651B6
:10177000C927E9E3CA2BE7E1CB2BE5D70380CC2FC0
:1017800001D00BD0D890C837C937CA37CB37D890DB
:10179000033602360136CD37BAD7CDA106D0D89060
:1017A000013202320332CD3302D0000635E0CDBF24
:1017B0001ED0D890C837C937CA37CB37C751C85F92
:1017C00007E2010EC95F04E2CA5F02E2CB5F1AE3DF
:1017D000C651C95F05E2010ECA5F02E2CB5F12E3A8
:1017E000C5518009CA5F03E2010ECB5F0BE3032AF8
:1017F00009E1022A07E1012A05E1002A0DE0013290
:1018000002320332C1C1CCF1C551CC1BCCAF02D0E6
:10181000018E06D0019E04D0006A016A026A036A42
:1018200000016CEF10F00101C951D8B471D0006E05
:10183000CD51D8B46DD0002604E3810E002668E2B5
:1018400004D07F0E005E64E363E0CAC1D1F1CE51E3
:10185000D11BCA8FCE8FCC51D003F4CFD3F1CB5153
:10186000CF03F4CF03F0F3CFD2F1D003F350D3275B
:10187000F450D223000E0322CC51CF03F350D327D0
:10188000F450D223000E026A03220222CA51D0036E
:10189000F350D227F4500322000E0222CA51CF0384
:1018A000F3500326F4500222000E016A0122CC51AB
:1018B000CE03F350D227F4500322000E022201225D
:1018C000CB51CE03F3500326F4500222000E012226
:1018D000CA51CE03F3500226F4500122002A01BE61
:1018E00005D0D2370336023601360006000ED2AFDD
:1018F0000AD0032A02220122015005E1025003E12D
:10190000035001E1002AD1BF018ED1AF019E04D066
:10191000006A016A026A036A00011200800ED8A2FE
:1019200002D00101C11B0101C66BC76BBDC1C5F16E
:10193000C151C51BBC51D8B4DFD0C46F006EC051BB
:10194000D8B4E3D0C45FD8B483D03EE3C1C1CAF1F8
:10195000CA8FC2C1C9F1C3C1C8F1C76BD890CA331D
:10196000C933C833C733C42FF8D7C5AF03D0C68136
:10197000E0D0C691C491C689010EEA6EBF0EE96E31
:10198000EBD0C699C5BF0AD0C4A113D0CA33C9339E
:10199000C833C733002AD8B4C7D00BD0CABF0CD0C5
:1019A000D890C737C837C937CA370006D8B4BCD0B3
:1019B000F5D7C68D6DD0C69DBDC1C5F1BDAF02D0F6
:1019C000CA8FABD0CA9FA9D0C0C1C4F1C0C100F0BA
:1019D000BC51C45FBDC1CAF1CA8FBEC1C9F1BFC18C
:1019E000C8F1C76BD890CA33C933C833C733C42FC3
:1019F000F8D7C5AF03D0C6839CD0C693C491C68B1D
:101A0000010EEA6EC30EE96EA7D0C69BC5BF0AD011
:101A1000C4A113D0CA33C933C833C733002AD8B4DA
:101A200083D00BD0CABF0CD0D890C737C837C937BE
:101A3000CA370006D8B478D0F5D7C68F29D0C69F4C
:101A4000C1C1C5F1C1AF02D0CA8F67D0CA9F65D0EE
:101A5000C1C1CAF1CA8FC2C1C9F1C3C1C8F1C5AF02
:101A600004D0CA9FC68565D0C695C76BC491010EC8
:101A7000EA6EBF0EE96E70D0C5BF1CD0BDC1C5F106
:101A8000C4A106D0CA33C933C833C733002A4CE0D7
:101A9000C7AF0BD0C82B09E1C92B07E1CA2B05E161
:101AA000CA33C933C833002A3FE0C6BD84D7C6BF96
:101AB000C6D71CD0800ECA1BCAAF04D03AD0C1C151
:101AC000C5F10AD0BDC1C5F1CA5306E1C95304E14D
:101AD000C85302E1006A21D0CABF08D0D890C737E6
:101AE000C837C937CA37002EF7D71ED0C5AF02D0C6
:101AF000CA8F13D0CA9F11D0C0C100F0C1C1CAF1B2
:101B0000C2C1C9F1C3C1C8F108D0BCC100F0BDC198
:101B1000CAF1BEC1C9F1BFC1C8F1CAC101F0C9C192
:101B200002F0C8C103F034D0006A016A026A036A95
:101B30002FD0C76BC81FC91FCA1FC71FC72B05E1FE
:101B4000C82B03E1C92B01E1CA2BC6B112D7C6B31A
:101B500054D7C6B589D7B3D7EF50C82705E3C92BEB
:101B600003E1CA2BD8B4C481ED52EF50C92703E377
:101B7000CA2BD8B4C481ED52EF50EFBE01D0800A19
:101B8000CA27D8B0C481C6B9FCD6C6BB3ED774D765
:101B90000001120008C1EAFF07C1E9FF0101C9C144
:101BA000EFFFE92AD8B4EA2AEF6A072BD8B4082B4A
:101BB000000112000900F6CFBDF1F7CFBEF1F5CF5D
:101BC000C9F1E8DFBDC1F6FFBEC1F7FF0101BC2FBF
:101BD00001D002D00001EED700011200EACFC4F11B
:101BE000E9CFC3F10101BD39F009BF6FBF27E20F93
:101BF000C06F320FC26FBD510F0BC027C027C22765
:101C0000E90FC16FC127C127BC390F0BC127C227FC
:101C1000C137C237C21FC237BC510F0BC227BF37F3
:101C2000070EBE6F0A0EC107C227FDE3C007C1271A
:101C3000FDE3BF07C027FDE3BE07BF27FDE3010E9D
:101C4000EA6EBE0EE96E070EC315C39DE926C20EED
:101C5000E95CD8B4C38DEF50006E08E1C3BD06D077
:101C6000C3B915D0C3B702D0200E03D0C387C39920
:101C7000300E0026EACFBDF1E9CFBCF100C0C9F1BA
:101C8000000188DFBDC1EAFFBCC1E9FF0101EE50E0
:101C9000C3ADDDD7000112000101C951B608C96FFB
:101CA000036ACAC1CDF1CA8FD890CA33CB33CC33C3
:101CB0000332023201320032C92FF6D7CDAF0BD03A
:101CC000001E011E021E031E002AD8B4012AD8B429
:101CD000022AD8B4032A000199EF0EF0E95001015D
:101CE000C16FC051C36F1BE0BFC1CCF1BEC1CBF10E
:101CF000BDC1CAF1BCC1C9F1D06BCF6B200ECE6F94
:101D0000820ECD6F00018FDD03C0BFF102C0BEF1B6
:101D100001C0BDF100C0BCF10101C32FE5D7BFC1B7
:101D2000CCF1BEC1CBF1BDC1CAF1BCC1C9F100014A
:101D3000B3D703C0BFF102C0BEF101C0BDF100C006
:101D4000BCF10101BFAF0DD0C107C18BBC1FBD1FCE
:101D5000BE1FBF1FBC2BD8B4BD2BD8B4BE2BD8B46C
:101D6000BF2B3B0EC86F9A0EC76FCA0EC66FC56BEE
:101D70000A0EC36FC051D8B4C12BD882010EEA6ECF
:101D8000BC0EE96EBFC1CCF1BEC1CBF1BDC1CAF181
:101D9000BCC1C9F1C8C1D0F1C7C1CFF1C6C1CEF134
:101DA000C5C1CDF100018AEC04F00150005213E1ED
:101DB0000101C029C35DD8A402D000010CD0C151DB
:101DC0000DE00F0BC35D01E040E2C1BF3ED0C1BDDD
:101DD00005D0200E34D0200E0101C117C1AB0ED0AA
:101DE000C19BC051D8A4C1070050C16F2D0EC96F4F
:101DF0000001D0DE0101C151006EC16BC051C35D55
:101E00000CE10050C16F2E0EC96F0001C3DE01014D
:101E1000C151006E200EC117000E300EC1AB0FD0A5
:101E2000C19BC051D8A4C1070050C16F2D0EC96F0E
:101E30000001B0DE0101C151006EC16B300E002601
:101E400000C0C9F10001A6DE0101D892C8C1CCF1E1
:101E5000C7C1CBF1C6C1CAF1C5C1C9F1D06BCF6B47
:101E6000CE6B0A0ECD6F00018AEC04F003C0C8F1FE
:101E700002C0C7F101C0C6F100C0C5F10101C32F06
:101E80007CD7000160EF11F00101BF51016ABE5D16
:101E900003E2BEC100F00CD0006A080EC06FBE376E
:101EA0000036BF51005CD8B0006E0136C02FF7D7A6
:101EB000000112000150BCC1BEF1640E0101BF6FF0
:101EC0000001E2DF00C0BCF10150300E08E1010169
:101ED000BDA30FD0BDB70DD0BDB9200E04D00101F8
:101EE000BD97BD99BD81012601C0C9F1000152DE37
:101EF0000101BCC1BEF10A0EBF6F0001C5DF00C009
:101F0000BCF10150300E08E10101BDB70AD0BDA1FE
:101F100008D0BDB9200E0001012601C0C9F13ADE8A
:101F20000101300EBC27BCC1C9F1000133DE87EFCF
:101F300011F00900F5520CE0F6CFBCF1F7CFBDF17E
:101F4000F5CFC9F127DEBCC1F6FFBDC1F7FFF1D760
:101F50001200EACFC4F1E9CFC3F10101BDAF08D04F
:101F6000C38FC3A9C32BBC1FBD1FBC2BD8B4BD2BB3
:101F7000BD39F009BF6FBF27E20FC06F320FC26FCC
:101F8000BD510F0BC027C027C227E90FC16FC12762
:101F9000C127BC390F0BC127C227C137C237C21FA7
:101FA000C237BC510F0BC227BF37070EBE6F0A0ED8
:101FB000C107C227FDE3C007C127FDE3BF07C02754
:101FC000FDE3BE07BF27FDE3010EEA6EBE0EE96E1C
:101FD000070EC315C39DE906C31507E1C3B9E92A76
:101FE000C3B903D0200E006E1CD0E926C20EE95CF6
:101FF000D8B4C38DEF50006E08E1C3BD06D0C3B99D
:102000001DD0C3B702D0200E0BD0C3AF06D02D0E0B
:10201000006EED50C39DC39F04D0C387C399300E9B
:102020000026EACFBDF1E9CFBCF100C0C9F1000143
:10203000B1DDBDC1EAFFBCC1E9FF0101EE50C3AD96
:10204000D5D700011200140E016EC250830B01108F
:10205000C26E0400190E006E002EFED700D00000E4
:10206000C282C2B2FED7C4CF77F10101C3CF76F1ED
:10207000180E016EC250830B0110C26E0400190EBF
:10208000006E002EFED700D00000C282C2B2FED782
:10209000C3CF72F1C4CF73F173C1BDF172C1BCF192
:1020A000000147EF0BF003C0BFF102C0BEF101C059
:1020B000BDF100C0BCF103C0C3F102C0C2F101C058
:1020C000C1F100C0C0F10101C76BC66BC56B890EC1
:1020D000C46F000163EF0BF003C0BFF102C0BEF19B
:1020E00001C0BDF100C0BCF103C0CCF102C0CBF116
:1020F00001C0CAF100C0C9F1330E0101D06FCF6F2A
:10210000530ECE6F800ECD6F000113EC0CF003C0A8
:10211000BBF102C0BAF101C0B9F100C0B8F1D88278
:10212000BBC1BFF1BAC1BEF1B9C1BDF1B8C1BCF10B
:102130000101C36BC26B400EC16F7E0EC06F000108
:102140008EEC0CF003C0BBF102C0BAF101C0B9F1D2
:1021500000C0B8F1BBC1CCF1BAC1CBF1B9C1CAF171
:10216000B8C1C9F10101D06BCF6B480ECE6F850E9F
:10217000CD6F000113EC0CF003C0BBF102C0BAF14B
:1021800001C0B9F100C0B8F1D892BBC1BFF1BAC16A
:10219000BEF1B9C1BDF1B8C1BCF10101C36BC26BE5
:1021A000480EC16F830EC06F00018EEC0CF003C0AF
:1021B000BBF102C0BAF101C0B9F100C0B8F1010130
:1021C000756B746B755322E1745109081FE3743504
:1021D000026E7535036E02360336FC0E021602508F
:1021E000C20FE96E000E0320EA6EECCF03F0ED5251
:1021F000EFCF01F07751035C05E303E17651015C19
:1022000001E304D0742BD8B4752BDCD77435026E7F
:102210007535036E02360336FC0E021602501B0F94
:10222000BC6F000E0320BD6F020EBC25016E000EB8
:10223000BD21036E0150A70FE96E000E0320EA6E68
:10224000ECCF77F1ED52EFCF76F1010E086F780EFB
:10225000076FB60EF66E040EF76E070EBC6F000128
:10226000A9DC100EE96EA9C0BDF1A8C0BCF1B6DCB6
:10227000C00EF66E040EF76E070E0101BC6F000172
:1022800099DC100EE96E77C1BDF176C1BCF1A6DC18
:10229000CA0EF66E040EF76E0A0E0101BC6F000145
:1022A00089DC040EE96EBBC1BFF1BAC1BEF1B9C190
:1022B000BDF1B8C1BCF1010E0101C06F00010ED526
:1022C000D90EF66E040EF76E080E0101BC6F000108
:1022D00071DC100EE96EC1C0BDF1C0C0BCF17EDC86
:1022E000E40EF66E040EF76E050E0101BC6F0001E0
:1022F00061DC0B0EE96EBEC0BDF1BDC0BCF16EDC91
:10230000BFC0BCF1010E0101BD6F0001D3D5F20EBB
:10231000F66E040EF76E060E0101BC6F00014ADC7A
:10232000FE0EF66E040EF76E04DE2C0E0101C96F70
:10233000000130DC200E0101C96F00012BDC010E11
:102340000101C46F780EC36F000144EC06F0BC2D90
:102350000CD0010E0101086F780E076F040EF66EA7
:10236000050EF76E0001E5DD0BD0010E0101086FCF
:10237000780E076F100EF66E050EF76E0001D9DDB0
:10238000010E0101C46F780EC36F000144EC06F02A
:102390002F5203E12E503C081BE2010E0101086F91
:1023A000780E076F1C0EF66E050EF76E090EBC6FE9
:1023B000000100DC100EE96E2FC0BDF12EC0BCF193
:1023C000C8DD200E0101C96F0001CAEC0DF01BD061
:1023D000010E0101086F780E076F2A0EF66E050ECA
:1023E000F76E090EBC6F0001DAEC0DF0100EE96E0D
:1023F0002FC0BDF12EC0BCF1ACDD200E0101C96FB4
:102400000001CAEC0DF0010E0101C46F780EC36F1C
:10241000000144EC06F082A00CD0010E0101086F0F
:10242000780E076F380EF66E050EF76E000181DD2F
:102430000BD0010E0101086F780E076F4A0EF66E81
:10244000050EF76E000175DD010E0101C46F780EF7
:10245000C36F000144EC06F00101002D0CD0010E09
:10246000086F780E076F600EF66E050EF76E0001AE
:1024700060DD0DD0010100530BE1010E086F780EF5
:10248000076F720EF66E050EF76E000152DD010148
:10249000010EC46F780EC36F000144EC06F0AA2D44
:1024A0000ED0AB530CE1010E0101086F780E076FDF
:1024B000820EF66E050EF76E00013BDD0BD0010EAD
:1024C0000101086F780E076F940EF66E050EF76E19
:1024D00000012FDD010E0101C46F780EC36F0001F2
:1024E00044EC06F0010101530CE0010E086F780E78
:1024F000076FA60EF66E050EF76E00011ADD0BD003
:102500000101010E086F780E076FB60EF66E050E0C
:10251000F76E00010EDD010E0101C46F780EC36F6E
:10252000000144EC06F0A1EF17F00900F5520DE0B0
:10253000F6CF72F1F7CF73F1F550A4A8FED7736E02
:1025400072C1F6FF73C1F7FFF0D79EEF17F0020ECE
:1025500001013D6F0001FC6B0EEC09F002C073F14C
:1025600001C072F10101735303E17251600808E286
:10257000735306E172517A0803E37251DF0B01D005
:102580007251480A00012BE0770A29E0790A2DE010
:10259000090AD8B4FAD01B0AD8B466D1160AD8B43E
:1025A000B9D1120AD8B424D21C0AD8B480D20D0AE8
:1025B000D8B4EFD2120AD8B41CD3620AD8B424EF2C
:1025C00017F0030AD8B45AEF17F0010AD8B48EEF07
:1025D00017F0620AD8B495EF17F098EF17F01CEFD8
:1025E00009F0000E016EA3EF17F0C3EF0AF001012E
:1025F000436B426B02C041F101C040F10001AA519E
:10260000AB1161E0010143530AE1425308E141513A
:1026100015083AE2FF0A03E14051110835E243533D
:1026200033E1425331E1415116082EE303E14051B9
:10263000DA082AE341C1A9F040C1A8F043C18BF1F7
:1026400042C18AF141C189F140C188F18F6B8E6B23
:102650008D6B0A0E8C6F00015DEC04F001C073F10C
:1026600000C072F101C077F100C076F1D4EC04F043
:102670009FEC05F00B0EE76F9F0EE66F08EC0BF07A
:1026800017EC06F01FD00101010EEA6E4A0EE96E4A
:10269000F2CF72F1F29E0A0E016EF76A000E00018F
:1026A000ADEC01F00A000900F5CFEEFF012EFBD7DB
:1026B000010172BFF28E010EC46F4A0EC36F00019A
:1026C00044EC06F060D0010143530AE1425308E1B3
:1026D000415113083AE2FF0A03E140511D0835E277
:1026E000435333E1425331E1415114082EE303E1F6
:1026F000405182082AE341C1A9F040C1A8F043C17A
:102700008BF142C18AF141C189F140C188F18F6BDF
:102710008E6B8D6B0A0E8C6F00015DEC04F001C0B6
:1027200073F100C072F101C077F100C076F1D4EC12
:1027300004F09FEC05F00B0EE76F9F0EE66F08ECC0
:102740000BF017EC06F01FD00101010EEA6E540EDB
:10275000E96EF2CF72F1F29E0A0E016EF76A000E78
:102760000001ADEC01F00A000900F5CFEEFF012EEB
:10277000FBD7010172BFF28E010EC46F540EC36FFE
:10278000000144EC06F0A1EF17F00EEC09F002C0D6
:1027900073F101C072F10101735303E172516008DA
:1027A00008E2735306E172517A0803E37251DF0BBA
:1027B00001D072514E0838E1000162EC0AF001C00C
:1027C0003EF101013E5101080FE33E5307E0010EC7
:1027D0000001FF6F9FEC05F005D001010001FF6BC8
:1027E0001CEF0BF01FD00101010EEA6E5E0EE96EC8
:1027F000F2CF72F1F29E0A0E016EF76A000E00012E
:10280000ADEC01F00A000900F5CFEEFF012EFBD779
:10281000010172BFF28E010EC46F5E0EC36F000124
:1028200044EC06F01FD00101010EEA6E680EE96E5D
:10283000F2CF72F1F29E0A0E016EF76A000E0001ED
:10284000ADEC01F00A000900F5CFEEFF012EFBD739
:10285000010172BFF28E010EC46F680EC36F0001DA
:1028600044EC06F0A1EF17F00EEC09F002C073F192
:1028700001C072F10101735303E17251600808E273
:10288000735306E172517A0803E37251DF0B01D0F2
:102890007251520820E1010EEA6E680EE96EF2CF25
:1028A00072F1F29E070E016EF76A000E0001BFEC96
:1028B00001F00A000900F5CFEEFF012EFBD7010160
:1028C00072BFF28E010EC46F680EC36F000144EC3C
:1028D00006F01FD00101010EEA6E680EE96EF2CF1C
:1028E00072F1F29E0A0E016EF76A000E0001ADEC65
:1028F00001F00A000900F5CFEEFF012EFBD7010120
:1029000072BFF28E010EC46F680EC36F000144ECFB
:1029100006F017D30EEC09F002C073F101C072F19A
:102920000101735303E17251600808E2735306E139
:1029300072517A0803E37251DF0B01D072514D08D6
:1029400036E1000162EC0AF001C03EF101013E51A6
:1029500001080DE33E5307E02F6A2E6A010E006F57
:102960008C86A38A03D0006B8C96A39A1FD0010E8D
:10297000EA6E680EE96EF2CF72F1F29E0A0E016EF7
:10298000F76A000E0001ADEC01F00A000900F5CF76
:10299000EEFF012EFBD7010172BFF28E010EC46F54
:1029A000680EC36F000144EC06F001011FD0010E58
:1029B000EA6E680EE96EF2CF72F1F29E0A0E016EB7
:1029C000F76A000E0001ADEC01F00A000900F5CF36
:1029D000EEFF012EFBD7010172BFF28E010EC46F14
:1029E000680EC36F000144EC06F001010001A9D29A
:1029F0002AEC0AF002C073F101C072F101017353B5
:102A000003E17251600808E2735306E172517A08DB
:102A100003E37251DF0B01D0725153083EE1000114
:102A20000EEC09F062EC0AF001C03EF101013E51EA
:102A3000010813E33E5305E0010E0001FE6F03D0D1
:102A400001010001FE6BFEC0A7F00B0EE76F9F0EA9
:102A5000E66F08EC0BF01FD00101010EEA6E680E64
:102A6000E96EF2CF72F1F29E0A0E016EF76A000E65
:102A70000001ADEC01F00A000900F5CFEEFF012ED8
:102A8000FBD7010172BFF28E010EC46F680EC36FD7
:102A9000000144EC06F004D00101000130EF0BF01E
:102AA0000B0EE76F9F0EE66F08EC0BF04AD20EECB0
:102AB00009F002C073F101C072F10101735303E127
:102AC0007251600808E2735306E172517A0803E319
:102AD0007251DF0B01D0725144083CE1000162ECFD
:102AE0000AF001C03EF101013E51010813E33E53DB
:102AF00006E0010E0001BC6F8A8604D001010001CE
:102B0000BC6B8A960B0EE76F9F0EE66F08EC0BF01E
:102B10001FD00101010EEA6E680EE96EF2CF72F16C
:102B2000F29E0A0E016EF76A000E0001ADEC01F094
:102B30000A000900F5CFEEFF012EFBD7010172BF9D
:102B4000F28E010EC46F680EC36F000144EC06F0F4
:102B50001FD00101010EEA6E680EE96EF2CF72F12C
:102B6000F29E0A0E016EF76A000E0001ADEC01F054
:102B70000A000900F5CFEEFF012EFBD7010172BF5D
:102B8000F28E010EC46F680EC36F000144EC06F0B4
:102B9000D8D162EC0AF001C03EF101013E510108BA
:102BA00007E33E5303E0010E016F01D0016B1FD01C
:102BB000010EEA6E680EE96EF2CF72F1F29E0A0E15
:102BC000016EF76A000E0001ADEC01F00A00090089
:102BD000F5CFEEFF012EFBD7010172BFF28E010E81
:102BE000C46F680EC36F000144EC06F001010001E0
:102BF000A8D10AEC0AF00EEC09F001C03EF162EC3B
:102C00000AF001C03FF162EC0AF002C045F101C0D8
:102C100044F101013E51600806E23E517A0803E3A7
:102C20003E51DF0B01D03E514E0A00010BE01E0A5F
:102C30003CE0020A6DE0140AD8B4A7D0100AD8B458
:102C4000FAD001D101013F5101080EE3D8903F3580
:102C5000036AAC0FE96E000E0320EA6E45C1ECFF7B
:102C6000ED5244C1EFFF1FD0010EEA6E680EE96E0F
:102C7000F2CF72F1F29E0A0E016EF76A000E0001A9
:102C8000ADEC01F00A000900F5CFEEFF012EFBD7F5
:102C9000010172BFF28E010EC46F680EC36F000196
:102CA00044EC06F001010001CED001013F510308C0
:102CB0000EE3D8903F35036AB20FE96E000E032091
:102CC000EA6E45C1ECFFED5244C1EFFF1FD0010E8B
:102CD000EA6E680EE96EF2CF72F1F29E0A0E016E94
:102CE000F76A000E0001ADEC01F00A000900F5CF13
:102CF000EEFF012EFBD7010172BFF28E010EC46FF1
:102D0000680EC36F000144EC06F0010100019BD086
:102D10000EEC09F002C073F101C072F101017353AE
:102D200003E17251600808E2735306E172517A08B8
:102D300003E37251DF0B01D07251520805E145C126
:102D4000BBF044C1BAF01FD0010EEA6E680EE96E06
:102D5000F2CF72F1F29E0A0E016EF76A000E0001C8
:102D6000ADEC01F00A000900F5CFEEFF012EFBD714
:102D7000010172BFF28E010EC46F680EC36F0001B5
:102D800044EC06F0010100015ED001013F51090849
:102D900031E33F51040DF350036AC20FE96E000E98
:102DA0000320EA6E45C1ECFFED5244C1EFFF000184
:102DB00062EC0AF002C045F101C044F101013F514B
:102DC000040DF350036A1B0F726F000E0320736F24
:102DD000020E7225016E000E7321036E0150A70FC3
:102DE000E96E000E0320EA6E45C1ECFFED5244C1CE
:102DF000EFFF1FD0010EEA6E680EE96EF2CF72F19E
:102E0000F29E0A0E016EF76A000E0001ADEC01F0B1
:102E10000A000900F5CFEEFF012EFBD7010172BFBA
:102E2000F28E010EC46F680EC36F000144EC06F011
:102E30000101000108D00B0EE76F9F0EE66F08EC52
:102E40000BF017EC06F07DD062EC0AF002C047F1FF
:102E500001C046F10101465302E147530AE04753DE
:102E600008E14651630805E347C1BEF046C1BDF025
:102E70001FD0010EEA6E680EE96EF2CF72F1F29E7B
:102E80000A0E016EF76A000E0001ADEC01F00A00B7
:102E90000900F5CFEEFF012EFBD7010172BFF28EC4
:102EA000010EC46F680EC36F000144EC06F001010F
:102EB000000147D062EC0AF002C049F101C048F1BC
:102EC0000101485302E1495308E0495306E14851E2
:102ED000390803E348C1BFF01FD0010EEA6E680E47
:102EE000E96EF2CF72F1F29E0A0E016EF76A000EE1
:102EF0000001ADEC01F00A000900F5CFEEFF012E54
:102F0000FBD7010172BFF28E010EC46F680EC36F52
:102F1000000144EC06F00101000113D062EC0AF05C
:102F200002C0C1F001C0C0F00CD023EF10F009D0F6
:102F3000C60EF66E050EF76E95EF12F0000E016EDE
:102F400002D0000E016E0AEF18F05350FC0FD8B0FB
:102F5000C8D0040F73EF18F0546A532AC2D030520D
:102F600032E0F8EC08F001011C6B01C01BF11B51B1
:102F70001C112AE01B51240808E11C5306E1532AC6
:102F80000001A66BA56B1FD00101010EEA6E1F0E9A
:102F9000E96EF2CF3DF1F29E0B0E016EF76A000E64
:102FA0000001D0EC01F00A000900F5CFEEFF012E80
:102FB000FBD701013DBFF28E010EC46F1F0EC36F20
:102FC000000144EC06F0010100018BD03052D8B46E
:102FD00071D0A66BA56BF8EC08F001011C6B01C069
:102FE0001BF15450542A036A550FE96E000E03205A
:102FF000EA6E1BC1EFFF5450460804E2536A000119
:1030000070D001011B510D0831E11C532FE100016B
:10301000A7EF12F001011E6B01C01DF11D3D02D092
:103020001E531FE0010EEA6E2A0EE96EF2CF3DF14B
:10303000F29E080E016EF76A000E0001E3EC01F04B
:103040000A000900F5CFEEFF012EFBD701013DBFBD
:10305000F28E010EC46F2A0EC36F000144EC06F01D
:1030600001010001FBEC02F025D001011B511B08FE
:1030700022E11C5320E1010EEA6E320EE96EF2CF1E
:103080003DF1F29E0B0E016EF76A000E0001F4ECAA
:1030900001F00A000900F5CFEEFF012EFBD7010178
:1030A0003DBFF28E010EC46F320EC36F000144ECBF
:1030B00006F0536A01015350010811E220A20FD01B
:1030C00020920001A52BD8B4A62BA651260806E213
:1030D000FF0A03E1A551100801E2536A0101000152
:1030E00000D08CEF18F0F2CF0DF0F29EE824F76AD2
:1030F000F7360B0FF66E310EF7220A00F550FA6E16
:103100000800F5500DBEF28EF96E582F5E2FCC2FB1
:10311000E230E5EF08F019D754EF19F0F86AD09EC5
:10312000078E700ED36E9B9C9B9EB896190EAF6E49
:10313000A60EAC6E900EAB6E7096190E756EA60E46
:10314000726E900E716E2D6A2C6A2F6A2E6AE76B72
:10315000E66B010EFD6FA7C0FEF0FF6F0101006B73
:10316000016B036B026B086B076BC150F00BC16EF8
:10317000000E0F01386F3C6F396F3A6F3B6F0101E2
:10318000886B776A786A796A030E0A6FE80E096FAE
:103190000C6B010E0B6F000103EF03F070EF03F0F7
:1031A000D890AA35026EAB35036E0250B20FE96EAD
:1031B000000E0320EA6EECCF17F0ED52EFCF16F0C1
:1031C000196A0A0E186EFAEF03F017EC06F00D0EEE
:1031D00001010D6F0A0E0E6F0F6B010EC46F0D0E05
:1031E000C36F000144EC06F0010EEA6E0D0EE96EAD
:1031F000F2CF1BF1F29E0E0E016EF76A000E07EC85
:1032000002F00A000900F5CFEEFF012EFBD7010105
:103210001BBFF28E010EC46F0D0EC36F000144EC94
:1032200006F00D0E01010D6F0A0E0E6F0F6B010EF1
:10323000C46F0D0EC36F000144EC06F001011D6B5D
:103240000AC11FF109C11EF100018EEC06F00A0E41
:103250000101216F0001E2EC03F08C960101006B8B
:103260008C808C928C8420A015D020900B510C1156
:1032700006E00C6B0B6B000117EC06F0010100017E
:10328000AA51AB1102E08A8801D08A78040000D0EC
:1032900000000101002D04D00001F3EF07F001014F
:1032A000000106EF08F035D70101DDD70A6B010EEA
:0432B000096FFFD7CC
:020000040030CA
:0E00000000F8191C00BF00000FC00FE00F40F9
:00000001FF
;PIC18F45K22
;CRC=1C0F  CREATED="07-Jun-18 12:02"
