:040000007CEF1BF086
:08000800046ED8CF05F0E0CF33
:1000100006F00001E9CF0CF0EACF07F0E1CF08F0DD
:10002000E2CF09F0D9CF0AF0DACF0BF0F3CF12F01C
:10003000F4CF13F0FACF14F000C00EF001C00FF0AF
:1000400002C010F003C011F09DA22AEF00F09EB292
:100050001EEF02F0F2A830EF00F0F2B236EF02F03D
:10006000F0A636EF00F0F0B039EF02F09DAA3CEFB9
:1000700000F09EBA3CEF02F0A3AA42EF00F0A4BA4F
:1000800053EF02F07DA048EF00F07EB01BEF02F0CE
:100090000EC000F00FC001F010C002F011C003F05C
:1000A0000CC0E9FF07C0EAFF078E08C0E1FF09C0E6
:1000B000E2FF0AC0D9FF0BC0DAFF12C0F3FF13C082
:1000C000F4FF14C0FAFF045006C0E0FF05C0D8FFDB
:1000D0001000F2CF0DF0F29EF76AEC0FF66E000EF4
:1000E000F7220900F5500DBEF28E12000000DC0070
:1000F00091810008C25E0018B30400003C00950026
:1001000000004000F2CF0DF0F29EF76A1E0FF66E6F
:10011000010EF7220900F5500DBEF28E12002446A2
:10012000203C6672657175656E63793E3C63723E14
:10013000202009536574206672657175656E637958
:1001400020696E20314D487A20696E6372656D6555
:100150006E74732028692E652E353137332069730C
:1001600020352E31373347487A290D0A0000F2CF67
:100170000DF0F29EF76A880FF66E010EF722090065
:10018000F5500DBEF28E1200244F4E203C6F6E6F64
:1001900066663E3C63723E20200953657420504CD5
:1001A0004C205246204F5554206F6E283129206F25
:1001B00072206F66662830290D0A0000F2CF0DF01C
:1001C000F29EF76AD60FF66E010EF7220900F5507F
:1001D0000DBEF28E1200245053203C706F77657272
:1001E0003E3C63723E20200953657420616D70208F
:1001F000706F776572206F6E283129206F72206FC3
:1002000066662830290D0A00F2CF0DF0F29EF76ADB
:10021000220FF66E020EF7220900F5500DBEF28E87
:1002200012002450203C6C6576656C3E3C63723E47
:1002300020200953657420706F776572206C657695
:10024000656C2068696768283129206F72206C6F9F
:10025000772830290D0A0000F2CF0DF0F29EF76AE0
:10026000720FF66E020EF7220900F5500DBEF28EE7
:100270001200244C44203C6677643E3C63723E206E
:1002800020095365742046776420706F776572206B
:100290006D6561737572656D656E74206F6E283162
:1002A00029206F72206F66662830290D0A00F2CF70
:1002B0000DF0F29EF76AC80FF66E020EF7220900E3
:1002C000F5500DBEF28E120024513C63723E202088
:1002D0000952657175657374207374617475730D5B
:1002E0000A00F2CF0DF0F29EF76AFC0FF66E020ED6
:1002F000F7220900F5500DBEF28E120024424D3C4B
:1003000063723E202009424954204D6F6465204F9E
:100310004E283129204F46462830290D0A00F2CFB9
:100320000DF0F29EF76A380FF66E030EF722090001
:10033000F5500DBEF28E12002454523C63723E20E2
:1003400020095452414E53495645522854292052AF
:1003500045434956455228522900F2CF0DF0F29EEE
:10036000F76A740FF66E030EF7220900F5500DBE02
:10037000F28E12000D0A244641494C0D0A00F2CFBC
:100380000DF0F29EF76A980FF66E030EF722090041
:10039000F5500DBEF28E12000D0A24520D0A000017
:1003A000F2CF0DF0F29EF76ABA0FF66E030EF72247
:1003B0000900F5500DBEF28E12000D0A244641557B
:1003C0004C540D0A0000F2CF0DF0F29EF76AE00FD8
:1003D000F66E030EF7220900F5500DBEF28E1200E4
:1003E0000D0A244F4B0D0A00F2CF0DF0F29EF76A72
:1003F000020FF66E040EF7220900F5500DBEF28EC4
:1004000012000D0A24425245414B0D0A0000F2CF62
:100410000DF0F29EF76A280FF66E040EF72209001F
:10042000F5500DBEF28E1200424131353333525831
:100430002056312E30007E9048EF00F01868192ABF
:100440001A2A1A5009080FE21A6A1B2A1C681D2A68
:100450001D50090808E21D6A1E681F2A1F5009085E
:1004600002E21F6A20689E9248EF00F0F29248EF85
:1004700000F0F09048EF00F0AECFC7F1036A3250C1
:10048000340FE96E000E0320EA6EC7C1EFFF322A77
:1004900032501F0801E2326A31501F0801E3312A4D
:1004A0009E9A48EF00F02F2C06D0305204E1226AC9
:1004B000216A306A2F6A745203E02E6A74CF2DF0DD
:1004C000A49A48EF00F00D0A332E337620706F7730
:1004D000657220696E3D25322E31662876292032DC
:1004E000387620706F77657220696E3D25322E3127
:1004F0006628762900000D0A465245513D256C7547
:100500002C20525353493D256C7564424D2C205488
:10051000454D503D25352E31662863292C20494410
:100520003D256C752C2044433D2530326C752530BB
:1005300032752C2056455220256C732C20005631E4
:100540002E3000004C494748543D4F4E2C200000AF
:100550004C494748543D4F46462C20005041535388
:10056000204269743D256C642C2000004641494CB2
:10057000204269743D256C642C20000053594E5470
:1005800048204C4F434B3D4C4F434B2C200053597C
:100590004E5448204C4F434B3D4E4F54204C4F43FC
:1005A0004B2C2000424954204D4F44453D5354416B
:1005B00052542C200000424954204D4F44453D5395
:1005C000544F502C2000504F574552204D4F44451A
:1005D0003D484947482C2000504F574552204D4F29
:1005E00044453D4C4F572C2000004155544F5F501F
:1005F0004F5745523D312C2000004155544F5F501C
:100600004F5745523D302C2000004D4F44554C452E
:1006100020545950453D52582C2000000D0A2446C4
:1006200041494C0D0A00896A8A6A8B6A8C6A8D6A14
:10063000C10E926EC40E936E810E946E800E956EF6
:10064000968096829684968643EF03F0316A31C095
:1006500033F033C032F0546A9D8A1200480E050907
:10066000BA6E630EBB6EB46AB16A000E05090F0163
:10067000516F630E526F4D6B4E6B000E4A6F000E42
:100680004B6F0001D0D7C150F00BC16E010E0F01AE
:10069000386F070E3C6F040E396F000E3A6F3B6FD8
:1006A000C050C00B2509C06EC08EC280776A040E90
:1006B000786E796E0001CADFA39A9D82C00EF21295
:1006C000BBEF1BF0010121C103F02051D8B4210779
:1006D000200703101FE01F51036E1E511E2BD8B4BC
:1006E0001F2BE96E03C0EAFF1D51036E1C511C2B2A
:1006F000D8B41D2B246F03C025F1F2CF26F1F29E52
:1007000024C1A9FFA69CA69EA680A85026BFF28E53
:10071000EF6ED9D70001A6EF03F0016603D00266A1
:1007200002D007D0022A00C0EEFF012EFCD7022E15
:10073000FAD7B2EF03F001011D6B1C6B1F6BA80E03
:100740001E6F216B450E206F0001BCD7A93D0AD05A
:10075000AA3D08D0EA6AA80EE96E006A026A450E50
:10076000016EDBD7BDEF1BF0080E0101616F615315
:100770001EE060AF02D08B8601D08B9604000C0E79
:10078000006E002EFED700D08B8404000C0E006E8D
:10079000002EFED700D08B940400200E006E002E99
:1007A000FED700D061516107D8906037E0D78B96B3
:1007B0008B94000112000400F29CF29EF2BEFDD761
:1007C0005EC15FF15EC160F1CFDF5DC15FF15DC110
:1007D00060F1CADF5CC15FF15CC160F1C5DF5BC184
:1007E0005FF15BC160F1C0DF0400340E006E002ECB
:1007F000FED700D08B820400050E006E002EFED7BF
:1008000000D000008B928B96C00EF21204001200F2
:10081000010EEA6E220EE96EEF5011E0050E016E38
:10082000BF0E006E0400002EFDD7012EF9D72E0E4C
:10083000006E002EFED700000400EF2EEFD712004E
:100840000101216B050E206F2151050836E320516F
:10085000040DF350036AF2CF22F1F29E000139DC5D
:100860000900F5CF01F00900F5CF02F00900F5CF3E
:1008700003F0010122BFF28E03C01FF102C01EF17E
:1008800001C01DF11C6F016A026A036A20511C132A
:1008900001501D1302501E1303501F131FC15EF1A0
:1008A0001EC15DF11DC15CF11CC15BF1000183DF64
:1008B00001012151212B2007C7D7C80E226F00014B
:1008C000A7DF1FC15EF11EC15DF11DC15CF11CC13E
:1008D0005BF171DFC80E0101226F000199DFC2EFE9
:1008E0001BF0010157515903F3CF01F0F4CF00F091
:1008F0005A03F350002658515903F3500020026E5A
:1009000000014BEF06F00101736B746B010E756F04
:10091000DA6AD96A786F6B0E776F010EEA6E6F0E26
:10092000E96E78C1E2FF77C1E1FF75C176F1D89039
:10093000E550EE02F3507323F4507423762FF7D76B
:1009400073C1DEFF74C173F1746BD8B0742B772B55
:10095000D8B4782B752B75510508DFE10001120022
:10096000D8B204D0010EEA6EC20EE96E006A016AC6
:10097000026A036A0101C26BC36BC46BC56BC151D0
:10098000C011BF11BE112CE0200EC66FD890BA372F
:10099000BB37BC37BD37C237C337C437C537C15182
:1009A000C55D08E1C051C45D05E1BF51C35D02E111
:1009B000BE51C25D0FE3BE51C25FBF51D8A0BF3D63
:1009C000C35FC051D8A0C03DC45FC151D8A0C13DD4
:1009D000C55FD8800036013602360336C62FD6D71B
:1009E000C2C1EFFFC3C1ECFFC4C1ECFFC5C1ECFF46
:1009F000000112000101666B656B646B010E636F91
:100A00000400C00E595D5F6F120E5A59606F616B22
:100A1000626BD8906233613360335F33026B850E53
:100A2000016F006B3C0E0001FF6F040062C16EF1AC
:100A300061C16DF160C16CF15FC16BF166C172F1B2
:100A400065C171F164C170F163C16FF15CDF03C016
:100A50006AF102C069F101C068F100C067F103C02A
:100A60006EF102C06DF101C06CF100C06BF10101CB
:100A7000726B716B706B640E6F6F000144DF03C0AB
:100A800062F102C061F101C060F100C05FF10400D9
:100A9000D89262C1BDF161C1BCF160C1BBF15FC15F
:100AA000BAF10101C16BC06B270EBF6F100EBE6F94
:100AB000000156DF03C0F2F002C0F1F001C0F0F017
:100AC00000C0EFF00400F2C06EF1F1C06DF1F0C0B3
:100AD0006CF1EFC06BF10101726B716B270E706FDF
:100AE000100E6F6F00010FDF005001015F5D676F37
:100AF00001506059686F02506159696F0350625923
:100B00006A6F6E6B6D6B6C6B640E6B6F66C172F1AE
:100B100065C171F164C170F163C16FF10001F3DE71
:100B200003C06EF102C06DF101C06CF100C06BF149
:100B3000D8926AC1BDF169C1BCF168C1BBF167C19E
:100B4000BAF103C0C1F102C0C0F101C0BFF100C0E1
:100B5000BEF106DF03C0F6F002C0F5F001C0F4F00C
:100B600000C0F3F0080EFA6FF96B030EF86F210E58
:100B7000F76F0400010E01015B27D8B05C2BD8B4DD
:100B80005D2BD8B45E2B0001120001015C6B0001EB
:100B9000EF3501015D6F0001F03501015E6F00016D
:100BA000F13501015F6F5D375E375F375D375E3767
:100BB0005F375D375E375F375D375E375F375D378D
:100BC0005E375F375D375E375F37800E5D17000138
:100BD000F335006EF435016EF535026EF635036EB1
:100BE0000036013602360336003601360236033649
:100BF000F80E0016005001015C25576F01505D2171
:100C0000586F02505E21596F03505F215A6F5AC1CD
:100C1000FEF059C1FDF058C1FCF057C1FBF00400D3
:100C20005AC15EF159C15DF158C15CF157C15BF128
:100C30000001C1DD0400190E006E002EFED700D0A9
:100C400000000400FAC05EF1F9C05DF1F8C05CF18B
:100C5000F7C05BF1B0DD0400190E006E002EFED768
:100C600000D00000040002C15EF101C15DF100C1CD
:100C70005CF1FFC05BF19FDD1200AAC056F1A9C074
:100C800055F156C158F155C157F101015A6B0A0E81
:100C9000596F000126D602C058F101C057F102C0B9
:100CA0005AF101C059F1A6DE70DF030E176EE80E8F
:100CB000166E1200040E0101B35F0AE3010EEA6E24
:100CC000B30EE96EEF5004E001D00400EF2EFDD723
:100CD000000112009D9A0101B06BAEC103F0ADC1DD
:100CE000E9FFAEC1EAFFEF523AE0AEC103F0AD5109
:100CF000AD2BD8B4AE2BE96E03C0EAFFEFCFAFF156
:100D0000AF51090810E0AFC1ADFFB02B04000D0ECC
:100D1000B26F160EB36F0001CDDF0101B22FF9D70C
:100D2000AECFAFF11BD0200EB16FB151B05D03E378
:100D3000020EB025B16FB151B05D10E2200EAD6E64
:100D4000B02B04000D0EB26F160EB36F0001B2DFB0
:100D50000101B22FF9D7AECFAFF1EDD7BED7AECFED
:100D6000AFF19D8A00011200899401011E5302E037
:100D7000898801D0899889860400130E006E002EA0
:100D8000FED7000089960400130E006E002EFED7D9
:100D90000000899889860400130E006E002EFED78D
:100DA000000089960400130E006E002EFED700008E
:100DB00089860400130E006E002EFED7000089966F
:100DC0000400130E006E002EFED70000898604007A
:100DD000130E006E002EFED7000089960400130E3D
:100DE000006E002EFED700008986000B006E205199
:100DF000020B036E0050031002E0898801D089982D
:100E00000400130E006E002EFED700008996040029
:100E1000130E006E002EFED700008986000B006EB8
:100E20002051010B036E0050031002E0898801D0AD
:100E300089980400130E006E002EFED700008996DC
:100E40000400130E006E002EFED7000089861F518D
:100E5000800B006E036A0050031002E0898801D005
:100E600089980400130E006E002EFED700008996AC
:100E70000400130E006E002EFED7000089861F515D
:100E8000400B006E036A0050031002E0898801D015
:100E900089980400130E006E002EFED7000089967C
:100EA0000400130E006E002EFED7000089861F512D
:100EB000200B006E036A0050031002E0898801D005
:100EC00089980400130E006E002EFED7000089964C
:100ED0000400130E006E002EFED7000089861F51FD
:100EE000100B006E036A0050031002E0898801D0E5
:100EF00089980400130E006E002EFED7000089961C
:100F00000400130E006E002EFED7000089861F51CC
:100F1000080B006E036A0050031002E0898801D0BC
:100F200089980400130E006E002EFED700008996EB
:100F30000400130E006E002EFED7000089861F519C
:100F4000040B006E036A0050031002E0898801D090
:100F500089980400130E006E002EFED700008996BB
:100F60000400130E006E002EFED7000089861F516C
:100F7000020B006E036A0050031002E0898801D062
:100F800089980400130E006E002EFED7000089968B
:100F90000400130E006E002EFED7000089861F513C
:100FA000010B006E036A0050031002E0898801D033
:100FB00089980400130E006E002EFED7000089965B
:100FC0000400130E006E002EFED700008986040078
:100FD000130E006E002EFED7000089960400130E3B
:100FE000006E002EFED7000089860400130E006EEE
:100FF000002EFED7000089960400130E006E002E0E
:10100000FED7000089840400130E006E002EFED768
:10101000000089920400130E006E002EFED700001F
:1010200089820400130E006E002EFED7000000011E
:10103000120020A611D02096212AD8B4222A2250AC
:1010400016080AE2FF0A03E121506F0805E2226A4E
:10105000216A8C960101066B00012BEF1CF0010147
:10106000045302E08C8401D08C940001AB51AC118C
:101070000AE0010E01011E6FB0C020F1AFC01FF1E8
:10108000000172DE09D0010E01011E6FAEC020F119
:10109000ADC01FF1000168DE010107533DE01C0EE9
:1010A000016EC250830B0110C26E0400190E006E57
:1010B000002EFED700D00000C282C2B2FED7C3CF3E
:1010C0001CF1C4CF1DF10001EA5101011D5D10E3C7
:1010D00008E11C510001E95DD8A002D0010108D04F
:1010E00001018C808C920001AC6BAB6B13D00101C1
:1010F0001D510001EC5D0EE308E1EB5101011C5DA7
:10110000D8A002D0000106D000018C908C82AC6B7C
:10111000010EAB6F0AD001010001AB51AC1103E02D
:101120008C908C8202D08C808C921EA68FD01E96C2
:10113000140E016EC250830B0110C26E0400190E12
:10114000006E002EFED700D00000C282C2B2FED7D1
:10115000C4CF1DF10101C3CF1CF1D8902B34026E16
:101160002C34036E0250230FE96E000E0320EA6E4A
:101170001DC1ECFFED521CC1EFFF2B2AD8B42C2A65
:101180002C5203E12B50030802E22C6A2B6A2550F3
:1011900023241E6F265024201F6F27501E272850FF
:1011A0001F2329501E272A501F231F311D6F1E3158
:1011B0001C6F1D331C333F0E1D171D510001BE5DFA
:1011C00011E308E1BD5101011C5DD8A002D000016E
:1011D00009D0000101011E6B206B010E1F6F000181
:1011E000C3DD34D001011D510001CE5D11E308E1E2
:1011F000CD5101011C5DD8A002D0000109D0000131
:1012000001011E6B206B050E1F6F0001ADDD1ED0AE
:1012100001011D510001DE5D11E308E1DD51010115
:101220001C5DD8A002D0000109D0000101011E6B95
:10123000206B300E1F6F000197DD08D001011E6B7F
:10124000010E206FE10E1F6F00018EDD2FEF1CF0ED
:10125000ABA20AD0AB92AB980400050E006E002E34
:10126000FED700D00000AB88ABA403D0AB94AECFC8
:101270001CF179EF1BF0036A3350340FE96E000E56
:101280000320EA6EEFCF3EF1332A33501F0801E20C
:10129000336A315201E0310601013EC101F0000123
:1012A000120001010351032B036A560FE96E000E71
:1012B0000320EA6E036AEFCF01F003C002F00001E1
:1012C00012000D0E0101556F0A0E566F576B010E7D
:1012D000AE6F550EAD6F0001FDDC010EEA6E550ECE
:1012E000E96EF2CFA4F1F29E4F0E016EF76A000E86
:1012F00082EC00F00A000900F5CFEEFF012EFBD7CB
:101300000101A4BFF28E010EAE6F550EAD6F00014C
:10131000E1DC010EEA6E550EE96EF2CFA4F1F29E09
:10132000330E016EF76A000EB7EC00F00A000900F8
:10133000F5CFEEFF012EFBD70101A4BFF28E010E07
:10134000AE6F550EAD6F0001C5DC010EEA6E550E95
:10135000E96EF2CFA4F1F29E320E016EF76A000E32
:10136000DEEC00F00A000900F5CFEEFF012EFBD7FE
:101370000101A4BFF28E010EAE6F550EAD6F0001DC
:10138000A9DC010EEA6E550EE96EF2CFA4F1F29ED1
:10139000350E016EF76A000E04EC01F00A00090038
:1013A000F5CFEEFF012EFBD70101A4BFF28E010E97
:1013B000AE6F550EAD6F00018DDC010EEA6E550E5D
:1013C000E96EF2CFA4F1F29E3C0E016EF76A000EB8
:1013D0002CEC01F00A000900F5CFEEFF012EFBD73F
:1013E0000101A4BFF28E010EAE6F550EAD6F00016C
:1013F00071DC010EEA6E550EE96EF2CFA4F1F29E99
:101400001A0E016EF76A000E57EC01F00A0009008F
:10141000F5CFEEFF012EFBD70101A4BFF28E010E26
:10142000AE6F550EAD6F000155DC010EEA6E550E24
:10143000E96EF2CFA4F1F29E220E016EF76A000E61
:1014400071EC01F00A000900F5CFEEFF012EFBD789
:101450000101A4BFF28E010EAE6F550EAD6F0001FB
:1014600039DC010EEA6E550EE96EF2CFA4F1F29E60
:10147000220E016EF76A000E8FEC01F00A000900DF
:10148000F5CFEEFF012EFBD70101A4BFF28E010EB6
:10149000AE6F550EAD6F00011DDC8CEF15F0036AC9
:1014A00001010351560FE96E000E0320EA6EEF5260
:1014B00018E0036A0351560FE96E000E0320EA6E2E
:1014C000EF502C080AE0036A0351560FE96E000E34
:1014D0000320EA6EEF50200804E1032B0001DFD760
:1014E000010100011200DBDF036A01010351560F05
:1014F000E96E000E0320EA6E036AEFCF01F003C02D
:1015000002F00001120001015C515E19800B606F56
:101510005CAF05D05B1F5C1F5B2BD8B45C2B5EAF50
:1015200005D05D1F5E1F5D2BD8B45E2B5B515D0344
:10153000F3CF01F0F4CF00F05E03F35000265C51CE
:101540005D03F3500020026E60AF05D0011E021E45
:10155000012AD8B4022A0001120001015A6B010EBF
:10156000596F00019CDF036A01010351560FE96EB8
:10157000000E0320EA6EEF5240E0586B576B0001FB
:10158000B2DF02C05CF101C05BF1010101502D0826
:1015900007E15C5305E15A695969000182DE0101E6
:1015A000036A0351560FE96E000E0320EA6EEFCF77
:1015B0005BF15B512F0821E25B5139081EE358C1F2
:1015C0005CF157C15BF15E6B0A0E5D6F00019BDF42
:1015D00002C05CF101C05BF101010351032B036AFE
:1015E000560FE96E000E0320EA6E300EEF5C012408
:1015F000576F000E0220586FD3D758C15CF157C106
:101600005BF15AC15EF159C15DF100017CDF02C09E
:1016100003F002C002F01200A0DF02C056F101C0C8
:1016200055F1010155C101F056C102F0000192EFE0
:1016300015F001015AC103F05951D8B45A0759079E
:1016400003102CE05651036E5551552BD8B4562B30
:101650005B6F03C05CF15851036E5751572BD8B4E0
:10166000582BE96E03C0EAFFEFCF5DF1F250006E38
:10167000F29E5BC1A9FF5DC1A8FFA69CA69EA684A1
:101680000F01550EA76EAA0EA76EA682A6B2FED7B0
:10169000A6940050F2120001CCD70101000162EFC4
:1016A0000BF0ED519F080EE1EE510B080BE101012B
:1016B000566B556B586BA80E576F5A6B450E596F8A
:1016C0000001B7D7EE6BED6B12000101586B950E60
:1016D000576F566B1C0E556F58C15EF157C15DF1C7
:1016E00056C15CF155C15BF10001DBEC03F027EF63
:1016F00016F033DF02C056F101C055F10101565317
:101700000AE15551010807E356C1ACF055C1ABF0F1
:10171000010E016E02D0000E016E000186EF17F07F
:101720008E0E006EB4C101F0B3C102F0036A015223
:1017300009E102C001F0026A080E005E015202E1F6
:10174000006A08D0D89001BE04D0023601360006E7
:10175000F9D7019E12000101BA51D8B471D0006EC0
:10176000BE51D8B46DD0002604E3810E002668E295
:1017700004D07F0E005E64E363E0BBC1C2F1BF51E1
:10178000C21BBB8FBF8FBD51C103F4CFC4F1BC518D
:10179000C003F4CF03F0F3CFC3F1C103F350C42768
:1017A000F450C323000E0322BD51C003F350C427DD
:1017B000F450C323000E026A03220222BB51C1036C
:1017C000F350C327F4500322000E0222BB51C00382
:1017D000F3500326F4500222000E016A0122BD518B
:1017E000BF03F350C327F4500322000E022201224C
:1017F000BC51BF03F3500326F4500222000E012215
:10180000BB51BF03F3500226F4500122002A01BE4F
:1018100005D0C3370336023601360006000EC3AFCB
:101820000AD0032A02220122015005E1025003E1FD
:10183000035001E1002AC2BF018EC2AF019E04D055
:10184000006A016A026A036A000112008E0E006ECD
:1018500001015551005E56C102F057C101F0028EE0
:10186000005209E0D890025202E1015204E0023233
:101870000132002EF7D756AF05D0011E021E012AF5
:10188000D8B4022A000112000101B151D8B4A5D088
:10189000BD6FB551D8B4A1D0BD5F05E37F0EBD27A4
:1018A000D8B09BD006D0810EBD5FD8A096D0D8B45A
:1018B00094D0BDC100F0016A026A036ABC6BB2C178
:1018C000BBF1BB8FB3C1BAF1B4C1B9F1190EBD6F91
:1018D000B851B95F0DE2010EBA5F0AE2BB5F08E2E0
:1018E000BC5F06E2BC2BBB2BBA2BB851B92728D062
:1018F000B751BA5F12E2010EBB5F0FE2BC5F0DE2AF
:10190000BC2BBB2BB751BA27B851B92719E3BA2B57
:1019100017E1BB2B15E1BC2B13D0B6518009BB5F7F
:101920000EE2010EBC5F0BE2BC2BB6518009BB2757
:10193000B751BA27E9E3BB2BE7E1BC2BE5D703801E
:10194000BD2F01D00BD0D890B937BA37BB37BC37D1
:10195000D890033602360136BE37BAD7BEA106D0BC
:10196000D890013202320332BE3302D0000635E095
:10197000BEBF1ED0D890B937BA37BB37BC37B851C5
:10198000B95F07E2010EBA5F04E2BB5F02E2BC5F2F
:101990001AE3B751BA5F05E2010EBB5F02E2BC5F1A
:1019A00012E3B6518009BB5F03E2010EBC5F0BE39B
:1019B000032A09E1022A07E1012A05E1002A0DE0D4
:1019C000013202320332B2C1BDF1B651BD1BBDAF0F
:1019D00002D0018E06D0019E04D0006A016A026A1C
:1019E000036A00011200800ED8A202D00101B41BCC
:1019F0000101B96BBA6BB0C1B8F1B451B81BAF51AA
:101A0000D8B4DFD0B76F006EB351D8B4E3D0B75FAE
:101A1000D8B483D03EE3B4C1BDF1BD8FB5C1BCF134
:101A2000B6C1BBF1BA6BD890BD33BC33BB33BA334C
:101A3000B72FF8D7B8AF03D0B981E0D0B991B7913B
:101A4000B989010EEA6EB20EE96EEBD0B999B8BF52
:101A50000AD0B7A113D0BD33BC33BB33BA33002A8D
:101A6000D8B4C7D00BD0BDBF0CD0D890BA37BB37D5
:101A7000BC37BD370006D8B4BCD0F5D7B98D6DD012
:101A8000B99DB0C1B8F1B0AF02D0BD8FABD0BD9F92
:101A9000A9D0B3C1B7F1B3C100F0AF51B75FB0C1C6
:101AA000BDF1BD8FB1C1BCF1B2C1BBF1BA6BD89071
:101AB000BD33BC33BB33BA33B72FF8D7B8AF03D07D
:101AC000B9839CD0B993B791B98B010EEA6EB60E6B
:101AD000E96EA7D0B99BB8BF0AD0B7A113D0BD3368
:101AE000BC33BB33BA33002AD8B483D00BD0BDBFCC
:101AF0000CD0D890BA37BB37BC37BD370006D8B446
:101B000078D0F5D7B98F29D0B99FB4C1B8F1B4AFA7
:101B100002D0BD8F67D0BD9F65D0B4C1BDF1BD8F70
:101B2000B5C1BCF1B6C1BBF1B8AF04D0BD9FB9859A
:101B300065D0B995BA6BB791010EEA6EB20EE96E37
:101B400070D0B8BF1CD0B0C1B8F1B7A106D0BD33BA
:101B5000BC33BB33BA33002A4CE0BAAF0BD0BB2B3B
:101B600009E1BC2B07E1BD2B05E1BD33BC33BB3321
:101B7000002A3FE0B9BD84D7B9BFC6D71CD0800EBC
:101B8000BD1BBDAF04D03AD0B4C1B8F10AD0B0C1CA
:101B9000B8F1BD5306E1BC5304E1BB5302E1006A56
:101BA00021D0BDBF08D0D890BA37BB37BC37BD37BE
:101BB000002EF7D71ED0B8AF02D0BD8F13D0BD9F77
:101BC00011D0B3C100F0B4C1BDF1B5C1BCF1B6C113
:101BD000BBF108D0AFC100F0B0C1BDF1B1C1BCF1E3
:101BE000B2C1BBF1BDC101F0BCC102F0BBC103F089
:101BF00034D0006A016A026A036A2FD0BA6BBB1F35
:101C0000BC1FBD1FBA1FBA2B05E1BB2B03E1BC2BC8
:101C100001E1BD2BB9B112D7B9B354D7B9B589D742
:101C2000B3D7EF50BB2705E3BC2B03E1BD2BD8B4E2
:101C3000B781ED52EF50BC2703E3BD2BD8B4B78179
:101C4000ED52EF50EFBE01D0800ABD27D8B0B7816A
:101C5000B9B9FCD6B9BB3ED774D70001120009C18F
:101C6000EAFF08C1E9FF0101BAC1EFFFE92AD8B4D0
:101C7000EA2AEF6A082BD8B4092B000112000900E8
:101C8000F6CFAEF1F7CFAFF1F5CFBAF1E8DFAEC1E5
:101C9000F6FFAFC1F7FF0101AD2F01D002D0000167
:101CA000EED700011200EACFB5F1E9CFB4F101019E
:101CB000AE39F009B06FB027E20FB16F320FB36FDA
:101CC000AE510F0BB127B127B327E90FB26FB2277F
:101CD000B227AD390F0BB227B327B237B337B31FD3
:101CE000B337AD510F0BB327B037070EAF6F0A0EE6
:101CF000B207B327FDE3B107B227FDE3B007B12771
:101D0000FDE3AF07B027FDE3010EEA6EAF0EE96E0B
:101D1000070EB415B49DE926B30EE95CD8B4B48DB2
:101D2000EF50006E08E1B4BD06D0B4B915D0B4B719
:101D300002D0200E03D0B487B499300E0026EACF2B
:101D4000AEF1E9CFADF100C0BAF1000188DFAEC15C
:101D5000EAFFADC1E9FF0101EE50B4ADDDD70001EE
:101D600012000101BA51B608BA6F036ABBC1BEF1D5
:101D7000BB8FD890BB33BC33BD3303320232013248
:101D80000032BA2FF6D7BEAF0BD0001E011E021EC6
:101D9000031E002AD8B4012AD8B4022AD8B4032AD0
:101DA0000001FEEF0EF0E9500101B26FB151B46FC6
:101DB0001BE0B0C1BDF1AFC1BCF1AEC1BBF1ADC163
:101DC000BAF1C16BC06B200EBF6F820EBE6F0001F7
:101DD000C2DC03C0B0F102C0AFF101C0AEF100C07F
:101DE000ADF10101B42FE5D7B0C1BDF1AFC1BCF178
:101DF000AEC1BBF1ADC1BAF10001B3D703C0B0F1C0
:101E000002C0AFF101C0AEF100C0ADF10101B0AF51
:101E10000DD0B207B28BAD1FAE1FAF1FB01FAD2BE1
:101E2000D8B4AE2BD8B4AF2BD8B4B02B3B0EB96F0F
:101E30009A0EB86FCA0EB76FB66B0A0EB46FB15177
:101E4000D8B4B22BD882010EEA6EAD0EE96EB0C1E5
:101E5000BDF1AFC1BCF1AEC1BBF1ADC1BAF1B9C109
:101E6000C1F1B8C1C0F1B7C1BFF1B6C1BEF1000147
:101E7000B0EC04F00150005213E10101B129B45D4E
:101E8000D8A402D000010CD0B2510DE00F0BB45D0C
:101E900001E040E2B2BF3ED0B2BD05D0200E34D04A
:101EA000200E0101B217B2AB0ED0B29BB151D8A433
:101EB000B2070050B26F2D0EBA6F0001D0DE0101E3
:101EC000B251006EB26BB151B45D0CE10050B26F13
:101ED0002E0EBA6F0001C3DE0101B251006E200E5A
:101EE000B217000E300EB2AB0FD0B29BB151D8A4D6
:101EF000B2070050B26F2D0EBA6F0001B0DE0101C3
:101F0000B251006EB26B300E002600C0BAF1000173
:101F1000A6DE0101D892B9C1BDF1B8C1BCF1B7C10B
:101F2000BBF1B6C1BAF1C16BC06BBF6B0A0EBE6F1D
:101F30000001B0EC04F003C0B9F102C0B8F101C077
:101F4000B7F100C0B6F10101B42F7CD70001120037
:101F50000101B051016AAF5D03E2AFC100F00CD0E6
:101F6000006A080EB16FAF370036B051005CD8B0D0
:101F7000006E0136B12FF7D7000112000150ADC13C
:101F8000AFF1640E0101B06F0001E2DF00C0ADF1FE
:101F90000150300E08E10101AEA30FD0AEB70DD055
:101FA000AEB9200E04D00101AE97AE99AE810126E4
:101FB00001C0BAF1000153DE0101ADC1AFF10A0E5B
:101FC000B06F0001C5DF00C0ADF10150300E08E177
:101FD0000101AEB70AD0AEA108D0AEB9200E000103
:101FE000012601C0BAF13BDE0101300EAD27ADC1C3
:101FF000BAF1000134DE00EF13F00900F5520CE0F5
:10200000F6CFADF1F7CFAEF1F5CFBAF128DEADC125
:10201000F6FFAEC1F7FFF1D71200EACFB5F1E9CF75
:10202000B4F10101AEAF08D0B48FB4A9B42BAD1F89
:10203000AE1FAD2BD8B4AE2BAE39F009B06FB027C0
:10204000E20FB16F320FB36FAE510F0BB127B12753
:10205000B327E90FB26FB227B227AD390F0BB22702
:10206000B327B237B337B31FB337AD510F0BB32715
:10207000B037070EAF6F0A0EB207B327FDE3B10703
:10208000B227FDE3B007B127FDE3AF07B027FDE3BB
:10209000010EEA6EAF0EE96E070EB415B49DE906A7
:1020A000B41507E1B4B9E92AB4B903D0200E006E23
:1020B0001CD0E926B30EE95CD8B4B48DEF50006EA5
:1020C00008E1B4BD06D0B4B91DD0B4B702D0200E1B
:1020D0000BD0B4AF06D02D0E006EED50B49DB49F62
:1020E00004D0B487B499300E0026EACFAEF1E9CF20
:1020F000ADF100C0BAF10001B2DDAEC1EAFFADC181
:10210000E9FF0101EE50B4ADD5D700011200010185
:10211000A26BA16BA06B7F0E9F6FA66BA56BA46BD0
:10212000A36FAA6BA96BA86BA76B140E016EC250AC
:10213000830B0110C26E0400190E006E002EFED734
:1021400000D00000C282C2B2FED7C3CF59F1C4CFC3
:102150005AF1AB6BABB1FBD0D8A8F9D0A26BA16B95
:10216000A06B7F0E9F6FA66BA56BA46BA36FAC6B70
:10217000ACB17AD079E7AB51AC5D74E0AC51040DF1
:10218000F350036ABD0FE96E000E0320EA6EECCF38
:1021900003F0ED52EF50595D006E03505A59036E33
:1021A00000C0B3F1B46F000190EC0BF0A2C1BDF11F
:1021B000A1C1BCF1A0C1BBF19FC1BAF103C0C1F183
:1021C00002C0C0F101C0BFF100C0BEF1ABEC0BF02A
:1021D00003C0A2F102C0A1F101C0A0F100C09FF1B3
:1021E0000101AB51040DF350036ABD0FE96E000EFF
:1021F0000320EA6EECCFB0F1ED52EFCFAFF1AC516E
:10220000040DF350036ABD0FE96E000E0320EA6E61
:10221000ECCF03F0ED52EF50AF5D006E0350B059BC
:10222000036E00C0B3F1B46F000190EC0BF0A6C1D7
:10223000BDF1A5C1BCF1A4C1BBF1A3C1BAF103C0FA
:10224000C1F102C0C0F101C0BFF100C0BEF1ABECF2
:102250000BF003C0A6F102C0A5F101C0A4F100C0BB
:10226000A3F10101AC2B84D7A2C1B4F1A1C1B3F198
:10227000A0C1B2F19FC1B1F1A6C1B8F1A5C1B7F13A
:10228000A4C1B6F1A3C1B5F1000144EC0CF003C048
:10229000B0F102C0AFF101C0AEF100C0ADF101017B
:1022A000AB51040DF350036A150FB16F000E0320FC
:1022B000B26F020EB125016E000EB221036E015005
:1022C000A80FE96E000E0320EA6EECCF03F0ED528A
:1022D000EFCFB3F103C0B4F1000190EC0BF0B0C14B
:1022E000BDF1AFC1BCF1AEC1BBF1ADC1BAF103C02C
:1022F000C1F102C0C0F101C0BFF100C0BEF1ABEC42
:102300000BF0EACFAEF1E9CFADF1D892AAC1B2F1AC
:10231000A9C1B1F1A8C1B0F1A7C1AFF103C0B6F135
:1023200002C0B5F101C0B4F100C0B3F1F3EC0CF0A0
:10233000AEC1EAFFADC1E9FF03C0AAF102C0A9F135
:1023400001C0A8F100C0A7F10101AB2B03D7180E03
:10235000016EC250830B0110C26E0400190E006E94
:10236000002EFED700D00000C282C2B2FED7C3CF7B
:1023700055F1C4CF56F156C1B4F155C1B3F10001C6
:1023800090EC0BF003C0B0F102C0AFF101C0AEF1B0
:1023900000C0ADF103C0B4F102C0B3F101C0B2F1AD
:1023A00000C0B1F10101B86BB76BB66B890EB56FA8
:1023B000000144EC0CF003C0B0F102C0AFF101C069
:1023C000AEF100C0ADF103C0BDF102C0BCF101C06F
:1023D000BBF100C0BAF1330E0101C16FC06F530EE3
:1023E000BF6F800EBE6F0001ABEC0BF003C09EF11F
:1023F00002C09DF101C09CF100C09BF1D8829EC13A
:10240000B2F19DC1B1F19CC1B0F19BC1AFF101012D
:10241000B66BB56B400EB46F7E0EB36F0001F3EC7C
:102420000CF003C09EF102C09DF101C09CF100C000
:102430009BF19EC1BDF19DC1BCF19CC1BBF19BC193
:10244000BAF10101C16BC06B480EBF6F850EBE6F44
:102450000001ABEC0BF003C09EF102C09DF101C086
:102460009CF100C09BF1D8929EC1B2F19DC1B1F127
:102470009CC1B0F19BC1AFF10101B66BB56B480EC9
:10248000B46F830EB36F0001F3EC0CF003C09EF148
:1024900002C09DF101C09CF100C09BF10101586B8D
:1024A000576B585322E1575109081FE35735026E05
:1024B0005835036E02360336FC0E02160250BD0F6D
:1024C000E96E000E0320EA6EECCF03F0ED52EFCF81
:1024D00001F05A51035C05E303E15951015C01E34A
:1024E00004D0572BD8B4582BDCD75735026E58354B
:1024F000036E02360336FC0E02160250150FAD6F46
:10250000000E0320AE6F020EAD25016E000EAE214F
:10251000036E0150A80FE96E000E0320EA6EECCFA7
:102520005AF1ED52EFCF59F1010E096F5B0E086FB2
:10253000F60EF66E040EF76E070EAD6F00013FEC5F
:102540000EF0100EE96EAAC0AEF1A9C0ADF153ECC9
:102550000EF0000EF66E050EF76E070E0101AD6F60
:1025600000013FEC0EF0100EE96E5AC1AEF159C1F8
:10257000ADF153EC0EF00A0EF66E050EF76E0A0E74
:102580000101AD6F00013FEC0EF0040EE96E9EC13B
:10259000B0F19DC1AFF19CC1AEF19BC1ADF1010E97
:1025A0000101B16F0001D3EC0EF0190EF66E050EAD
:1025B000F76E080E0101AD6F00013FEC0EF0100E3A
:1025C000E96EBCC0AEF1BBC0ADF153EC0EF0240E11
:1025D000F66E050EF76E050E0101AD6F00013FECC2
:1025E0000EF00B0EE96EB9C0AEF1B8C0ADF153EC10
:1025F0000EF0BAC0ADF1010E0101AE6F0001BED404
:10260000320EF66E050EF76E060E0101AD6F00017B
:102610003FEC0EF03E0EF66E050EF76EEEDC2C0E65
:102620000101BA6F00012FEC0EF0200E0101BA6F0C
:1026300000012FEC0EF0010E0101AE6F5B0EAD6FCD
:1026400000016AEC06F0B72D0CD0010E0101096FF4
:102650005B0E086F440EF66E050EF76E0001CDDCC2
:102660000BD0010E0101096F5B0E086F500EF66E64
:10267000050EF76E0001C1DC010E0101AE6F5B0EAD
:10268000AD6F00016AEC06F02E5203E12D50600898
:1026900022E2010E0101096F5B0E086F5C0EF66EFF
:1026A000050EF76E090EAD6F00013FEC0EF0100E37
:1026B000E96E2EC0AEF12DC0ADF1AFDC2C0E0101E4
:1026C000BA6F00012FEC0EF0200E0101BA6F00016D
:1026D0002FEC0EF021D0010E0101096F5B0E086F87
:1026E0006C0EF66E050EF76E090EAD6F00013FEC35
:1026F0000EF0100EE96E2EC0AEF12DC0ADF18DDCE6
:102700002C0E0101BA6F00012FEC0EF0200E01011A
:10271000BA6F00012FEC0EF0010E0101AE6F5B0EDF
:10272000AD6F00016AEC06F082A00CD0010E010131
:10273000096F5B0E086F7C0EF66E050EF76E0001DA
:102740005CDC0BD0010E0101096F5B0E086F8E0E71
:10275000F66E050EF76E000150DC010E0101AE6F42
:102760005B0EAD6F00016AEC06F00101062D0CD086
:10277000010E096F5B0E086FA40EF66E050EF76E64
:1027800000013BDC0DD0010106530BE1010E096F86
:102790005B0E086FB60EF66E050EF76E00012DDCAF
:1027A0000101010EAE6F5B0EAD6F00016AEC06F029
:1027B000AB2D0ED0AC530CE1010E0101096F5B0E85
:1027C000086FC60EF66E050EF76E000116DC0BD014
:1027D000010E0101096F5B0E086FD80EF66E050E33
:1027E000F76E00010ADC010E0101AE6F5B0EAD6FEA
:1027F00000016AEC06F0010107530DE0010E096FBC
:102800005B0E086FEA0EF66E050EF76E0001FDEC2A
:102810000FF00CD00101010E096F5B0E086FFA0E6C
:10282000F66E050EF76E0001FDEC0FF0010E0101D2
:10283000AE6F5B0EAD6F00016AEC06F0010E010198
:10284000096F5B0E086F0A0EF66E060EF76E00013A
:10285000FDEC0FF0010E0101AE6F5B0EAD6F0001DC
:102860006AEC06F08FEF1AF0000E016EC250830B77
:102870000110C26E0400190E006E002EFED700D0AB
:102880000000C282C2B2FED7C4CF96F10101C3CF0D
:1028900095F1200E016EC250830B0110C26E040030
:1028A000190E006E002EFED700D00000C282C2B208
:1028B000FED7C3CF97F1C4CF98F196C1B4F195C1BB
:1028C000B3F1000190EC0BF003C0A4F102C0A3F13E
:1028D00001C0A2F100C0A1F103C0B4F102C0B3F184
:1028E00001C0B2F100C0B1F10101B86BB76BB66BBA
:1028F000890EB56F000144EC0CF003C0A4F102C0D6
:10290000A3F101C0A2F100C0A1F103C0BDF102C05A
:10291000BCF101C0BBF100C0BAF1330E0101C16FBF
:10292000C06F530EBF6F800EBE6F0001ABEC0BF09B
:1029300003C09CF102C09BF101C09AF100C099F163
:1029400098C1B4F197C1B3F190EC0BF003C0A4F1BE
:1029500002C0A3F101C0A2F100C0A1F103C0B4F113
:1029600002C0B3F101C0B2F100C0B1F10101B86B16
:10297000B76BB66B890EB56F000144EC0CF003C069
:10298000A4F102C0A3F101C0A2F100C0A1F103C0F3
:10299000BDF102C0BCF101C0BBF100C0BAF1330E01
:1029A0000101C16FC06F110EBF6F840EBE6F0001B9
:1029B000ABEC0BF003C0A0F102C09FF101C09EF18F
:1029C00000C09DF1010E0101096F550E086FC60E82
:1029D000F66E040EF76E100EAD6F00013FEC0EF0B8
:1029E000010EE96E9CC1B0F19BC1AFF19AC1AEF18D
:1029F00099C1ADF10101B16F0001D3EC0EF0DB0E16
:102A0000F66E040EF76E110E0101AD6F00013FEC82
:102A10000EF0010EE96EA0C1B0F19FC1AFF19EC1F1
:102A2000AEF19DC1ADF10101B16F0001D3EC0EF02B
:102A3000F10EF66E040EF76E030E0101AD6F00018C
:102A40003FEC0EF0010E0101AE6F550EAD6F0001AF
:102A50006AEC06F08FEF1AF00900F5520DE0F6CFA0
:102A600055F1F7CF56F1F550A4A8FED7736E55C1B6
:102A7000F6FF56C1F7FFF0D78CEF1AF0020E0101F6
:102A80003E6F036B000151EC09F002C056F101C02A
:102A900055F10101565303E15551600808E25653C0
:102AA00006E155517A0803E35551DF0B01D055512A
:102AB000480A00012FE0770A2DE0790A31E0090A7F
:102AC000D8B498D01B0AD8B404D1160AD8B458D1B7
:102AD000120AD8B4C5D11C0AD8B41FD20D0AD8B472
:102AE0008ED2120AD8B4BBD2620AD8B40FEF1AF051
:102AF000030AD8B445EF1AF0010AD8B479EF1AF0F6
:102B0000620AD8B480EF1AF0030AD8B483EF1AF03F
:102B100086EF1AF061EF09F0000E016E91EF1AF0E6
:102B20000CEF0BF00101446B436B02C042F101C09A
:102B300041F144530AE1435308E1425115083AE296
:102B4000FF0A03E14151110835E2445333E1435395
:102B500031E1425116082EE303E14151DA082AE33C
:102B600042C1AAF041C1A9F044C16EF143C16DF167
:102B700042C16CF141C16BF1726B716B706B0A0EEB
:102B80006F6F000183EC04F001C056F100C055F1F5
:102B900001C05AF100C059F1FAEC04F0C5EC05F09F
:102BA0000B0EEE6F9F0EED6F51EC0BF03DEC06F04F
:102BB0001FD00101010EEA6E4B0EE96EF2CF55F106
:102BC000F29E0A0E016EF76A000E0001ADEC01F0F4
:102BD0000A000900F5CFEEFF012EFBD7010155BF1A
:102BE000F28E010EAE6F4B0EAD6F00016AEC06F077
:102BF0008FEF1AF051EC09F002C056F101C055F107
:102C00000101565303E15551600808E2565306E1AD
:102C100055517A0803E35551DF0B01D055514E0849
:102C200038E10001ADEC0AF001C03FF101013F5174
:102C300001080FE33F5307E0010E056F0001C5ECEB
:102C400005F005D00101056B000165EF0BF01FD009
:102C50000101010EEA6E4B0EE96EF2CF55F1F29EC4
:102C60000A0E016EF76A000E0001ADEC01F00A00D9
:102C70000900F5CFEEFF012EFBD7010155BFF28E03
:102C8000010EAE6F4B0EAD6F00016AEC06F01FD067
:102C90000101010EEA6E4B0EE96EF2CF55F1F29E84
:102CA0000A0E016EF76A000E0001ADEC01F00A0099
:102CB0000900F5CFEEFF012EFBD7010155BFF28EC3
:102CC000010EAE6F4B0EAD6F00016AEC06F08FEF98
:102CD0001AF051EC09F002C056F101C055F10101A2
:102CE000565303E15551600808E2565306E1555129
:102CF0007A0803E35551DF0B01D05551520820E10A
:102D0000010EEA6E4B0EE96EF2CF55F1F29E070E00
:102D1000016EF76A000E0001BFEC01F00A00090025
:102D2000F5CFEEFF012EFBD7010155BFF28E010E4C
:102D3000AE6F4B0EAD6F00016AEC06F01FD00101C3
:102D4000010EEA6E4B0EE96EF2CF55F1F29E0A0EBD
:102D5000016EF76A000E0001ADEC01F00A000900F7
:102D6000F5CFEEFF012EFBD7010155BFF28E010E0C
:102D7000AE6F4B0EAD6F00016AEC06F08FEF1AF0EC
:102D800051EC09F002C056F101C055F10101565352
:102D900003E15551600808E2565306E155517A089F
:102DA00003E35551DF0B01D055514D0838E10001C7
:102DB000ADEC0AF001C03FF101013F5101080FE302
:102DC0003F5309E0306A010E2F6E2E6A2D6A066F9E
:102DD0008C86A38A03D0066B8C96A39A1FD0010E13
:102DE000EA6E4B0EE96EF2CF55F1F29E0A0E016EBD
:102DF000F76A000E0001ADEC01F00A000900F5CF02
:102E0000EEFF012EFBD7010155BFF28E010EAE6F12
:102E10004B0EAD6F00016AEC06F001011FD0010EF0
:102E2000EA6E4B0EE96EF2CF55F1F29E0A0E016E7C
:102E3000F76A000E0001ADEC01F00A000900F5CFC1
:102E4000EEFF012EFBD7010155BFF28E010EAE6FD2
:102E50004B0EAD6F00016AEC06F0010100015FD37B
:102E600073EC0AF002C056F101C055F1010156534E
:102E700003E15551600808E2565306E155517A08BE
:102E800003E35551DF0B01D0555153083CE10001DC
:102E900051EC09F0ADEC0AF001C03FF101013F51E6
:102EA000010811E33F5303E0010E046F01D0046BEE
:102EB00004C1A8F00B0E0001EE6F9F0EED6F51ECF8
:102EC0000BF01FD00101010EEA6E4B0EE96EF2CF3E
:102ED00055F1F29E0A0E016EF76A000E0001ADEC8C
:102EE00001F00A000900F5CFEEFF012EFBD701012A
:102EF00055BFF28E010EAE6F4B0EAD6F00016AEC46
:102F000006F004D00101000179EF0BF00B0EEE6F1B
:102F10009F0EED6F51EC0BF002D351EC09F002C0A3
:102F200056F101C055F10101565303E155516008B6
:102F300008E2565306E155517A0803E35551DF0B79
:102F400001D0555144083CE10001ADEC0AF001C04C
:102F50003FF101013F51010813E33F5306E0010E29
:102F60000001B76F8A8604D001010001B76B8A9611
:102F70000B0EEE6F9F0EED6F51EC0BF01FD00101A9
:102F8000010EEA6E4B0EE96EF2CF55F1F29E0A0E7B
:102F9000016EF76A000E0001ADEC01F00A000900B5
:102FA000F5CFEEFF012EFBD7010155BFF28E010ECA
:102FB000AE6F4B0EAD6F00016AEC06F01FD0010141
:102FC000010EEA6E4B0EE96EF2CF55F1F29E0A0E3B
:102FD000016EF76A000E0001ADEC01F00A00090075
:102FE000F5CFEEFF012EFBD7010155BFF28E010E8A
:102FF000AE6F4B0EAD6F00016AEC06F090D2ADECF7
:103000000AF001C03FF101013F51010807E33F53BE
:1030100003E0010E076F01D0076B1FD0010EEA6EAF
:103020004B0EE96EF2CF55F1F29E0A0E016EF76A71
:10303000000E0001ADEC01F00A000900F5CFEEFF33
:10304000012EFBD7010155BFF28E010EAE6F4B0E64
:10305000AD6F00016AEC06F00101000160D24FEC97
:103060000AF051EC09F001C03FF1ADEC0AF001C0EB
:1030700040F1ADEC0AF002C046F101C045F101019A
:103080003F51600806E23F517A0803E33F51DF0BEE
:1030900001D03F514E0A00010FE01E0A6AE0020A09
:1030A000D8B4C4D0140AD8B4FED0070AD8B451D1C9
:1030B000170AD8B4ABD1B2D101014051010838E3AD
:1030C00046C1B4F145C1B3F1000190EC0BF003C06F
:1030D000BDF102C0BCF101C0BBF100C0BAF1A40E49
:1030E0000101C16FDF0EC06F1E0EBF6F7D0EBE6F80
:1030F0000001ABEC0BF003C058F102C057F101C066
:1031000056F100C055F126EC0CF002C046F101C0AA
:1031100045F1D89001014035036AAD0FE96E000E0C
:103120000320EA6E46C1ECFFED5245C1EFFF1FD010
:10313000010EEA6E4B0EE96EF2CF55F1F29E0A0EC9
:10314000016EF76A000E0001ADEC01F00A00090003
:10315000F5CFEEFF012EFBD7010155BFF28E010E18
:10316000AE6F4B0EAD6F00016AEC06F0010100017D
:1031700055D101014051010838E346C1B4F145C1C0
:10318000B3F1000190EC0BF003C0BDF102C0BCF143
:1031900001C0BBF100C0BAF1A40E0101C16FDF0E86
:1031A000C06F1E0EBF6F7D0EBE6F0001ABEC0BF04B
:1031B00003C058F102C057F101C056F100C055F1EB
:1031C00026EC0CF002C046F101C045F1D890010197
:1031D0004035036AB10FE96E000E0320EA6E46C166
:1031E000ECFFED5245C1EFFF1FD0010EEA6E4B0E12
:1031F000E96EF2CF55F1F29E0A0E016EF76A000EEB
:103200000001ADEC01F00A000900F5CFEEFF012E40
:10321000FBD7010155BFF28E010EAE6F4B0EAD6FA5
:1032200000016AEC06F001010001F8D051EC09F050
:1032300002C056F101C055F10101565303E1555149
:10324000600808E2565306E155517A0803E35551E8
:10325000DF0B01D05551520805E146C1B6F045C11A
:10326000B5F01FD0010EEA6E4B0EE96EF2CF55F1AC
:10327000F29E0A0E016EF76A000E0001ADEC01F03D
:103280000A000900F5CFEEFF012EFBD7010155BF63
:10329000F28E010EAE6F4B0EAD6F00016AEC06F0C0
:1032A00001010001BBD0010140510B0831E3405145
:1032B000040DF350036ABD0FE96E000E0320EA6EA1
:1032C00046C1ECFFED5245C1EFFF0001ADEC0AF045
:1032D00002C046F101C045F101014051040DF35017
:1032E000036A150F556F000E0320566F020E552509
:1032F000016E000E5621036E0150A80FE96E000EFC
:103300000320EA6E46C1ECFFED5245C1EFFF1FD02E
:10331000010EEA6E4B0EE96EF2CF55F1F29E0A0EE7
:10332000016EF76A000E0001ADEC01F00A00090021
:10333000F5CFEEFF012EFBD7010155BFF28E010E36
:10334000AE6F4B0EAD6F00016AEC06F0010100019B
:1033500065D001014051010838E346C1B4F145C1CF
:10336000B3F1000190EC0BF003C0BDF102C0BCF161
:1033700001C0BBF100C0BAF1A40E0101C16FDF0EA4
:10338000C06F1E0EBF6F7D0EBE6F0001ABEC0BF069
:1033900003C058F102C057F101C056F100C055F109
:1033A00026EC0CF002C046F101C045F1D8900101B5
:1033B0004035036AE90FE96E000E0320EA6E46C14C
:1033C000ECFFED5245C1EFFF1FD0010EEA6E4B0E30
:1033D000E96EF2CF55F1F29E0A0E016EF76A000E09
:1033E0000001ADEC01F00A000900F5CFEEFF012E5F
:1033F000FBD7010155BFF28E010EAE6F4B0EAD6FC4
:1034000000016AEC06F00101000108D00B0EEE6F1E
:103410009F0EED6F51EC0BF03DEC06F080D0ADEC63
:103420000AF002C048F101C047F10101475302E12F
:1034300048530AE0485308E14751630805E348C18F
:10344000B9F047C1B8F01FD0010EEA6E4B0EE96E1D
:10345000F2CF55F1F29E0A0E016EF76A000E0001DE
:10346000ADEC01F00A000900F5CFEEFF012EFBD70D
:10347000010155BFF28E010EAE6F4B0EAD6F000114
:103480006AEC06F0010100014AD0ADEC0AF002C07E
:103490004AF101C049F10101495302E14A5308E0F0
:1034A0004A5306E14951390803E349C1BAF01FD034
:1034B000010EEA6E4B0EE96EF2CF55F1F29E0A0E46
:1034C000016EF76A000E0001ADEC01F00A00090080
:1034D000F5CFEEFF012EFBD7010155BFF28E010E95
:1034E000AE6F4B0EAD6F00016AEC06F001010001FA
:1034F00016D0ADEC0AF002C0BCF001C0BBF00FD09A
:1035000087EF10F00CD034EF14F009D01C0EF66EDB
:10351000060EF76E2CEF15F0000E016E02D0000EB5
:10352000016EF8EF1AF05450FC0FD8B0C8D0040F59
:1035300061EF1BF0556A542AC2D0315232E03BECA5
:1035400009F001011D6B01C01CF11C511D112AE085
:103550001C51240808E11D5306E1542A0001A76B01
:10356000A66B1FD00101010EEA6E200EE96EF2CFAC
:103570003EF1F29E0B0E016EF76A000E0001D0ECD8
:1035800001F00A000900F5CFEEFF012EFBD7010183
:103590003EBFF28E010EAE6F200EAD6F00016AECE1
:1035A00006F0010100018BD03152D8B471D0A76B65
:1035B000A66B3BEC09F001011D6B01C01CF15550DD
:1035C000552A036A560FE96E000E0320EA6E1CC1ED
:1035D000EFFF5550460804E2546A000170D0010123
:1035E0001C510D0831E11D532FE100013EEF15F094
:1035F00001011F6B01C01EF11E3D02D01F531FE0D1
:10360000010EEA6E2B0EE96EF2CF3EF1F29E080E2D
:10361000016EF76A000E0001E3EC01F00A000900F8
:10362000F5CFEEFF012EFBD701013EBFF28E010E5A
:10363000AE6F2B0EAD6F00016AEC06F001010001C8
:1036400026EC03F025D001011C511B0822E11D537B
:1036500020E1010EEA6E330EE96EF2CF3EF1F29EEA
:103660000B0E016EF76A000E0001F4EC01F00A0087
:103670000900F5CFEEFF012EFBD701013EBFF28E10
:10368000010EAE6F330EAD6F00016AEC06F0546AA6
:1036900001015450010811E21EA20FD01E92000138
:1036A000A62BD8B4A72BA751260806E2FF0A03E1F0
:1036B000A651100801E2546A0101000100D07AEF1E
:1036C0001BF0F2CF0DF0F29EE824F76AF736E70F11
:1036D000F66E360EF7220A00F550FA6E0800F55025
:1036E0000DBEF28EF96E34353A35A835BE3628EF68
:1036F00009F019D730EF1CF0F86AD09E078E700ED3
:10370000D36E9B9C9B9EB896190EAF6EA60EAC6EA8
:10371000900EAB6E7096190E756EA60E726E900EB0
:10372000716E226A216A2C6A2B6A2E6A2D6AEE6BF0
:10373000ED6BA8C004F1010E0101056F066B076B6C
:10374000096B086BC150F00BC16E000E0F01386F92
:103750003C6F396F3A6F3B6F0101886B776A786A0B
:10376000796A030E0B6FE80E0A6F0D6B010E0C6F7A
:1037700000012EEF03F09BEF03F0176A0A0E166E9E
:1037800020EF04F03DEC06F00D0E01010E6F0A0E65
:103790000F6F106B010EAE6F0E0EAD6F00016AEC75
:1037A00006F0010EEA6E0E0EE96EF2CF1CF1F29EEB
:1037B000016EF76A000E07EC02F00A000900F5CF6F
:1037C000EEFF012EFBD701011CBFF28E010EAE6F82
:1037D0000E0EAD6F00016AEC06F00D0E01010E6FCA
:1037E0000A0E0F6F106B010EAE6F0E0EAD6F000163
:1037F0006AEC06F001011E6B0BC120F10AC11FF13A
:103800000001B4EC06F00A0E0101226F000108EC81
:1038100004F08C960101066B8C908C828C841EA027
:1038200015D01E900C510D1106E00D6B0C6B0001B4
:103830003DEC06F001010001AB51AC1102E08A88B9
:1038400001D08A78040000D000000101062D04D0C8
:10385000000119EF08F0010100012FEF08F047D730
:0C3860000101DDD70B6B010E0A6FFFD7D2
:020000040030CA
:0E00000000F8191C00BF00000FC00FE00F40F9
:00000001FF
;PIC18F45K22
;CRC=F271  CREATED="04-Jul-18 15:56"
